S0100000474C43445F3132382E7372656300
S11300000C941A010C9437010C9437010C943701A9
S11300100C9437010C9437010C9437010C9437017C
S11300200C9437010C9437010C9437010C9437016C
S11300300C9437010C9437010C9437010C9437015C
S11300400C9437010C9437010C9437010C9437014C
S11300500C943701000000000000005F000000075E
S1130060000700147F147F14242A7F2A1223130804
S1130070646236495522500005030000001C2241E9
S1130080000041221C00082A1C2A0808083E08080F
S11300900050300000080808080800303000002034
S11300A0100804023E5149453E00427F400042612F
S11300B05149462141454B311814127F10274545BB
S11300C045393C4A494930017109050336494949D2
S11300D036064949291E003636000000563600000F
S11300E000081422411414141414412214080002A8
S11300F001510906324979413E7E1111117E7F4931
S11301004949363E414141227F4141221C7F4949B0
S113011049417F090901013E414151327F080808E4
S11301207F00417F41002040413F017F081422416C
S11301307F404040407F0204027F7F0408107F3EDE
S11301404141413E7F090909063E4151215E7F0933
S1130150192946464949493101017F01013F40407F
S1130160403F1F2040201F7F2018207F6314081465
S1130170630304780403615149454300007F41410E
S1130180020408102041417F0000040201020440DF
S113019040404040000102040020545454787F48F9
S11301A04444383844444420384444487F38545400
S11301B05418087E090102081454543C7F080404AE
S11301C07800447D40002040443D00007F102844D6
S11301D000417F40007C041804787C0804047838CB
S11301E0444444387C14141408081414187C7C08FF
S11301F00404084854545420043F4440203C4040E4
S1130200207C1C2040201C3C4030403C44281028CA
S1130210440C5050503C4464544C44000836410053
S113022000007F0000004136080008082A1C080866
S11302301C2A080811241FBECFE5D8E0DEBFCDBFBD
S113024010E0A0E6B0E0E8E3F6E002C005900D920D
S1130250A037B107D9F724E0A0E7B0E001C01D92B0
S1130260A037B207E1F70E9497020C941A030C948A
S11302700000DB9ADB9808958FEF81BBD19AD39A63
S1130280A39AA29AA19AA99883ED90E30197F1F712
S113029000C00000A99A83ED90E30197F1F700C034
S11302A00000D998AB9AAA9A8FE382BB0E943901C5
S11302B080EC82BB0E94390183ED90E30197F1F752
S11302C000C0000083ED90E30197F1F700C0000047
S11302D0AB98AA9808950F931F93CF93DF93C82FD9
S11302E0042F683068F0862F88508830E8F7162F7E
S11302F01770D8EFD60FD695D695D695DF5F02C086
S1130300162FD0E0C03480F4D998AB9AAA98D7704D
S11303108D2F886B82BB0E943901CF738C2F806430
S113032082BB0E94390111C0C054D998AB98AA9AD3
S1130330D7708D2F886B82BB0E943901CF738C2FAD
S1130340806482BB0E943901C05CD99A0130D1F427
S1130350EC2FF0E0EE0FFF1FEE0FFF1FEE0FFF1F5D
S1130360E059FF4FED0FF11D81E090E002C0880FCE
S1130370991F1A95E2F79081892B808382BB0E9492
S113038039011AC0EC2FF0E081E090E002C0880F40
S1130390991F1A95E2F78095EE0FFF1FEE0FFF1FCE
S11303A0EE0FFF1FE059FF4FED0FF11D90818923E0
S11303B0808382BB0E943901DF91CF911F910F91FD
S11303C00895FF920F931F93CF93DF9300E010E003
S11303D0F12C3BC0EC2FF0E0EE0FFF1FEE0FFF1FE0
S11303E0EE0FFF1FE059FF4FE00FF11F1082C034E2
S11303F080F4D998AB9AAA98D7708D2F886B82BB5A
S11304000E943901CF738C2F806482BB0E94390112
S113041011C0C054D998AB98AA9AD7708D2F886B05
S113042082BB0E943901CF738C2F806482BB0E94EF
S11304303901C05CD99A12BA0E943901CF5F52F6D1
S11304400F5F1F4F0830110519F0D02FCF2DC2CFE9
S1130450DF91CF911F910F91FF900895CF92DF927A
S1130460EF92FF920F931F93CF93DF93D62E4052B8
S1130470242F30E08901000F111F000F111F020FFC
S1130480131F0C5A1F4F0F2EF5E0CF2EF02DC80E60
S1130490E82E18C0F801449150E00C2E02C0559586
S11304A047950A94E2F741706F2D8E2D0E946B01DF
S11304B02196F394C830D10569F70F5F1F4FE39479
S11304C0CE1421F0FD2CC0E0D0E0E4CFDF91CF9139
S11304D01F910F91FF90EF90DF90CF900895EF92CE
S11304E0FF920F931F93CF93DF93FA0101900020A3
S11304F0E9F73197E41BF50B1E161F068CF4D62F73
S11305008A017A01EE0EFF1EC82FF80141918F0176
S11305106D2F8C2F0E942E02CA5F0E151F05A9F79E
S1130520DF91CF911F910F91FF90EF900895CF939A
S1130530DF93CDB7DEB7A0970FB6F894DEBF0FBE3A
S1130540CDBF0E943C010E94E1018FEF87BB80E197
S1130550E0E6F0E0DE011F9601900D928A95E1F746
S113056022242394312CC12CD12C44244394512C87
S1130570CE0101964C018F8F98A23E019FE0690E37
S1130580711C6894AA24A2F8B12C18BAC2010A2CCE
S113059002C0880F991F0A94E2F788BB730100E038
S11305A010E086B390E0002E02C0959587950A94DA
S11305B0E2F780FF24C0AFE4B3EC1197F1F700C079
S11305C00000F401EC0DFD1DD7018C918083BFEF79
S11305D0CB1ADB0AF401EC0DFD1D10824F8D58A1DE
S11305E0622D81E00E946F028AE0C816D10441F4B2
S11305F09AE0290E311C1982C12CD12C01C01BBADE
S11306000F5F1F4FA4E0EA0EF11C0430110549F6F8
S113061083EC99E00197F1F700C000009FEFA91A5D
S1130620B90AAFEF6A1A7A0AB8E0AB16B10409F056
S10B0630ACCFA3CFF894FFCF77
S11306383738392F3435362A3132332D43303D2B70
S9030000FC
