S0100000474C43445F3132382E7372656300
S11300000C941A010C9437010C9437010C943701A9
S11300100C9437010C9437010C9437010C9437017C
S11300200C9437010C9437010C9437010C9437016C
S11300300C9437010C9437010C9437010C9437015C
S11300400C9437010C9437010C9437010C9437014C
S11300500C943701000000000000005F000000075E
S1130060000700147F147F14242A7F2A1223130804
S1130070646236495522500005030000001C2241E9
S1130080000041221C00082A1C2A0808083E08080F
S11300900050300000080808080800303000002034
S11300A0100804023E5149453E00427F400042612F
S11300B05149462141454B311814127F10274545BB
S11300C045393C4A494930017109050336494949D2
S11300D036064949291E003636000000563600000F
S11300E000081422411414141414412214080002A8
S11300F001510906324979413E7E1111117E7F4931
S11301004949363E414141227F4141221C7F4949B0
S113011049417F090901013E414151327F080808E4
S11301207F00417F41002040413F017F081422416C
S11301307F404040407F0204027F7F0408107F3EDE
S11301404141413E7F090909063E4151215E7F0933
S1130150192946464949493101017F01013F40407F
S1130160403F1F2040201F7F2018207F6314081465
S1130170630304780403615149454300007F41410E
S1130180020408102041417F0000040201020440DF
S113019040404040000102040020545454787F48F9
S11301A04444383844444420384444487F38545400
S11301B05418087E090102081454543C7F080404AE
S11301C07800447D40002040443D00007F102844D6
S11301D000417F40007C041804787C0804047838CB
S11301E0444444387C14141408081414187C7C08FF
S11301F00404084854545420043F4440203C4040E4
S1130200207C1C2040201C3C4030403C44281028CA
S1130210440C5050503C4464544C44000836410053
S113022000007F0000004136080008082A1C080866
S11302301C2A080811241FBECFE5D8E0DEBFCDBFBD
S113024011E0A0E6B0E0ECEAF8E002C005900D92FF
S1130250A031B107D9F725E0A0E1B1E001C01D92BA
S1130260A031B207E1F70E9442040C9454040C94A8
S11302700000AC9AAC9808958FEF81BBA09AA49A21
S1130280A39AA29AA19AA9982FE788E391E0215012
S113029080409040E1F700C00000A99A2FE788E36E
S11302A091E0215080409040E1F700C00000A89800
S11302B0AB9AAA9A8FE382BB0E94390180EC82BB7D
S11302C00E9439012FE788E391E02150804090405B
S11302D0E1F700C000002FE788E391E0215080405F
S11302E09040E1F700C00000AB98AA9808950F93DE
S11302F01F93CF93DF93C82F042F683068F0862FA5
S113030088508830E8F7162F1770D8EFD60FD69597
S1130310D695D695DF5F02C0162FD0E0C03480F4A6
S1130320A898AB9AAA98D7708D2F886B82BB0E942D
S11303303901CF738C2F806482BB0E94390111C0B4
S1130340C054A898AB98AA9AD7708D2F886B82BB9B
S11303500E943901CF738C2F806482BB0E943901C3
S1130360C05CA89A0130D1F4EC2FF0E0EE0FFF1F2F
S1130370EE0FFF1FEE0FFF1FE05FFE4FED0FF11DAD
S113038081E090E002C0880F991F1A95E2F79081EE
S1130390892B808382BB0E9439011AC0EC2FF0E0C4
S11303A081E090E002C0880F991F1A95E2F78095CA
S11303B0EE0FFF1FEE0FFF1FEE0FFF1FE05FFE4F5C
S11303C0ED0FF11D90818923808382BB0E94390146
S11303D0DF91CF911F910F910895FF920F931F9377
S11303E0CF93DF9300E010E0F12C3BC0EC2FF0E062
S11303F0EE0FFF1FEE0FFF1FEE0FFF1FE05FFE4F1C
S1130400E00FF11F1082C03480F4A898AB9AAA9828
S1130410D7708D2F886B82BB0E943901CF738C2FCC
S1130420806482BB0E94390111C0C054A898AB9863
S1130430AA9AD7708D2F886B82BB0E943901CF7323
S11304408C2F806482BB0E943901C05CA89A12BAC6
S11304500E943901CF5F52F60F5F1F4F083011051C
S113046019F0D02FCF2DC2CFDF91CF911F910F91D3
S1130470FF900895CF92DF92EF92FF920F931F9314
S1130480CF93DF93D62E4052242F30E08901000F02
S1130490111F000F111F020F131F0C5A1F4F0F2E95
S11304A0F5E0CF2EF02DC80EE82E18C0F8014491C7
S11304B050E00C2E02C0559547950A94E2F741701E
S11304C06F2D8E2D0E9477012196F394C830D105AB
S11304D069F70F5F1F4FE394CE1421F0FD2CC0E0A9
S11304E0D0E0E4CFDF91CF911F910F91FF90EF9077
S11304F0DF90CF900895EF92FF920F931F93CF93C5
S1130500DF93FA0101900020E9F73197E41BF50B22
S11305101E161F068CF4D62F8A017A01EE0EFF1EDA
S1130520C82FF80141918F016D2F8C2F0E943A0240
S1130530CA5F0E151F05A9F7DF91CF911F910F9187
S1130540FF90EF900895CF93DF93CDB7DEB7C054FB
S1130550D1090FB6F894DEBF0FBECDBF8DE0E0ED3C
S1130560F0E0DE01119601900D928A95E1F7AE015B
S11305704F5F5F4F61E081E00E947B0284E1EDED1B
S1130580F0E0DE011E9601900D928A95E1F7AE012E
S1130590425F5F4F6CE081E00E947B0281E1E1EF0A
S11305A0F0E0DE01929601900D928A95E1F7AE019A
S11305B04E5D5F4F68E181E00E947B028EE0E2E0E5
S11305C0F1E0DE01D39601900D928A95E1F7AE0138
S11305D04D5C5F4F64E281E00E947B02C05CDF4FB0
S11305E00FB6F894DEBF0FBECDBFDF91CF91089553
S11305F0CF93A1E0B0E064E070E0CD01062E02C02C
S1130600880F991F0A94E2F788BBCB010497FC0179
S1130610E054FF4F20E030E0C82F592F86B390E01C
S1130620022E02C0959587950A94E2F780FF23C0B5
S11306308C2F952F408141534430A0F44FEF54E365
S11306406CE0415050406040E1F700C00000220FD0
S1130650331F220F331F20543F4FF901E80FF91FB6
S113066080811CC08FEF94E34CE081509040404067
S1130670E1F700C000002F5F3F4F3496243031056E
S113068069F68FE19EE40197F1F700C000006F5F07
S11306907F4F6830710509F0B0CFADCFCF91089589
S11306A09C01FA019081992351F0D901A60FB71F3B
S11306B031969D936F5F7F4F91919111FACFF9011C
S11306C0E60FF71F10820895CF93DF93CDB7DEB7FF
S11306D0E6970FB6F894DEBF0FBECDBF0E94ED01C2
S11306E088248394912CE12CF12CCE0101962C01C9
S11306F08BAB5CAA0F2EF0E62F2EF0E03F2EF02DF0
S11307006894662462F8712C81E090E0062C02C0A3
S1130710880F991F0A94E2F788BB8BBBF301E4545A
S1130720FF4F6F01510100E010E086B390E0002E0E
S113073002C0959587950A94E2F780FF38C0F601C8
S11307408081833479F419820E94ED014BA95CA95C
S113075061E081E00E947B0288248394912CE12C47
S1130760F12C1BC0F201EE0DFF1D8083FFEFEF1A89
S1130770FF0AF201EE0DFF1D10824BA95CA9682D42
S113078081E00E947B0224E1E216F10431F48CE062
S1130790880E911C1982E12CF12C9FEFE4E3FCE01C
S11307A09150E040F040E1F700C000004DC089B333
S11307B090E0002E02C0959587950A94E2F780FF99
S11307C043C0F50180818C33C1F4E114F104E1F1FB
S11307D0F1E0EF1AF108C2018E0D9F1D9EAB8DABA7
S11307E020E2FC0120834BA95CA9682D81E00E94D2
S11307F07B02EDA9FEA910820EC0A501B7018BA949
S11308009CA90E945003F20101900020E9F731975E
S11308107F01E418F5084BA95CA9682D81E00E94CA
S11308207B02F4E1EF16F10431F42CE0820E911C0A
S11308301982E12CF12C8FEF94E3ECE0815090408D
S1130840E040E1F700C000000F5F1F4FF8E1AF0E7A
S1130850B11C24E0C20ED11C0430110509F065CF8F
S11308608FE19EE40197F1F700C000009FEF691A41
S1130870790AE6E02E0E311CF8E06F16710409F0D7
S113088043CF38CF0E943C010E94ED010E94A30295
S11308908FEF87BB8ABB0E94F802813311F40E9458
S10F08A0640380E090E00895F894FFCF1A
S11308AC73696E280000636F7328000074616E28EE
S11308BC0000726F6F7428005E0000000000580086
S11308CC000000005900000000003C2D0000000056
S11308DC2C00000000002E00000000002800000086
S11308EC0000290000000000430000000000430049
S11308FC0000000043000000000043000000000062
S113090C3738392F3435362A3132332D43303D2B99
S113091C312E43616C63756C61746F7200322E47B7
S113092C6175737320456C696D696E6174696F6E62
S113093C00332E4E6577746F6E2052617068736F3E
S113094C6E00342E496E746567726174696F6E0043
S9030000FC
