:100000000C945B020C9483020C9483020C94830284
:100010000C9483020C9483020C9483020C9483024C
:100020000C9483020C9483020C9483020C9483023C
:100030000C9483020C9483020C9483020C9483022C
:100040000C9483020C9483020C9483020C9483021C
:100050000C948302036EDB363D9A9999993DABAAC5
:10006000AA2A3E000000803F084AD73B3BCE016EE3
:1000700084BCBFFDC12F3D6C74319ABD56833DDAFF
:100080003D00C77F11BED9E4BB4C3E916BAAAABE0E
:10009000000000803F07634236B79BD8A71A396833
:1000A0005618AEBAAB558C1D3CB7CC5763BD6DED41
:1000B000FD753EF6177231BF000000803F072C7AB5
:1000C000A5BA6CC590DA3B9365FC8BBC53F810FD68
:1000D0003C5692834DBD879D3AB63DCBC9BF5BBEB2
:1000E00073DA0FC93F05A84CCDB2D44EB93836A942
:1000F000020C50B9918688083CA6AAAA2ABE000024
:1001000000803F08000000BE922449123EABAAAA1C
:100110002ABECDCCCC4C3E00000080BEABAAAAAA21
:100120003E00000000BF000000803F000000000013
:10013000084178D3BB4387D1133D190E3CC3BD4260
:1001400082AD2B3E68EC8276BED98FE1A93E4C8011
:10015000EFFFBE01C4FF7F3F00000000000289885E
:10016000083CABAAAA2A3E000000803F028988080A
:100170003EABAAAAAABE000000803F0664EC1B3C6E
:1001800004BC163E3BE5B93CC93C37C29E5A3D66AD
:100190000498083EEA69AAAA3E000000803F4E414A
:1001A0004E494E495459494E46CDCCCC3D0AD723F1
:1001B0003C17B7D13877CC2B329595E6241FB14F39
:1001C0000A000020410000C84200401C4620BCBE7E
:1001D0004CCA1B0E5AAEC59D7400407A10F35A00EB
:1001E000A0724E18090010A5D4E80000E876481760
:1001F0000000E40B54020000CA9A3B000000E1F545
:1002000005000080969800000040420F000000A00A
:100210008601000000102700000000E80300000035
:10022000006400000000000A00000000000100005F
:100230000000002C76D888DC674F0823DFC1DFAED2
:1002400059E1B1B796E5E3E453C63AE6519976969B
:10025000E8E6C28426EB898C9B62ED407C6FFCEF64
:10026000BC9C9F40F2BAA56FA5F490055A2AF75C92
:10027000936B6CF9676DC11BFCE0E40D47FEF52044
:10028000E6B500D0ED902E0300943577050080840C
:100290001E080000204E0A000000C80C3333333320
:1002A0000F986E12831141EF8D2114893BE655168C
:1002B000CFFEE6DB18D1844B381BF77C1D901DA4C4
:1002C000BBE424203284725E228100C9F124ECA1B7
:1002D000E53D27000000000000005F00000007006F
:1002E0000700147F147F14242A7F2A122313086422
:1002F0006236495522500005030000001C224100CF
:100300000041221C00082A1C2A0808083E08080090
:1003100050300000080808080800303000002010A5
:100320000804023E5149453E00427F40004261516F
:1003300049462141454B311814127F102745454548
:10034000393C4A4949300171090503364949493662
:10035000064949291E0036360000005636000000C6
:100360000814224114141414144122140800020128
:10037000510906324979413E7E1111117E7F49496A
:1003800049363E414141227F4141221C7F49494932
:10039000417F090901013E414151327F0808087F30
:1003A00000417F41002040413F017F081422417FEE
:1003B000404040407F0204027F7F0408107F3E419E
:1003C00041413E7F090909063E4151215E7F0919DD
:1003D0002946464949493101017F01013F404040DA
:1003E0003F1F2040201F7F2018207F6314081463C4
:1003F0000304780403615149454300007F414102F1
:100400000408102041417F00000402010204404022
:10041000404040000102040020545454787F484476
:1004200044383844444420384444487F3854545471
:1004300018087E090102081454543C7F080404780B
:1004400000447D40002040443D00007F10284400CF
:10045000417F40007C041804787C08040478384408
:100460004444387C14141408081414187C7C0804C0
:1004700004084854545420043F4440203C40402049
:100480007C1C2040201C3C4030403C442810284428
:100490000C5050503C4464544C4400083641000019
:1004A000007F0000004136080008082A1C08081CCC
:1004B0002A080800611E11241FBECFE5D8E0DEBF68
:1004C000CDBF12E0A0E6B0E0E8EBF3E502C0059096
:1004D0000D92AC3EB107D9F727E0ACEEB2E001C017
:1004E0001D92AB33B207E1F712E0CBE5D2E004C0D6
:1004F0002197FE010E946124CA35D107C9F70E94E5
:100500003C1E0C94DA290C940000AC9AAC98089527
:100510008FEF81BBA09AA49AA39AA29AA19AA998B4
:100520002FE788E391E0215080409040E1F700C040
:100530000000A99A2FE788E391E021508040904085
:10054000E1F700C00000A898AB9AAA9A8FE382BB9B
:100550000E94850280EC82BB0E9485022FE788E31F
:1005600091E0215080409040E1F700C000002FE76B
:1005700088E391E0215080409040E1F700C0000006
:10058000AB98AA9808950F931F93CF93DF93C82F2A
:10059000042F683068F0862F88508830E8F7162FCF
:1005A0001770D8EFD60FD695D695D695DF5F02C0D7
:1005B000162FD0E0C03480F4A898AB9AAA98D770D0
:1005C0008D2F886B82BB0E948502CF738C2F806435
:1005D00082BB0E94850211C0C054A898AB98AA9A09
:1005E000D7708D2F886B82BB0E948502CF738C2FB2
:1005F000806482BB0E948502C05CA89A0130D1F45D
:10060000EC2FF0E0EE0FFF1FEE0FFF1FEE0FFF1FAE
:10061000EB5CFC4FED0FF11D81E090E002C0880F14
:10062000991F1A95E2F79081892B808382BB0E94E3
:1006300085021AC0EC2FF0E081E090E002C0880F44
:10064000991F1A95E2F78095EE0FFF1FEE0FFF1F1F
:10065000EE0FFF1FEB5CFC4FED0FF11D9081892326
:10066000808382BB0E948502DF91CF911F910F9101
:100670000895FF920F931F93CF93DF9300E010E054
:10068000F12CD02FCF2DEC2FF0E0EE0FFF1FEE0F4F
:10069000FF1FEE0FFF1FEB5CFC4FE00FF11F1082FE
:1006A000C03480F4A898AB9AAA98D7708D2F886B25
:1006B00082BB0E948502CF738C2F806482BB0E9414
:1006C000850211C0C054A898AB98AA9AD7708D2FF4
:1006D000886B82BB0E948502CF738C2F806482BBA3
:1006E0000E948502C05CA89A12BA0E948502CF5F60
:1006F00052F60F5F1F4F0830110519F6DF91CF91A9
:100700001F910F91FF9008957F928F929F92AF92C9
:10071000BF92CF92DF92EF92FF920F931F93CF93EE
:10072000DF93D82FC62F742E822EA22EB12CA61A9C
:10073000B108C42ED12CC81AD108BB2034F4B1940E
:10074000A194B10899249A9402C099249394DD202D
:100750002CF4D194C194D1081FEF01C011E0AA0C70
:10076000BB1CCC0CDD1C402F6C2F8D2F0E94C302B4
:10077000AC14BD04C4F4C601959587957501E81ABB
:10078000F90A7D1639F1FF201CF0C90DEC18FD089F
:10079000D10FEA0CFB1C402F6C2F8D2F0E94C3023F
:1007A000D711F1CF17C0C501959587957601E81A45
:1007B000F90A8C1679F0FF201CF0D10FEA18FB081B
:1007C000C90DEC0CFD1C402F6C2F8D2F0E94C30215
:1007D000C811F1CFDF91CF911F910F91FF90EF9052
:1007E000DF90CF90BF90AF909F908F907F900895B3
:1007F000CF92DF92EF92FF920F931F93CF93DF93ED
:10080000D62E4052242F30E08901000F111F000F17
:10081000111F020F131F0D521D4F0F2EF5E0CF2E8B
:10082000F02DC80EE82EFD2CC0E0D0E0F801449178
:1008300050E00C2E02C0559547950A94E2F741709E
:100840006F2D8E2D0E94C3022196F394C830D105DE
:1008500069F70F5F1F4FE394CE10E5CFDF91CF9183
:100860001F910F91FF90EF90DF90CF900895EF923E
:10087000FF920F931F93CF93DF93FA010190002013
:10088000E9F73197E41BF50B1E161F068CF4D62FE3
:100890008A017A01EE0EFF1EC82FF80141918F01E7
:1008A0006D2F8C2F0E94F803CA5F0E151F05A9F744
:1008B000DF91CF911F910F91FF90EF900895FC0170
:1008C0001182108272969C01265C3F4F1192119208
:1008D00011921192E217F307C9F7FC0112AE0895C5
:1008E000AF92BF92CF92DF92EF92FF920F931F933E
:1008F000CF93DF936C01DC0151961C9251971296B5
:100900001C921297ED91FC918081882309F4A8C074
:10091000F601C081D181F8800F2D10E0C8010E943E
:10092000B725892B29F02196D601CD93DC93F0CF02
:10093000B80184E091E00E94D325892B89F081E001
:10094000F601818B5601F3E0AF0EB11CCE0101968A
:10095000D60111969C938E93888112968C936BC0CE
:100960005601B2E0AB0EB11CC8010E94AF25892B25
:10097000B9F175015701F601C081D1811881612F4C
:1009800070E08EE091E00E94D325892B89F4112339
:1009900079F0CE010196D6018D939C93888190E0E9
:1009A0000E94C025F7018083FFEFEF1AFF0AE2CF14
:1009B000D601CD91DC911881812F90E00E94B7255E
:1009C000892B29F02196F601D183C083F1CF18320B
:1009D00011F082E001C084E0D60151968C932BC0C7
:1009E0008F2D90E0C0970A9718F0BEE2FB1223C04B
:1009F00075015701F601C081D1811881612F70E026
:100A00008EE091E00E94D325892B89F4112379F09F
:100A1000CE010196D6018D939C93888190E00E942F
:100A2000C025F7018083FFEFEF1AFF0AE2CF83E0D2
:100A3000D60151968C93F5011082D60151968C9176
:100A40005197823069F413968C911397882341F063
:100A5000DA968DE2EBE1F1E001900D928A95E1F7F3
:100A6000DF91CF911F910F91FF90EF90DF90CF908A
:100A7000BF90AF900895EF92FF920F931F93CF9383
:100A8000DF9300D000D0CDB7DEB78C017B010E9490
:100A90001908F80182818B32E1F08D32A1F5C8018D
:100AA0000E947004BE016F5F7F4FC8010E94190849
:100AB00029813A814B815C81F7016081718182815A
:100AC00093810E94771EF7016083718382839383F1
:100AD000E0CFC8010E947004BE016F5F7F4FC80164
:100AE0000E94190829813A814B815C81F70160815C
:100AF0007181828193810E94781EF70160837183E6
:100B000082839383C6CF0F900F900F900F90DF9149
:100B1000CF911F910F91FF90EF900895DF92EF9288
:100B2000FF920F931F93CF93DF93CDB7DEB72F972D
:100B30000FB6F894DEBF0FBECDBF8C017B01DC0188
:100B40005196DC90B4E0DB120AC0BC016E5F7F4FAF
:100B5000CE0101960E94E725C8010E947004D801C9
:100B60001296EC91E83209F0B5C1C8010E947004F8
:100B7000B701C8010E943B05F8018281893249F022
:100B800087E1E8E4F1E0D801DA9601900D928A95C8
:100B9000E1F7F4E0DF129AC160E671E0CE01019660
:100BA0000E94DE25892B69F4D7016D917D918D918D
:100BB0009C910E94AF23F7016083718382839383AA
:100BC00085C165E671E0CE0101960E94DE25892B84
:100BD00069F4D7016D917D918D919C910E944A1F7E
:100BE000F701608371838283938370C16AE671E049
:100BF000CE0101960E94DE25892B69F4D7016D9103
:100C00007D918D919C910E943524F70160837183C1
:100C1000828393835BC16FE571E0CE0101960E94F0
:100C2000DE25892B69F4D7016D917D918D919C9181
:100C30000E94E41EF701608371838283938346C11F
:100C400064E671E0CE0101960E94DE25892B69F4ED
:100C5000D7016D917D918D919C910E94661EF70147
:100C6000608371838283938331C169E671E0CE0131
:100C700001960E94DE25892B69F4D7016D917D9143
:100C80008D919C910E94FF1EF70160837183828386
:100C900093831CC16FE671E0CE0101960E94DE25B0
:100CA000892B69F4D7016D917D918D919C910E9462
:100CB0008923F701608371838283938307C165E78A
:100CC00071E0CE0101960E94DE25892B69F4D701DF
:100CD0006D917D918D919C910E94331FF7016083EE
:100CE000718382839383F2C06BE771E0CE0101963A
:100CF0000E94DE25892B69F4D7016D917D918D913C
:100D00009C910E940124F701608371838283938305
:100D1000DDC06EE671E0CE0101960E94DE25892BD2
:100D200069F4D7016D917D918D919C910E94E41E93
:100D3000F7016083718382839383C8C064E771E0A5
:100D4000CE0101960E94DE25892B69F4D7016D91B1
:100D50007D918D919C910E94661EF7016083718345
:100D600082839383B3C06AE771E0CE0101960E944B
:100D7000DE25892B69F4D7016D917D918D919C9130
:100D80000E94FF1EF70160837183828393839EC05C
:100D900060E871E0CE0101960E94DE25892B69F49E
:100DA000D7016D917D918D919C910E942C22F7012C
:100DB000608371838283938389C063E871E0CE018D
:100DC00001960E94DE25892B69F4D7016D917D91F2
:100DD0008D919C910E941C22F70160837183828314
:100DE000938374C067E871E0CE0101960E94DE250E
:100DF000892B69F4D7016D917D918D919C910E9411
:100E0000C91FF70160837183828393835FC06BE89E
:100E100071E0CE0101960E94DE25892B69F4D7018D
:100E20006D917D918D919C910E94BD23F70160830E
:100E30007183828393834AC060E971E0CE01019699
:100E40000E94DE25892B79F4D7016D917D918D91DA
:100E50009C919B01AC010E94A822F70160837183E1
:100E60008283938333C064E971E0CE0101960E94CE
:100E7000DE25892B69F4D7016D917D918D919C912F
:100E80000E946523F70160837183828393831EC070
:100E90006AE971E0CE0101960E94DE25892B69F492
:100EA000D7016D917D918D919C910E946E20F701EB
:100EB000608371838283938309C081E1EEE9F1E06D
:100EC000D801DA9601900D928A95E1F7C8010E9447
:100ED000700435C0D80151968C91823019F083305E
:100EE000B9F024C0F0E0E154F109EE0FFF1FEE0F5E
:100EF000FF1FE00FF11F82899389A489B589F7014B
:100F000080839183A283B383C8010E94700417C0B9
:100F1000C80102960E94A825D7016D937D938D93F9
:100F20009C931397C8010E94700409C0D801DA96F7
:100F30008DE0EFEAF1E001900D928A95E1F72F96AE
:100F40000FB6F894DEBF0FBECDBFDF91CF911F91DA
:100F50000F91FF90EF90DF9008950F931F93CF9321
:100F6000DF93EC018B018989813019F48A818B32FE
:100F700041F08A818D3269F0B801CE010E948E0560
:100F800019C0CE010E947004B801CE010E948E05E6
:100F900011C0CE010E947004B801CE010E948E05DE
:100FA000F80180819181A281B381B05880839183BF
:100FB000A283B383DF91CF911F910F910895EF9298
:100FC000FF920F931F93CF93DF9300D000D0CDB744
:100FD000DEB78C017B010E94AD07F80182818E355E
:100FE000E9F4C8010E947004BE016F5F7F4FC80121
:100FF0000E94AD0729813A814B815C81F7016081B4
:101000007181828193810E941523F701608371832E
:1010100082839383F80182818E3519F30F900F90AC
:101020000F900F90DF91CF911F910F91FF90EF9054
:101030000895EF92FF920F931F93CF93DF9300D009
:1010400000D0CDB7DEB78C017B010E94DF07F8012D
:1010500082818A3219F08F32D9F034C0C8010E94DF
:101060007004BE016F5F7F4FC8010E94DF072981B6
:101070003A814B815C81F70160817181828193812A
:101080000E94A822F7016083718382839383DFCF5C
:10109000C8010E947004BE016F5F7F4FC8010E94AB
:1010A000DF0729813A814B815C81F7016081718181
:1010B000828193810E944F1FF70160837183828335
:1010C0009383C5CF0F900F900F900F90DF91CF912A
:1010D0001F910F91FF90EF9008958F929F92BF9272
:1010E000CF92DF92EF92FF920F931F93CF93DF93F4
:1010F000CDB7DEB72F970FB6F894DEBF0FBECDBFCA
:101100008C017B01FC0181898230C9F5819091902D
:101110006F01BF01CE0101960E94E725F801B28060
:10112000C8010E947004F80182818D3361F09182C0
:101130008082BE016F5F7F4FC6010E94E72582E07B
:10114000F801818B1CC0C8010E947004B701C8015E
:101150000E943B05F70140815181628173818B2D93
:1011600090E081549109880F991F880F991FF80109
:10117000E80FF91F428B538B648B758B04C0B7014A
:10118000C8010E943B052F960FB6F894DEBF0FBE34
:10119000CDBFDF91CF911F910F91FF90EF90DF9026
:1011A000CF90BF909F908F9008950F931F93CF93F0
:1011B000DF9300D000D0CDB7DEB78C01FC0112AEBA
:1011C000718360830E947004F801828181110DC0D7
:1011D000D801DA9686E1ECEBF1E001900D928A9568
:1011E000E1F760E070E0CB0117C0BE016F5F7F4F99
:1011F000C8010E946D08F8018281882349F0D80156
:10120000DA968DE0EFEAF1E001900D928A95E1F730
:1012100069817A818B819C810F900F900F900F9044
:10122000DF91CF911F910F9108952F923F924F928E
:101230005F926F927F928F929F92AF92BF92CF9266
:10124000DF92EF92FF920F931F93CF93DF93CDB76F
:10125000DEB764970FB6F894DEBF0FBECDBF9A8796
:1012600089871B01588B4F8729019B01220F331F50
:101270003A832983C9010E9487249A8B898B12148F
:1012800013040CF056C19E878D8769817A81680F9F
:10129000791FFC018FEF9FEF7A836983819391938C
:1012A000A981BA81AE17BF07C9F72EC2B4E06B0E91
:1012B000711CED85FE853296FE87ED8729853A857E
:1012C000A216B3060CF026C2BC86AB86C5010AC0C6
:1012D000612C712C1C861B8618861F8280E090E092
:1012E000A12CB12C69857A85861797070CF041C02F
:1012F0007501EE0CFF1CE40CF51CBA82A982650195
:101300004B01D701ED91FD917D01E60DF71D608147
:101310007181828193810E94FB1F8B01772324F4CA
:1013200000271127061B170BF601EE0FFF1FE40D18
:10133000F51D0190F081E02DE60DF71D60817181B2
:10134000828193810E94FB1F9B01772324F4222733
:101350003327261B370B2017310714F4C980DA8096
:10136000E981FA813196FA83E983E815F9054CF2AF
:1013700001C06501CC0CDD1C92012C0D3D1D3A8392
:101380002983D901ED91FC91E60DF71D60817181F2
:10139000828193810E94FB1F9B01772324F42227E3
:1013A0003327261B370BB901330F880B990B0E948B
:1013B000332025E93FEB46ED53E30E942E1F88239F
:1013C0000CF4A4C0EF81F8852E163F060CF4A8C1DA
:1013D0004B855C85440F551F440D551DC3019F016E
:1013E00009811A81D801ED91FC91E80FF91FC080A5
:1013F000D180E280F380DA016D917C91DB01A80F4E
:10140000B91F8D909D90AD90BC9080829182A282F8
:10141000B382DA01ED91FC91E80FF91FC082D1820D
:10142000E282F3822F5F3F4F049622163306D4F6F2
:1014300077C1EB85FC85EA15FB0509F453C0CD8027
:10144000DE80D601ED91FC91CF01860D971DF40150
:10145000A081B181A60DB71D2D913D914D915C915B
:10146000DC016D917D918D919C910E944F1F69834C
:101470007A838B839C83EF81F8852E163F0694F147
:1014800083017F01D6010D90BC91A02DA00FB11F4B
:10149000BC8BAB8BD401ED91FC91E00FF11F20814F
:1014A00031814281538169817A818B819C810E9443
:1014B000A8229B01AC01EB89FC896081718182814A
:1014C00093810E94771EAB89BC896D937D938D9328
:1014D0009C931397BFEFEB1AFB0A0C5F1F4F2E1460
:1014E0003F0484F6EFEFAE1ABE0A2D813E812E5FD7
:1014F0003F4F3E832D8369857A856A157B0509F008
:1015000098CFAB84BC847FEFA71AB70A8F819885E8
:10151000019698878F832816390609F0C7CEFAC03E
:101520001192119211921192019682159305C4F3B2
:1015300007C0A985BA851A161B060CF443C0DAC089
:101540006101CC0CDD1CCC0CDD1CA988BA88EF85B0
:10155000F88900E010E0FA83E983D5018D919D912F
:101560005D018F3FBFEF9B0709F1880F991FF201C3
:10157000E80FF91F0190F081E02DDF01AC0DBD1DDA
:1015800089819A818E199F09E80FF91F2081318185
:10159000428153816D917D918D919C910E944F1F4D
:1015A000E981FA8160837183828393830F5F1F4F88
:1015B00029813A812C5F3F4F3A8329830215130515
:1015C00064F2BFC0B101660F771F660F771F7A8381
:1015D00069834201AF84B888A60EB71E612C712CB6
:1015E000412C512C1214130434F031C01214130482
:1015F0000CF464C07FC00F851889D4010D90BC9194
:10160000A02DE12CF12CC42CD52CBE83AD83F80188
:1016100061917191819191918F01AD81BE812D91E7
:101620003D914D915D91BE83AD830E94A8229B01A7
:10163000AC016E2D7F2D8C2D9D2D0E94781EE62EE7
:10164000F72EC82ED92EA016B10609F704C0E12C3A
:10165000F12CC42CD52CD401ED91FD914D012981A3
:101660003A81E20FF31F20813181428153816E2D37
:101670007F2D8C2D9D2D0E94771E0E94FB1F9B01AC
:10168000772324F422273327261B370BB901330F86
:10169000880B990B0E94332025E93FEB46ED53E37D
:1016A0000E94D52118166CF13FEF631A730A698501
:1016B0007A85661677060CF495CF98CFA989BA89F2
:1016C0008D919C91019669F405C0219131912F3F34
:1016D0003F4F61F489899A890E941F2582E090E03A
:1016E00037C0E989FA89329680E090E00196821548
:1016F00093055CF389899A890E941F2581E090E017
:1017000027C080E090E024C069857A851616170608
:101710000CF4DECDEF84F888F70180E090E000CF94
:10172000EB85FC85AD85BE85ED93FC93CF01880FDD
:10173000991F4201880E991E5E824D82A12CB12C08
:1017400078CE29853A85121613060CF43BCFB6CF16
:1017500064960FB6F894DEBF0FBECDBFDF91CF9178
:101760001F910F91FF90EF90DF90CF90BF90AF90BF
:101770009F908F907F906F905F904F903F902F90B1
:1017800008958F929F92AF92BF92CF92DF92EF9285
:10179000FF920F931F93CF93DF93CDB7DEB7E797F9
:1017A0000FB6F894DEBF0FBECDBFFC014A015B014E
:1017B00090819923A1F16F018FEFC81AD80AE12C0B
:1017C000F12C9837E1F48E01075D1F4F28E041E0CE
:1017D000C501B4010E94672499A59923D1F0A1E025
:1017E000B0E0AC0FBD1FAE0DBF1DFE01BA969D93BC
:1017F0008FEFE81AF80A91919111F9CF0AC0E1E050
:10180000F0E0EC0FFD1FEE0DFF1D9083EFEFEE1AE1
:10181000FE0AF60191916F019111D3CF02C0E12C24
:10182000F12CE1E0F0E0EC0FFD1FEE0DFF1D10824A
:10183000BE016F5F7F4F8CEE92E00E94D508E79665
:101840000FB6F894DEBF0FBECDBFDF91CF911F91D1
:101850000F91FF90EF90DF90CF90BF90AF909F904F
:101860008F9008952F923F924F925F926F927F9246
:101870008F929F92AF92BF92CF92DF92EF92FF92A0
:101880000F931F93CF93DF93CDB7DEB728970FB693
:10189000F894DEBF0FBECDBF7C012A013B01480199
:1018A00059019A01AB01C501B4010E94771E20E0E5
:1018B00030E04AEF53E40E944F1F69837A838B83A1
:1018C0009C83B301A201C7010E94C10B6D837E837B
:1018D0008F839887B501A401C7010E94C10B9B01AA
:1018E000AC016D817E818F8198850E94781E4B01AD
:1018F0005C0129813A814B815C81C301B2010E9464
:10190000781EAB01BC01C7010E94C10B9B01AC0159
:1019100081E090E0B0E0A0E0F0E8E0E4D12C00E865
:10192000C12C312C212C10E49E838D8325C02D8168
:101930003E81B901330F880B990B0E943320298116
:101940003A814B815C810E94A822A30192010E94EE
:10195000781EAB01BC01C7010E94C10B9B01AC0109
:101960008D8180FD05C0BC2DA32DF22DE12F04C07B
:10197000B0E0AD2DF02FE0E46B2F7A2F8F2F9E2F4C
:101980000E94A8229B01AC01C501B4010E94781EEF
:101990004B015C012D813E812F5F3F4F3E832D83A4
:1019A000243F314021F620E030E040E450E46981FA
:1019B0007A818B819C810E944F1FA50194010E9416
:1019C000A82228960FB6F894DEBF0FBECDBFDF91D8
:1019D000CF911F910F91FF90EF90DF90CF90BF902C
:1019E000AF909F908F907F906F905F904F903F90BF
:1019F0002F9008959C01FA019081992351F0D9010B
:101A0000A60FB71F31969D936F5F7F4F91919111F4
:101A1000FACFF901E60FF71F108208952F923F9237
:101A20004F925F926F927F928F929F92AF92BF92EE
:101A3000CF92DF92EF92FF920F931F93CF93DF939A
:101A4000EC016B010E9439032FEF81EE94E02150ED
:101A500080409040E1F700C00000AE0161E081E00D
:101A60000E943704EFEFF1EE24E0E150F040204017
:101A7000E1F700C000000F2EFCE04F2E512CF02D9E
:101A800000E010E022242394312C0F2EF6E66F2E76
:101A9000F0E07F2EF02D6894AA24A2F8B12CC101A9
:101AA0000A2C02C0880F991F0A94E2F788BB8BBBEF
:101AB000C5018E539F4F4C017301C0E0D0E086B347
:101AC00090E00C2E02C0959587950A94E2F780FF6E
:101AD00039C0F4018081833479F4F60110820E94C8
:101AE0003903A60161E081E00E9437044424439455
:101AF000512C00E010E01CC08D3309F492C0F601B7
:101B0000E00FF11F80830F5F1F4FF601E00FF11F01
:101B10001082A601642D81E00E9437040431110572
:101B200039F4FCE04F0E511CF601108200E010E089
:101B3000FFEF24E38CE0F15020408040E1F700C04B
:101B4000000052C089B390E00C2E02C09595879595
:101B50000A94E2F780FF48C0F70180818C33F9F4E2
:101B60000115110551F4FFEF24E38CE0F150204002
:101B70008040E1F700C0000037C0F601E00FF11F20
:101B8000319790E29083A601642D81E00E94370492
:101B900001501109F601E00FF11F10820DC0A701DD
:101BA000B801C6010E94FA0CF60101900020E9F785
:101BB00031978F010C191D09A601642D81E00E9447
:101BC00037040431110539F4ECE04E0E511CF601D6
:101BD000108200E010E0FFEF24E38CE0F1502040A1
:101BE0008040E1F700C00000219698E1E90EF11C69
:101BF000E4E08E0E911CC430D10509F060CF8FE176
:101C00009EE40197F1F700C000009FEFA91AB90AFE
:101C1000E6E06E0E711CF8E0AF16B10409F03FCF9C
:101C200034CFDF91CF911F910F91FF90EF90DF9014
:101C3000CF90BF90AF909F908F907F906F905F906C
:101C40004F903F902F9008952F923F924F925F9226
:101C50006F927F928F929F92AF92BF92CF92DF92BC
:101C6000EF92FF920F931F93CF93DF93CDB7DEB721
:101C7000CD50D1400FB6F894DEBF0FBECDBF88E087
:101C8000E2EDF1E0DE01119601900D928A95E1F707
:101C9000BE01675F7F4FCE0101960E940E0D88E066
:101CA000EAEDF1E0DE01589601900D928A95E1F798
:101CB000BE01605E7F4FCE0148960E940E0D88E007
:101CC000E2EEF1E0DE019A9601900D928A95E1F73D
:101CD000BE016E5C7F4FCE018A960E940E0DCE0132
:101CE000CC960E945F04BE01605E7F4FCE01CC9611
:101CF0000E94D508C351DF4F6883CD5ED040C251EA
:101D0000DF4F7883CE5ED040C151DF4F8883CF5EF6
:101D1000D040192FBE016E5C7F4FCE01CC960E9441
:101D2000D508662E772E882E992E262F372F482FEE
:101D3000592FC351DF4F6881CD5ED040C251DF4F74
:101D40007881CE5ED040C151DF4F8881CF5ED040D8
:101D5000912F0E94D521181624F5C351DF4F3881E9
:101D6000CD5ED040C251DF4F2881CE5ED040C15100
:101D7000DF4F9881CF5ED040812FC351DF4F688203
:101D8000CD5ED040C251DF4F7882CE5ED040C1518F
:101D9000DF4F8882CF5ED040192D632E722E892EA0
:101DA000982E2E0125E8420E511C1E0189EE280EA8
:101DB000311C7201C351DF4FD880CD5ED040C2517B
:101DC000DF4FC880CE5ED040C151DF4FB880CF5EBC
:101DD000D040A12EC050DF4F59824882C050D14020
:101DE000562C472C712EC751DF4F8882C95ED040D8
:101DF000692C1B2D0A2D4D2D5C2D612F702FCE01CE
:101E000009960E94C10BF70161937193819391939D
:101E10007F01C351DF4F2881CD5ED040C251DF4FDB
:101E20003881CE5ED040C151DF4F4881CF5ED04077
:101E3000572D652D742DC751DF4F8881C95ED04065
:101E4000962D0E94771E4B015C0120E030E040ECB3
:101E500051E40E944F1F9B01AC016D2D7C2D812F01
:101E6000902F0E94781ED62EC72E182F092F2E14C1
:101E70003F0409F6C050DF4F48805980C050D14020
:101E8000C050DF4F88829982AA82BB82C050D14065
:101E9000172D6201612C712CC850DF4F1882C85F6A
:101EA000D040C450DF4F1882CC5FD040CC5FDE4FB3
:101EB0001882C450D140CB5FDE4F1882C550D1404C
:101EC000C751DF4F188219821A821B82C95ED04027
:101ED000CA5FDE4F1882C650D140C95FDE4F1882FC
:101EE000C750D140C85FDE4F1882C850D140C75F8D
:101EF000DE4F1882C950D14000E0912CC051DF4F15
:101F00001882C05FD040CC50DF4F1882C45FD040F1
:101F1000C65FDE4F59824882CA50D140C45FDE4F4F
:101F200039822882CC50D140412E302E592CB30119
:101F3000072C000C880B990B0E943320C050DF4FF8
:101F4000288139814A815B81C050D1400E94A822FA
:101F500020E030E040EC51E40E944F1FC351DF4FBE
:101F60002881CD5ED040C251DF4F3881CE5ED04057
:101F7000C151DF4F4881CF5ED040542D0E94781E62
:101F8000062F172FF82EE92E232D352DC051DF4FA8
:101F90004881C05FD040CC50DF4F5881C45FD040F3
:101FA0000E94D521181664F4302E512EC051DF4FF7
:101FB000F882C05FD040CC50DF4FE882C45FD04091
:101FC000F60181909190A190B1906F01CA5FDE4FB0
:101FD0002881C650D140C95FDE4F3881C750D140FB
:101FE000C85FDE4F4881C850D140C75FDE4F58817F
:101FF000C950D140C501B4010E94D5211816A4F4DE
:10200000CA5FDE4F8882C650D140C95FDE4F9882DA
:10201000C750D140C85FDE4FA882C850D140C75FCB
:10202000DE4FB882C950D140C751DF4F2881398176
:102030004A815B81C95ED040602F712F8F2D9E2D0C
:102040000E942E1F882364F4802F912FAF2DBE2D68
:10205000C751DF4F88839983AA83BB83C95ED04071
:10206000C850DF4F2881C85FD040C450DF4F38814F
:10207000CC5FD040CC5FDE4F4881C450D140CB5FB5
:10208000DE4F5881C550D140C501B4010E942E1FBA
:102090008823A4F4C850DF4F8882C85FD040C45062
:1020A000DF4F9882CC5FD040CC5FDE4FA882C45017
:1020B000D140CB5FDE4FB882C550D140FFEF6F1AE1
:1020C0007F0A29E16216710409F031CF142D032D26
:1020D000C45FDE4F28803980CC50D140952CC65F3C
:1020E000DE4F48805980CA50D1407201C850DF4F3E
:1020F000D880C85FD040C450DF4FC880CC5FD0408C
:10210000CC5FDE4FB880C450D140CB5FDE4FA8809B
:10211000C550D1402D2D3C2D4B2D5A2DF7016081FE
:102120007181828193810E94771EF701619371937F
:10213000819391937F012E163F0661F7C751DF4FC0
:10214000288139814A815B81C95ED040602F792D19
:10215000C051DF4F8881C05FD040CC50DF4F9881A5
:10216000C45FD0400E94771E9B01AC0160E070E02C
:1021700080EF92E40E944F1FC051DF4F6883798344
:102180008A839B83C05FD040C850DF4F2881C85FDF
:10219000D040C450DF4F3881CC5FD040CC5FDE4FA1
:1021A0004881C450D140CB5FDE4F5881C550D140EB
:1021B000CA5FDE4F6881C650D140C95FDE4F78816B
:1021C000C750D140C85FDE4F8881C850D140C75F3B
:1021D000DE4F9881C950D1400E94771E9B01AC010F
:1021E00060E070E080E792E40E944F1FCC50DF4F28
:1021F000688379838A839B83C45FD0400E943903BC
:10220000FFEF24E38CE0F15020408040E1F700C074
:10221000000089E190E00197F1F7C051DF4F28817C
:1022200039814A815B81C05FD040C751DF4F6881EF
:1022300079818A819B81C95ED04090580E94A822F2
:102240000E9465230E94FB1FF62E00E041E0602FF4
:102250008F2D0E94C3020F5F0034C1F7CC50DF4FB7
:10226000288139814A815B81C45FD040C850DF4FEB
:102270006881C85FD040C450DF4F7881CC5FD040C8
:10228000CC5FDE4F8881C450D140CB5FDE4F988158
:10229000C550D1400E94A8220E94652320E030E072
:1022A0004CE752E40E94781E0E94FB1FF62E00E0CD
:1022B00041E06F2D802F0E94C3020F5F0038C1F7ED
:1022C00022242394312C712EF20124813581468100
:1022D0005781CC50DF4F688179818A819B81C45FAF
:1022E000D0400E94A8220E946523C850DF4F688317
:1022F00079838A839B83C85FD040B101032C000C93
:10230000880B990B0E943320C050DF4F2881398100
:102310004A815B81C050D1400E94A82220E030E079
:1023200040EC51E40E944F1FC351DF4F2881CD5E26
:10233000D040C251DF4F3881CE5ED040C151DF4F17
:102340004881CF5ED040572D0E94781EC751DF4F85
:10235000288139814A815B81C95ED0400E94771E05
:10236000C051DF4F288139814A815B81C05FD040F5
:102370000E94A8220E946523C450DF4F688379839E
:102380008A839B83CC5FD040F201208131814281DE
:102390005381F4E04F0E511CCC50DF4F688179819E
:1023A0008A819B81C45FD0400E94A8220E9465233D
:1023B0004B015C01B10161507109072E000C880BC3
:1023C000990B0E943320C050DF4F288139814A8108
:1023D0005B81C050D1400E94A82220E030E040EC58
:1023E00051E40E944F1FC351DF4F2881CD5ED04082
:1023F000C251DF4F3881CE5ED040C151DF4F48819E
:10240000CF5ED040572D0E94781EC751DF4F2881E4
:1024100039814A815B81C95ED0400E94771EC051DC
:10242000DF4F288139814A815B81C05FD0400E94A3
:10243000A8220E9465236B017C01C850DF4F2881D0
:1024400039814A815B81C85FD04060E070E08CE7F1
:1024500092E40E94771E0E940220162FC450DF4F84
:10246000688179818A819B81CC5FD0400E94022063
:10247000662EA501940160E070E08CE792E40E9472
:10248000771E0E940220B62EC701B6010E940220CC
:10249000862F01E0212F462D6B2D0E9484032FE70C
:1024A00088E391E0215080409040E1F700C00000B7
:1024B000EFEF2E1A3E0AF9E12F16310409F004CF8E
:1024C000C35FDE4F0FB6F894DEBF0FBECDBFDF9106
:1024D000CF911F910F91FF90EF90DF90CF90BF9021
:1024E000AF909F908F907F906F905F904F903F90B4
:1024F0002F9008958F929F92AF92BF92CF92DF92CA
:10250000EF92FF92CF93DF93EC016A017B012DEBF9
:1025100037E346E855E3C701B6010E94781EAB01D8
:10252000BC01CE010E94C10B4B015C012DEB37E3D6
:1025300046E855E3C701B6010E94771EAB01BC0116
:10254000CE010E94C10B9B01AC01C501B4010E94E8
:10255000771E2DEB37E346E056E30E944F1FDF91D5
:10256000CF91FF90EF90DF90CF90BF90AF909F9072
:102570008F9008958F929F92AF92BF92CF92DF92E9
:10258000EF92FF920F931F93CF93DF938C01E42E72
:10259000F52ED62EC72EC1E5D0E04E2D5F2D6D2D28
:1025A0007C2DC8010E94C10B4B015C014E2D5F2D9B
:1025B0006D2D7C2DC8010E947A129B01AC01C501D2
:1025C000B4010E944F1F9B01AC016E2D7F2D8D2DFC
:1025D0009C2D0E94771E282F220F292F221F2F3F6C
:1025E00031F02197E62EF72ED82EC92EB1F66E2D9A
:1025F0007F2D8D2D9C2DDF91CF911F910F91FF90FD
:10260000EF90DF90CF90BF90AF909F908F90089504
:10261000CF93DF93CDB7DEB7CD54D1090FB6F89481
:10262000DEBF0FBECDBF8DE0EAEEF1E0DE01119618
:1026300001900D928A95E1F7AE014F5F5F4F61E027
:1026400081E00E94370484E1E7EFF1E0DE011E96AD
:1026500001900D928A95E1F7AE01425F5F4F6CE009
:1026600081E00E94370481E1EBE0F2E0DE01929626
:1026700001900D928A95E1F7AE014E5D5F4F68E1E2
:1026800081E00E9437048EE0ECE1F2E0DE01D396B7
:1026900001900D928A95E1F7AE014D5C5F4F64E2C7
:1026A00081E00E9437048DE0EAE2F2E0DE01AF5BF8
:1026B000BF4F01900D928A95E1F7AE014F5B5F4FDE
:1026C00060E381E00E943704C35BDF4F0FB6F894EC
:1026D000DEBF0FBECDBFDF91CF910895CF93A1E0B4
:1026E000B0E064E070E0CD01062E02C0880F991FB3
:1026F0000A94E2F788BBCB010497FC01EA53FF4F31
:1027000020E030E0C82F592F86B390E0022E02C09F
:10271000959587950A94E2F780FF23C08C2F952F1B
:10272000408141534530A0F44FEF54E36CE04150F9
:1027300050406040E1F700C00000220F331F220F1D
:10274000331F2A533F4FF901E80FF91F80811CC046
:102750008FEF94E34CE0815090404040E1F700C09F
:1027600000002F5F3F4F34962430310569F68FE12A
:102770009EE40197F1F700C000006F5F7F4F683063
:10278000710509F0B0CFADCFCF910895CF93DF930E
:10279000CDB7DEB7CF57D1090FB6F894DEBF0FBE65
:1027A000CDBF0E94390388248394912CC12CD12C55
:1027B0009E012F5F3F4F1901ED962FAFED97EE96DB
:1027C0003FAEEE970F2EF6E64F2EF0E05F2EF02D87
:1027D0006894EE24E2F8F12C81E090E00E2C02C027
:1027E000880F991F0A94E2F788BB8BBBC7018E53F1
:1027F0009F4F5C01320100E010E086B390E0002EB4
:1028000002C0959587950A94E2F780FF83C0F50191
:102810008081833499F419820E943903ED964FAD7B
:10282000ED97EE965FADEE9761E081E00E94370490
:1028300088248394912CC12CD12C62C08D3309F053
:1028400040C0CE01C3960E945F04ED966FADED9738
:10285000EE967FADEE97CE01C3960E94D508FFEFAE
:1028600020E732E0F15020403040E1F700C00000A6
:10287000ED960FADED97EE961FADEE9722E041E09D
:102880000E9467244FEF80E792E0415080409040E3
:10289000E1F700C000000E943903EFEFF0E722E00B
:1028A000E150F0402040E1F700C00000ED964FAD50
:1028B000ED97EE965FADEE9761E081E00E94370400
:1028C000A0C0F101EC0DFD1D80833FEFC31AD30AB8
:1028D000F101EC0DFD1D1082ED964FADED97EE96DA
:1028E0005FADEE97682D81E00E94370444E1C41685
:1028F000D10431F48CE0880E911C1982C12CD12CAA
:102900009FEFE4E3FCE09150E040F040E1F700C0CD
:1029100000006BC089B390E0002E02C095958795AA
:102920000A94E2F780FF61C0F30180818C3371F576
:10293000C114D10451F4FFEF24E33CE0F1502040F6
:102940003040E1F700C0000050C041E0C41AD10897
:10295000C1018C0D9D1DC258DF4F99838883CE57CE
:10296000D04020E2FC012083ED964FADED97EE962E
:102970005FADEE97682D81E00E943704C258DF4FAB
:10298000E881F981CE57D040108212C0A301B60170
:10299000ED968FADED97EE969FADEE970E94FA0CF7
:1029A000F10101900020E9F731976F01C218D308B7
:1029B000ED964FADED97EE965FADEE97682D81E009
:1029C0000E943704F4E1CF16D10431F42CE0820EDA
:1029D000911C1982C12CD12C3FEF44E38CE0315083
:1029E00040408040E1F700C000000F5F1F4F98E1BA
:1029F000690E711CE4E0AE0EB11C0430110509F043
:102A0000FCCE8FE19EE40197F1F700C000009FEF3C
:102A1000E91AF90AE6E04E0E511CF8E0EF16F1044F
:102A200009F4D0CED9CEDF92EF92FF920F931F938D
:102A3000CF93DF9300D0CDB7DEB7A1E0B0E044E0A4
:102A400050E09D01042E02C0220F331F0A94E2F7CA
:102A500028BB9A0124503109F901EA53FF4F00E0E5
:102A600010E0D22E732F26B330E0002E02C0359531
:102A700027950A94E2F720FF2FC0ED2CF72E9081C6
:102A80002FEC290F2730F8F499831A82AE014F5F9B
:102A90005F4F682F81E00E9437042FEF34E38CE012
:102AA000215030408040E1F700C00000000F111FAE
:102AB000000F111F0A531F4FF801EE0DFF1D8081FB
:102AC00090E0C0971CC09FEF24E33CE09150204071
:102AD0003040E1F700C000000F5F1F4F3496043014
:102AE000110509F6EFE1FEE43197F1F700C00000AF
:102AF0004F5F5F4F4830510509F0A3CFA0CF0F9033
:102B00000F90DF91CF911F910F91FF90EF90DF9089
:102B100008956F927F928F929F92AF92BF92CF92C1
:102B2000DF92EF92FF920F931F93CF93DF931616CE
:102B300017060CF052C07C01EC01E60EF71E712C5A
:102B400001E010E0D12C812C912C5401CC24C394B1
:102B500069908DE2681659F18EE2681651F120E015
:102B600030E040E251E4C501B4010E94A8224B01CB
:102B70005C01662D70E060537109072E000C880B14
:102B8000990B0E943320A50194010E94781E4B01ED
:102B90005C01DD2079F0C801880F991F000F111F1B
:102BA000000F111F000F111F080F191F03C07C2CED
:102BB00001C0DC2CEC16FD0659F6B801110F880B8C
:102BC000990B0E9433209B01AC01C501B4010E9406
:102BD0004F1F772029F0905803C060E070E0CB01D0
:102BE000DF91CF911F910F91FF90EF90DF90CF90E9
:102BF000BF90AF909F908F907F906F9008952F928D
:102C00003F924F925F926F927F928F929F92AF927C
:102C1000BF92CF92DF92EF92FF920F931F93CF93C9
:102C2000DF93CDB7DEB760970FB6F894DEBF0FBE67
:102C3000CDBF8B87188AA12CB12C88248394912C2A
:102C4000CE0101962C018C875D860F2EF6E62F2E85
:102C5000F0E03F2EF02D6894662462F8712CC401D8
:102C6000062C02C0880F991F0A94E2F788BB8BBB21
:102C7000F301EE53FF4F7F01610100E010E086B3E6
:102C800090E0002E02C0959587950A94E2F780FFA8
:102C900036C0F701808190ED980F9A3090F4F201E0
:102CA000EA0DFB1D8083FFEFAF1ABF0AF201EA0DA8
:102CB000FB1D10824C855D856B8581E00E94370489
:102CC00014C08D3309F48EC0A114B10471F48D3297
:102CD00061F42DE229831A824C855D856B8581E044
:102CE0000E943704AA24A394B12C8FEF94E3ECE064
:102CF00081509040E040E1F700C0000051C089B32E
:102D000090E0002E02C0959587950A94E2F780FF27
:102D100047C0F60180818C3309F5A114B10451F448
:102D2000FFEF24E38CE0F15020408040E1F700C049
:102D300000003AC091E0A91AB108F201EA0DFB1DAA
:102D4000FF87EE8720E220834C855D856B8581E0DF
:102D50000E943704EE85FF85108219C08E32B9F4C7
:102D6000F889F11114C0F201EA0DFB1D2EE2208357
:102D70008FEFA81AB80AF201EA0DFB1D10824C85EC
:102D80005D856B8581E00E94370491E0988BEFEFC1
:102D9000F4E32CE0E150F0402040E1F700C00000F7
:102DA00089E0A816B104F1F00F5F1F4F98E1C90E3A
:102DB000D11CE4E0EE0EF11C0430110509F05FCFE8
:102DC0008FE19EE40197F1F700C000009FEF691AC0
:102DD000790AE6E02E0E311CF8E06F16710409F056
:102DE0003ECF33CF8FE19EE40197F1F700C00000A2
:102DF000B501CE0101960E94891560960FB6F89430
:102E0000DEBF0FBECDBFDF91CF911F910F91FF901D
:102E1000EF90DF90CF90BF90AF909F908F907F907A
:102E20006F905F904F903F902F900895CF92DF92D8
:102E3000EF92FF920F931F93CF93DF93CDB7DEB73F
:102E400065970FB6F894DEBF0FBECDBF6C017B0156
:102E50006130710511F40E943903F60101900020E0
:102E6000E9F73197EC19FD091E161F0694F13AC0D7
:102E7000D8019D918D01E1E0F0E0EC0FFD1FE20F24
:102E8000F31F90832F5F3F4F2431310569F41D8A72
:102E9000AE014F5F5F4F6E2D81E00E943704BCE0B2
:102EA000EB0EF11C20E030E0C016D10609F7211529
:102EB0003105C1F0E1E0F0E0EC0FFD1FE20FF31F80
:102EC0001082AE014F5F5F4F6E2D81E00E9437048C
:102ED00009C0D6018D918D018983CE0EDF1E21E0C0
:102EE00030E0E2CF65960FB6F894DEBF0FBECDBFDF
:102EF000DF91CF911F910F91FF90EF90DF90CF90D6
:102F000008952F923F924F925F926F927F928F928D
:102F10009F92AF92BF92CF92DF92EF92FF920F9368
:102F20001F93CF93DF93CDB7DEB7CD5AD1090FB63C
:102F3000F894DEBF0FBECDBF8BE1E7E3F2E0DE0128
:102F4000119601900D928A95E1F78BE1E2E5F2E0AE
:102F5000DE015C9601900D928A95E1F78DE0EDE639
:102F6000F2E0DE01D79601900D928A95E1F783E1B8
:102F7000EAE7F2E0DE01AC5BBF4F01900D928A956B
:102F8000E1F761E070E0CE0101960E94161788E13A
:102F900090E00E941315C356DF4F99838883CD5963
:102FA000D04061E070E0CE014C960E94161788E197
:102FB00090E00E941315C855DF4F99838883C85A43
:102FC000D040C356DF4F28813981CD59D040220FE0
:102FD000331F220F331FCE55DF4F39832883C25A48
:102FE000D040C9010E948724C455DF4F8883CC5A42
:102FF000D040C355DF4F9883CD5AD040C855DF4FDE
:1030000088819981C85AD040880F991FC655DF4FD3
:1030100099838883CA5AD0400E948724CA55DF4FBB
:1030200099838883C65AD040C855DF4FE881F9811B
:10303000C85AD0401E161F060CF03DC1CE55DF4FBA
:10304000E880F980C25AD040F4E0EF0EF11CC5567A
:10305000DF4F99838883CB59D0409C01C655DF4F01
:1030600088819981CA5AD040280F391FCC55DF4F2B
:1030700039832883C45AD040CA55DF4F088119814B
:10308000C65AD0406901C7010E948724F801819384
:1030900091938F01CE16DF06B1F70F2EF0E34F2E7E
:1030A000F02D9E01295A3F4FC756DF4F39832883A1
:1030B000C959D0400F2EF5E02F2EF02DC9010996E9
:1030C000C056DF4F99838883C05AD0407E0199E86B
:1030D000E90EF11C0F2EFDE55F2EF02DC756DF4FD8
:1030E0000881C959D040C656DF4F1881CA59D0400F
:1030F0006E2C7F2CC356DF4FE881F981CD59D0402B
:103100001E161F060CF083C0A12CB12C0F2EF0E36D
:103110003F2EF02D812C912CC156DF4F4882CF5984
:10312000D040472C732C362C89E0E6EDF0E0A02F40
:10313000B12F01900D928A95E1F7C056DF4FE881DB
:10314000F981C05AD040222D11922A95E9F7C15633
:10315000DF4F2881CF59D040F70120831182632DA2
:10316000742D802F912F0E94C825F7015082632D66
:10317000742D802F912F0E94C8252BE5F701208305
:10318000632D742D802F912F0E94C825F701708226
:10319000632D742D802F912F0E94C825F701508236
:1031A000632D742D802F912F0E94C82561E070E05F
:1031B000802F912F0E941617C556DF4FE881F981A5
:1031C000CB59D040C080D180CA0CDB1C8CE090E091
:1031D0000E94FF15F6016083718382839383FFEF62
:1031E0008F1A9F0A739424E0A20EB11CC356DF4FBE
:1031F00088819981CD59D0408815990509F094CFDF
:10320000632C742CC156DF4F4880CF59D04080E1E9
:10321000E4EEF0E0A02FB12F01900D928A95E1F736
:10322000A9961FAE1EAEA997F70140821182662DA6
:10323000772D802F912F0E94C825F7015082662D8F
:10324000772D802F912F0E94C82561E070E0802F9C
:10325000912F0E941617C556DF4FE881F981CB598F
:10326000D040C190D190C556DF4FF983E883CB5948
:10327000D040CE55DF4F28813981C25AD040C20E8E
:10328000D31E8CE090E00E94FF15F60160837183ED
:10329000828393834394C556DF4F28813981CB596C
:1032A000D040CC55DF4F88819981C45AD04028172F
:1032B000390709F01FCFCA55DF4F28813981C65A17
:1032C000D040C455DF4F4881CC5AD040C355DF4F62
:1032D0005881CD5AD040C356DF4F68817981CD598E
:1032E000D040C855DF4F88819981C85AD0400E948C
:1032F0001509009739F461E070E0CE01C7960E948D
:1033000016170BC18130910599F49FEFEEE9F4E2B5
:103310009150E040F040E1F700C00000C356DF4F9D
:1033200028813981CD59D04012161306FCF013C004
:103330000297A1F761E070E0CE018C5B9F4F0E9485
:1033400016173FEF8EE994E2315080409040E1F74C
:1033500000C00000E3CFC855DF4FE881F981C85AAB
:10336000D0401E161F060CF4ACC0C3C0C455DF4FBE
:10337000A880CC5AD040C355DF4FB880CD5AD0403A
:103380000F2EF0E37F2EF02DC12CD12C0F2EF7E065
:103390005F2EF02D0F2EF9E88F2E912CF02D8C0E34
:1033A0009D1EF7E08F0E911C0F2EFDE56F2EF02D68
:1033B000EE24E394F12CC356DF4F28803980CD5999
:1033C000D04087E0E6EFF0E0DE01A757BF4F019065
:1033D0000D928A95E1F7F401252D11922A95E9F7CE
:1033E000C956DF4F7882C759D040C856DF4F188280
:1033F000C859D040BE0169567F4FCE0187579F4FB5
:103400000E94C825C956DF4F6882C759D040BE0107
:1034100069567F4FCE0187579F4F0E94C825B7013D
:10342000CE0187579F4F0E941617F5016191719148
:10343000819191915F018E01095A1F4F22E041E075
:103440000E9467246CE070E0C8010E94161744E0F7
:1034500050E0C701042E02C0880F991F0A94E2F7BA
:1034600088BBFA01EE53FF4F20E030E086B390E0D6
:10347000022E02C0959587950A94E2F780FF03C05B
:1034800080818D3361F02F5F3F4F349624303105BA
:1034900069F74F5F5F4F48305105D9F6D8CFFFEF3E
:1034A00024E33CE0F15020403040E1F700C0000050
:1034B0008FEFC81AD80A73942C143D0409F081CFF9
:1034C0004ACFCA55DF4F08811981C65AD0407801CA
:1034D000C655DF4FE881F981CA5AD040EE0EFF1E73
:1034E000F801819191918F010E941F25E016F1064C
:1034F000B9F7CA55DF4F88819981C65AD0400E94DA
:103500001F25C455DF4F8881CC5AD040C355DF4FAB
:103510009881CD5AD0400E941F25C355DF4F0FB66A
:10352000F894DEBF0FBECDBFDF91CF911F910F91F9
:10353000FF90EF90DF90CF90BF90AF909F908F90D3
:103540007F906F905F904F903F902F9008952F92B3
:103550003F924F925F926F927F928F929F92AF9223
:10356000BF92CF92DF92EF92FF920F931F93CF9370
:10357000DF93CDB7DEB7CE56D1090FB6F894DEBFD4
:103580000FBECDBF0E94390385E1EDE8F2E0DE0118
:10359000119601900D928A95E1F78DE1E2EAF2E051
:1035A000DE01569601900D928A95E1F7AE014F5FCC
:1035B0005F4F61E081E00E9437040F2EFCE08F2E08
:1035C000912CF02DE12CF12C2E0123E3420E511C05
:1035D000AC964FAEAC97AD965FAEAD970F2EF6E6BC
:1035E0002F2EF0E03F2EF02D6894662462F8712CA7
:1035F00081E090E0062C02C0880F991F0A94E2F740
:1036000088BB8BBBC3018E539F4F6C01510100E0FF
:1036100010E086B390E0002E02C0959587950A943D
:10362000E2F780FF43C0F6018081833499F41BAA3E
:103630000E943903AC964FADAC97AD965FADAD9798
:1036400061E081E00E94370488248394912CE12C6E
:10365000F12C22C08D3309F4DFC0F201EE0DFF1D05
:103660008083FFEFEF1AFF0AF201EE0DFF1D1082BB
:10367000AC964FADAC97AD965FADAD97682D81E040
:103680000E94370424E1E216F10431F48CE0880E44
:10369000911C1BAAE12CF12C9FEFE4E3FCE091507C
:1036A000E040F040E1F700C0000066C089B390E060
:1036B000002E02C0959587950A94E2F780FF5CC0C2
:1036C000F50180818C3349F5E114F10451F4FFEFE9
:1036D00024E38CE0F15020408040E1F700C000007E
:1036E0004BC091E0E91AF108F201EE0DFF1DAF9613
:1036F000FFAFEEAFAF9720E22083AC964FADAC9713
:10370000AD965FADAD97682D81E00E943704AF960E
:10371000EEADFFADAF97108212C0A501B701AC9618
:103720008FADAC97AD969FADAD970E94FA0CF201AC
:1037300001900020E9F731977F01E418F508AC9675
:103740004FADAC97AD965FADAD97682D81E00E940F
:103750003704F4E1EF16F10431F42CE0820E911CF1
:103760001BAAE12CF12C8FEF94E3ECE08150904008
:10377000E040E1F700C000000F5F1F4FF8E1AF0E1F
:10378000B11C24E0C20ED11C0430110509F041CF58
:103790008FE19EE40197F1F700C000009FEF691AE6
:1037A000790AE6E02E0E311CF8E06F16710409F07C
:1037B0001FCF14CF44E050E0CB01042E02C0880F8D
:1037C000991F0A94E2F788BBFA01EE53FF4F20E0FD
:1037D00030E086B390E0022E02C0959587950A945A
:1037E000E2F780FF03C080818D3361F02F5F3F4F90
:1037F00034962430310569F74F5F5F4F48305105EB
:10380000D9F6D8CF2FEF84E39CE021508040904040
:10381000E1F700C0000040C0EFE1FEE43197F1F7AE
:1038200000C000000E94390361E070E0CE014696BE
:103830000E94161788E190E00E94FF156B017C0141
:103840000E943903B701A601CE01C3960E94BA12A5
:103850006B017C0186E0EFEBF2E0DE01AB59BF4F7C
:1038600001900D928A95E1F761E070E0CE018B59ED
:103870009F4F0E9416178E010D5C1F4F22E041E002
:10388000C701B6010E9467246CE070E0C8010E9485
:10389000161761E070E08ECFC259DF4F0FB6F89473
:1038A000DEBF0FBECDBFDF91CF911F910F91FF9073
:1038B000EF90DF90CF90BF90AF909F908F907F90D0
:1038C0006F905F904F903F902F9008952F923F926E
:1038D0004F925F926F927F928F929F92AF92BF9220
:1038E000CF92DF92EF92FF920F931F93CF93DF93CC
:1038F000CDB7DEB7C757D1090FB6F894DEBF0FBEFC
:10390000CDBF0E94390385E1EDE8F2E0DE011196BA
:1039100001900D928A95E1F783E1E5ECF2E0DE019A
:10392000569601900D928A95E1F783E1E8EDF2E079
:10393000DE01999601900D928A95E1F7AE014F5FF5
:103940005F4F61E081E00E9437040F2EFCE08F2E74
:10395000912CF02DE12CF12C2E012CE3420E511C68
:10396000E5964FAEE597E6965FAEE6970F2EF6E644
:103970002F2EF0E03F2EF02D6894662462F8712C13
:1039800081E090E0062C02C0880F991F0A94E2F7AC
:1039900088BB8BBBC3018E539F4F6C01510100E06C
:1039A00010E086B390E0002E02C0959587950A94AA
:1039B000E2F780FF43C0F6018081833499F41CAEA6
:1039C0000E943903E5964FADE597E6965FADE69721
:1039D00061E081E00E94370488248394912CE12CDB
:1039E000F12C22C08D3309F4DFC0F201EE0DFF1D72
:1039F0008083FFEFEF1AFF0AF201EE0DFF1D108228
:103A0000E5964FADE597E6965FADE697682D81E0C8
:103A10000E94370424E1E216F10431F48CE0880EB0
:103A2000911C1CAEE12CF12C9FEFE4E3FCE09150E3
:103A3000E040F040E1F700C0000066C089B390E0CC
:103A4000002E02C0959587950A94E2F780FF5CC02E
:103A5000F50180818C3349F5E114F10451F4FFEF55
:103A600024E38CE0F15020408040E1F700C00000EA
:103A70004BC091E0E91AF108F201EE0DFF1DE89646
:103A8000FFAFEEAFE89720E22083E5964FADE597D4
:103A9000E6965FADE697682D81E00E943704E896D0
:103AA000EEADFFADE897108212C0A501B701E59613
:103AB0008FADE597E6969FADE6970E94FA0CF2016E
:103AC00001900020E9F731977F01E418F508E596A9
:103AD0004FADE597E6965FADE697682D81E00E94D1
:103AE0003704F4E1EF16F10431F42CE0820E911C5E
:103AF0001CAEE12CF12C8FEF94E3ECE08150904070
:103B0000E040E1F700C000000F5F1F4FF8E1AF0E8B
:103B1000B11C24E0C20ED11C0430110509F041CFC4
:103B20008FE19EE40197F1F700C000009FEF691A52
:103B3000790AE6E02E0E311CF8E06F16710409F0E8
:103B40001FCF14CF44E050E0CB01042E02C0880FF9
:103B5000991F0A94E2F788BBFA01EE53FF4F20E069
:103B600030E086B390E0022E02C0959587950A94C6
:103B7000E2F780FF03C080818D3361F02F5F3F4FFC
:103B800034962430310569F74F5F5F4F4830510557
:103B9000D9F6D8CF2FEF84E39CE0215080409040AD
:103BA000E1F700C000004EC0EFE1FEE43197F1F70D
:103BB00000C000000E943903AE014A5E5F4F61E021
:103BC00081E00E9437048CE090E00E94FF156B01B9
:103BD0007C010E943903AE01475D5F4F61E081E0E7
:103BE0000E9437048CE090E00E94FF158B019C013D
:103BF000B701A601CE01CC960E94320C6B017C016C
:103C000086E0EFEBF2E0DE01A259BF4F01900D928A
:103C10008A95E1F761E070E0CE0182599F4F0E94E2
:103C200016178E01045C1F4F22E041E0C701B60168
:103C30000E9467246CE070E0C8010E94161761E0E2
:103C400070E080CFC958DF4F0FB6F894DEBF0FBECB
:103C5000CDBFDF91CF911F910F91FF90EF90DF903B
:103C6000CF90BF90AF909F908F907F906F905F901C
:103C70004F903F902F9008950E9488020E94390330
:103C80000E9408138FEF87BB8ABB0E946E1381339B
:103C900011F40E94C613823319F40E9481170EC0DA
:103CA000833319F40E94A71A09C0843319F40E94BF
:103CB000661C04C0853311F40E94240E80E090E05D
:103CC00008958CEE92E00E945F0408959F939F7781
:103CD0000E9485200F90002042F49058A2EA2AED1D
:103CE0003FE049E450E40E948F1E0C946F2150582D
:103CF000BB27AA270E948F1E0C946F210E94362199
:103D000038F00E943D2120F039F49F3F19F426F449
:103D10000C94F8200EF4E095E7FB0C94C920E92FF1
:103D20000E94942158F3BA17620773078407950716
:103D300020F079F4A6F50C94CE210EF4E0950B2E2C
:103D4000BA2FA02D0B01B90190010C01CA01A001ED
:103D50001124FF27591B99F0593F50F4503E68F148
:103D60001A16F040A22F232F342F4427585FF3CF89
:103D7000469537952795A795F0405395C9F77EF45A
:103D80001F16BA0B620B730B840BBAF09150A1F0A3
:103D9000FF0FBB1F661F771F881FC2F70EC0BA0F29
:103DA000621F731F841F48F4879577956795B795B1
:103DB000F7959E3F08F0B0CF9395880F08F09927AC
:103DC000EE0F9795879508959F939F77EEE3893738
:103DD0009E0728F4E4E5F0E00E9422210CC00E9436
:103DE00085209058A2EA2AED3FE049EC5FE30E946B
:103DF0008F1E0E946F210F9007FC90580895DF934B
:103E0000DD27B92FBF7740E85FE31616170648078E
:103E10005B0718F4D92F0E94DA219F938F937F9329
:103E20006F930E94FD23E8E6F0E00E94FB200E94D1
:103E30006F212F913F914F915F910E94BB22DD2313
:103E400051F09058A2EA2AED3FE049EC5FE3D078C8
:103E50005D270E948F1EDF910C946F210E94A52088
:103E600008F481E0089590680E94C91F4FEF5FEF4A
:103E70000E94E6219F938F937F936F9342E050E0DF
:103E80000E94E6210E94DA212F913F914F915F918C
:103E90000C94781E0E944621E3950C9480210E9488
:103EA000631F0C946F210E943D2158F00E9436211F
:103EB00040F029F45F3F29F00C94C92051110C9473
:103EC000CF210C94F8200E94942168F39923B1F338
:103ED000552391F3951B550BBB27AA276217730730
:103EE000840738F09F5F5F4F220F331F441FAA1FC4
:103EF000A9F335D00E2E3AF0E0E832D09150504080
:103F0000E695001CCAF72BD0FE2F29D0660F771F2D
:103F1000881FBB1F261737074807AB07B0E809F013
:103F2000BB0B802DBF01FF2793585F4F3AF09E3F98
:103F3000510578F00C94C9200C94CF215F3FE4F335
:103F4000983ED4F3869577956795B795F7959F5FDB
:103F5000C9F7880F911D9695879597F90895E1E027
:103F6000660F771F881FBB1F621773078407BA0786
:103F700020F0621B730B840BBA0BEE1F88F7E095E1
:103F8000089529F416F00C94C9200C94CE210C94B9
:103F9000F8200E949C21A8F39638A0F707F80F920A
:103FA000E8942BE33AEA48EB5FE70E94BE220F92C7
:103FB0000F920F924DB75EB70F920E947422E5E9FF
:103FC000F0E00E94FB204F915F91EF91FF91E5950A
:103FD000EE1FFF1F49F0FE57E0684427EE0F441F15
:103FE000FA95E1F74195550B0E94E6210F9007FEE7
:103FF0000C94DA2108950E9402206894B1110C9467
:10400000CF2108950E949C2188F09F5798F0B92FE6
:104010009927B751B0F0E1F0660F771F881F991FFD
:104020001AF0BA95C9F714C0B13091F00E94CE21B0
:10403000B1E008950C94CE21672F782F8827B85FC0
:1040400039F0B93FCCF3869577956795B395D9F755
:104050003EF490958095709561957F4F8F4F9F4F5F
:104060000895E89409C097FB3EF49095809570956B
:1040700061957F4F8F4F9F4F9923A9F0F92F96E9B4
:10408000BB279395F695879577956795B795F11129
:10409000F8CFFAF4BB0F11F460FF1BC06F5F7F4FC6
:1040A0008F4F9F4F16C0882311F096E911C07723D8
:1040B00021F09EE8872F762F05C0662371F096E8E1
:1040C000862F70E060E02AF09A95660F771F881FB0
:1040D000DAF7880F9695879597F908950E94B6218B
:1040E00090F09F3748F4911116F00C94CF2160E0C6
:1040F00070E080E89FEB089526F41B16611D711D8A
:10410000811D0C94CF200C94EA20DF93CF931F9352
:104110000F938B01EC01EDEBF0E00E94FB200E947D
:104120006F219801AE018B01EC0160E070E080E846
:104130009FE30E94771E0E94BD239801AE010F915C
:104140001F91CF91DF910C94BB22990F0008550F5E
:10415000AA0BE0E8FEEF16161706E807F907C0F00D
:1041600012161306E407F50798F0621B730B840B15
:10417000950B39F40A2661F0232B242B252B21F4EF
:1041800008950A2609F4A140A6958FEF811D811D8F
:10419000089597F99F6780E870E060E008958823AC
:1041A00071F4772321F09850872B762F07C0662370
:1041B00011F499270DC09051862B70E060E02AF031
:1041C0009A95660F771F881FDAF7880F969587955F
:1041D00097F908959F3F31F0915020F48795779596
:1041E0006795B795880F911D9695879597F90895CE
:1041F0009FEF80EC0895DF93CF931F930F93FF926F
:10420000EF92DF927B018C01689406C0DA2EEF01F9
:104210000E94BB22FE01E894A5912591359145911C
:104220005591A6F3EF010E948F1EFE019701A80190
:10423000DA9469F7DF90EF90FF900F911F91CF9183
:10424000DF9108959F938F937F936F93FF93EF93E5
:104250009B01AC010E94A822EF91FF910E94FB20DC
:104260002F913F914F915F910C94A82200240A94C2
:104270001616170618060906089500240A94121641
:1042800013061406050608950C94F8200E949C213C
:10429000D8F3E894E0E0BB279F57F0F02AED3FE029
:1042A00049EC06C0EE0FBB0F661F771F881F28F072
:1042B000B23A62077307840728F0B25A620B730B95
:1042C000840BE3959A9572F7803830F49A95BB0F7A
:1042D000661F771F881FD2F790480C94EC20092E98
:1042E0000394000C11F4882352F0BB0F40F4BF2B51
:1042F00011F460FF04C06F5F7F4F8F4F9F4F089591
:10430000EF93E0FF07C0A2EA2AED3FE049EC5FEB44
:104310000E948F1E0E946F210F90039401FC905801
:10432000E5EEF0E00C94222157FD9058440F551F04
:1043300059F05F3F71F04795880F97FB991F61F027
:104340009F3F79F087950895121613061406551F9E
:10435000F2CF4695F1DF08C0161617061806991F0A
:10436000F1CF869571056105089408950E949C21FE
:10437000A0F0BEE7B91788F4BB279F3860F4161683
:10438000B11D672F782F8827985FF7CF869577958F
:104390006795B11D93959639C8F30895E894BB27A6
:1043A00066277727CB0197F908950E94A52008F486
:1043B0008FEF08959B01AC0160E070E080E89FE31F
:1043C0000C944F1F0C94C9200C94EA200E949C214D
:1043D000D8F39923C9F3940F511DA3F39150504082
:1043E00094F059F0882332F0660F771F881F9150A0
:1043F0005040C1F79E3F51052CF7880F911D9695AF
:10440000879597F908955F3FACF0983E9CF0BB27E5
:10441000869577956795B79508F4B1609395C1F740
:10442000BB0F58F711F460FFE8CF6F5F7F4F8F4FDE
:104430009F4FE3CF0C94CF210E942C2229ED3BE526
:104440004EED5EE30C94A82216F00C94EA200C9436
:10445000F82068940C94C9200E949C21A8F3992309
:10446000C1F3AEF3DF93CF931F930F93FF92C92F46
:10447000DD2788232AF02197660F771F881FDAF738
:1044800020E030E040E85FEB9FE3883920F0803E99
:1044900038F021968F770E94781EE3E0F1E004C0A7
:1044A0000E94781EE0E3F1E00E94FB208B01BE0138
:1044B000EC01FB2E6F5771097595771F880B990BCF
:1044C0000E94332028E132E741E35FE30E94BB22F0
:1044D000AF2D9801AE01FF900F911F91CF91DF9109
:1044E0000E948F1E0C946F21FA01DC01AA0FBB1FE2
:1044F0009B01AC01BF5728F422273327442750786B
:1045000020C0B75190F4AB2F0024469537952795DE
:10451000011CA395D2F3002071F0220F331F441F1A
:10452000B395DAF30ED00C94771E61307105A0E8D4
:104530008A07B94630F49B01AC01662777278827A4
:104540009078309621F020833183428353830895FD
:104550000E94BB220C946F210E94362138F00E94E9
:104560003D2120F0952311F00C94C9200C94F820E3
:1045700011240C94CF210E94942170F3959FC1F3D4
:10458000950F50E0551F629FF001729FBB27F00D01
:10459000B11D639FAA27F00DB11DAA1F649F662756
:1045A000B00DA11D661F829F2227B00DA11D621FA5
:1045B000739FB00DA11D621F839FA00D611D221F5F
:1045C000749F3327A00D611D231F849F600D211D43
:1045D000822F762F6A2F11249F5750409AF0F1F0C6
:1045E00088234AF0EE0FFF1FBB1F661F771F881F2F
:1045F00091505040A9F79E3F510580F00C94C9207E
:104600000C94CF215F3FE4F3983ED4F386957795E1
:104610006795B795F795E7959F5FC1F7FE2B880FD4
:10462000911D9695879597F90895FA01EE0FFF1F52
:10463000309621053105A1F16115710561F48038CD
:10464000BFE39B0749F168949038810561F0803899
:10465000BFEF9B0741F099234AF5FF3FE105310584
:10466000210519F1E8940894E795D901AA2329F4C2
:10467000AB2FBE2FF85FD0F310C0FF5F70F4A6958C
:10468000E0F7F73950F019F0FF3A38F49F779F932D
:104690000DD00F9007FC9058089546F00C94F82028
:1046A00060E070E080E89FE308954FE79F775F93B5
:1046B0004F933F932F930E942C222F913F914F9124
:1046C0005F910E94A8220C94C91F0E949C21E8F0CF
:1046D0009E37E8F09639B8F49E3848F4672F782F63
:1046E0008827985FF9CF8695779567959395953943
:1046F000D0F3B62FB1706B0F711D811D20F487951B
:104700007795679593950C94CF200C94EA200C94A0
:10471000CF219F939F77FEE3803A9F0728F4EDE532
:10472000F1E00E94222117C090680E94C91F4FEF3C
:104730005FEF0E94E6219F938F937F936F9342E0F8
:1047400050E00E94E6210E94DA212F913F914F9183
:104750005F910E94771E0F9007FC906808959F93C9
:104760000E9446210F9007FCEE5F0C94802119F403
:1047700016F40C94F8200C94EA200E949C21B8F3C3
:104780009923C9F3B6F39F57550B87FF0E945A240C
:104790000024A0E640EA900180585695979528F4A9
:1047A000805C660F771F881F20F0261737074807A1
:1047B00030F4621B730B840B202931294A2BA695F8
:1047C00017940794202531254A2758F7660F771F3D
:1047D000881F20F026173707480730F4620B730B49
:1047E000840B200D311D411DA09581F7B901842F47
:1047F0009158880F9695879508959B01AC010C946C
:10480000A8229F939F77FEE380319F0728F4ECE670
:10481000F1E00E94222125C0906841E050E00E9412
:10482000E6210E94C91F9F938F937F936F9320E08F
:1048300030E040E85FE30E94781E2F913F914F9156
:104840005F919F938F937F936F9360E070E080E818
:104850009FE30E94771E2F913F914F915F910E949D
:104860004F1F0F9007FC90580895DF93D92F0E9497
:104870004621E695D7952AED3FE049E45FE3B33A58
:104880006207730784079507D7953AF0A2EA49ECC7
:1048900090680E948F1E0E946F21EBE7F1E00E945A
:1048A0002221DD0F13F00E94DA21DD0F0BF4905866
:1048B000DF91089591505040660F771F881FD2F7FF
:1048C0000895EE0FFF1F0590F491E02D0994EF92EB
:1048D0000F931F93CF93DF93E80147FD02C034E0AD
:1048E00001C034E1042E000C550B57FF03C0519555
:1048F00041955109E32E022F242FAE010E94EE258F
:10490000CE01DF91CF911F910F91EF9008950F93FA
:104910001F93CF93DF938230910510F482E090E0F3
:10492000E0913707F091380720E030E0A0E0B0E0F8
:10493000309719F14081518102811381481759073D
:10494000C8F08417950769F4109731F012960C930C
:10495000129713961C9327C00093370710933807BC
:1049600022C02115310519F04217530718F49A0196
:10497000BD01EF01DF01F801DBCF21153105F9F0B1
:10498000281B390B2430310580F48A819B81611505
:10499000710521F0FB019383828304C09093380753
:1049A00080933707FE01329644C0FE01E20FF31FE9
:1049B0008193919322503109398328833AC0209101
:1049C000350730913607232B41F420916200309156
:1049D00063003093360720933507209160003091B3
:1049E00061002115310541F42DB73EB740916400B7
:1049F00050916500241B350BE0913507F091360787
:104A0000E217F307A0F42E1B3F0B2817390778F0A5
:104A1000AC014E5F5F4F2417350748F04E0F5F1F04
:104A200050933607409335078193919302C0E0E09D
:104A3000F0E0CF01DF91CF911F910F910895CF93B7
:104A4000DF93009709F481C0FC0132971382128230
:104A5000A0913707B0913807109781F420813181F8
:104A6000820F931F20913507309136072817390799
:104A700051F5F0933607E093350767C0ED0120E06C
:104A800030E0CE17DF0740F44A815B819E0141157B
:104A90005105F1F0EA01F5CFD383C2834081518102
:104AA000840F951FC817D90759F488819981840FFD
:104AB000951F0296918380838A819B819383828351
:104AC0002115310529F4F0933807E09337073DC0ED
:104AD000E901FB83EA8349915991C40FD51FEC1773
:104AE000FD0761F480819181840F951F0296E90191
:104AF00099838883828193819B838A83E0E0F0E0BD
:104B000012968D919C911397009719F0FD01DC018D
:104B1000F7CF8D919C9111979D012E5F3F4F820F92
:104B2000931F20913507309136072817390769F40C
:104B3000309729F4109238071092370702C0138279
:104B40001282B0933607A0933507DF91CF91089575
:104B5000662777270C94482785FD0C946E29806280
:104B600091110C946E2981568A51D8F708959111AC
:104B70000C946E29803219F089508550C8F7089539
:104B80009111089581568A5108F4805285580895EC
:104B9000FB01DC010D900020E9F7119701900D92C7
:104BA0000020E1F70895FC018191861721F0882308
:104BB000D9F7992708953197CF010895FB01DC01BA
:104BC0008D91019080190110D9F3990B0895FB0183
:104BD000DC0101900D920020E1F70895A9E0B0E01A
:104BE000E4EFF5E20C949A296A01122FB02E2BE320
:104BF000201720F0FF24F394F00E02C02CE3F22ED5
:104C00000F2D27E0AE014F5F5F4F0E949628BC0139
:104C10004981842F8970813031F0E1FC06C0E0FECB
:104C200006C090E205C09DE203C09BE201C090E097
:104C30005E2D507143FF3CC0911102C083E001C062
:104C400084E0811718F4212F281B01C020E05111A6
:104C50000BC0F601822F30E2882319F03193815086
:104C6000FBCFC20ED11C20E0992329F0D6019C93E2
:104C7000F60131966F01C6010396E2FE0AC03EE4DA
:104C8000D6013C9341E411964C93119712963C93B4
:104C900006C03EE6F601308341E641833283FC01E3
:104CA000322F40E2332309F442C041933150FACF0E
:104CB00042FF44C0911102C083E001C084E081172B
:104CC00018F4212F281B01C020E051110BC0F60160
:104CD000822F30E2882319F031938150FBCFC20E2E
:104CE000D11C20E0992329F0D6019C93F60131963E
:104CF0006F01C6010396E2FE0BC039E4D6013C9376
:104D00003EE411963C93119736E412963C9307C00B
:104D100039E6F60130833EE6318336E63283FC0124
:104D2000322F40E2332319F041933150FBCFFC0185
:104D3000E20FF11D10828EEF9FEFA6C021E030E060
:104D4000911102C020E030E0161617061CF4FB019A
:104D5000319602C0E1E0F0E02E0F3F1FBB2021F0B2
:104D6000EB2DF0E0319602C0E0E0F0E02E0F3F1FA7
:104D7000E12FF0E02E173F071CF4121B212F01C07A
:104D800020E08E2D887159F4F601822F30E28823BD
:104D900019F031938150FBCFC20ED11C20E0992332
:104DA00029F0D6019C93F60131966F0151110BC089
:104DB000F601822F90E3882319F091938150FBCF65
:104DC000C20ED11C20E00F2D060F9A81342F3071B6
:104DD00044FF03C0913309F40150101624F4093044
:104DE00018F008E001C001E0AB0177FF02C040E02D
:104DF00050E0FB01E41BF50BA1E0B0E0AC0FBD1FE0
:104E0000EA0FFB1F8EE2A82E4B01801A91080B2D92
:104E100010E01195019511094F3FBFEF5B0721F499
:104E2000D601AC9211966D01641775072CF08416AB
:104E3000950614F4818101C080E3415051093196F7
:104E4000D60111967D014017510724F0D6018C93AD
:104E50006701E2CF6417750739F4963320F4953370
:104E600019F4311101C081E3F6018083F701822F2B
:104E700090E2882319F091938150FBCFF701E20F64
:104E8000F11D108280E090E02996ECE00C94B629A8
:104E9000A0E0B0E0EEE4F7E20C949A29EC016B019B
:104EA0006115710519F0FB01918380837E01FFEF8D
:104EB000EF1AFF0A0881802F90E00E94B725892B06
:104EC00011F0E701F3CF0D3239F47E0182E0E80EF4
:104ED000F11C098111E008C00B3229F47E0192E037
:104EE000E90EF11C098110E0E701219743E050E051
:104EF00066EA71E0CE010E947129892BC1F42396E4
:104F000045E050E061EA71E0CE010E947129892BF1
:104F100009F42596C114D10419F0F601D183C08398
:104F20001111F6C060E070E080E89FE7FAC043E04E
:104F300050E06EE971E0CE010E947129892B59F48D
:104F4000C114D10409F4E9C0F2E0EF0EF11CF6013E
:104F5000F182E082E2C020E030E0A901C0E0D0E0D0
:104F6000F70180EDA82EA00E89E08A1530F1912F6F
:104F70009260B92E812F887012FF04C0811124C065
:104F8000219622C081112197A5E0B0E00E948929D5
:104F9000DC01CB01880F991FAA1FBB1F9C01AD012B
:104FA0002A0D311D411D511D283989E9380748074F
:104FB00089E1580748F0166006C09EEFA9120AC0A2
:104FC00013FD40C01860B12E8FEFE81AF80A008177
:104FD0001B2DC6CF802F8F7D8534A1F580818D322A
:104FE00011F4106106C08B3221F0319661E070E05F
:104FF00004C08181329662E070E080538A3018F0FC
:10500000E61BF70B1FC060E070E060389CE079079A
:105010005CF4DB01AA0FBB1FAA0FBB1F6A0F7B1F2B
:10502000660F771F680F711D3196DF0111978C9104
:1050300080538A3050F314FF03C071956195710954
:10504000C60FD71F11FF08C0C114D10429F0CF012A
:105050000197F60191838083CA01B9010E94312032
:10506000212F2370233019F04B015C0106C04B0146
:105070005C01B7FAB094B7F8B09420E030E0A90131
:10508000C501B4010E942E1F882309F43EC0D7FF3A
:1050900006C0D195C195D1090DEB11E002C005ED17
:1050A00011E06801F8E1CF1AD10890E2E92EF12C65
:1050B000CE15DF0574F0F801259135914591549195
:1050C000C501B4010E94A8224B015C01CE19DF0981
:1050D000EFCF04501109F594E7940C151D0541F725
:1050E0008A2D880F8B2D881F8F3F49F020E030E0FC
:1050F000A901C501B4010E942E1F811106C082E2E0
:1051000090E090933A0780933907C501B40109C034
:1051100060E070E080E89FEF04C060E070E080EC49
:105120009FE7CDB7DEB7ECE00C94B629283008F045
:1051300027E03327DA01990F311D87FD9160009632
:105140006105710539F432602E5F3D9330E32A9595
:10515000E1F708959F3F30F080387105610509F04F
:105160003C5F3C5F3D93913008F08068911DDF9378
:10517000CF931F930F93FF92EF92192F987F9695DD
:10518000E92F96959695E90FFF27ED5CFD4F99273E
:105190003327EE24FF24A701E70105900894079424
:1051A00028F4360FE71EF81E491F511D660F771FA2
:1051B000881F991F0694A1F70590079428F4E70E1D
:1051C000F81E491F561FC11D770F881F991F661FA4
:1051D0000694A1F70590079428F4F80E491F561F6E
:1051E000C71FD11D880F991F661F771F0694A1F74F
:1051F0000590079420F4490F561FC71FD81F990F19
:10520000661F771F881F0694A9F784911095177061
:1052100041F0D695C79557954795F794E7941A9519
:10522000C1F7E9EDF1E0689415901591359165911C
:10523000959105907FE27395E118F10A430B560BA7
:10524000C90BD009C0F7E10CF11E431F561FC91F3F
:10525000D01D7EF4703311F48A95E6CFE8940150A6
:1052600030F0080F0AF40027021708F4202F2395C6
:10527000022F7A3328F079E37D932A95E9F710C05D
:105280007D932A9589F60694979567953795179596
:105290001794E118F10A430B560BC90BD00998F08B
:1052A00023957E9173957A3308F070E37C932013F5
:1052B000B8F77E9170617D9330F0839571E37D93B3
:1052C00070E32A95E1F71124EF90FF900F911F9161
:1052D000CF91DF91992787FD909508959927882789
:1052E0000895FB01DC014150504088F08D918134DC
:1052F0001CF08B350CF4805E659161341CF06B35CD
:105300000CF4605E861B611171F3990B0895881B84
:10531000FCCF0E94CB29A59F900DB49F900DA49F18
:10532000800D911D112408952F923F924F925F920C
:105330006F927F928F929F92AF92BF92CF92DF92A5
:10534000EF92FF920F931F93CF93DF93CDB7DEB70A
:10535000CA1BDB0B0FB6F894DEBF0FBECDBF09949E
:105360002A88398848885F846E847D848C849B84F5
:10537000AA84B984C884DF80EE80FD800C811B8103
:10538000AA81B981CE0FD11D0FB6F894DEBF0FBE32
:10539000CDBFED010895A29FB001B39FC001A39FAF
:1053A000700D811D1124911DB29F700D811D11245E
:0853B000911D0895F894FFCF50
:1053B80000003B07200073696E280000636F7328A4
:1053C800000074616E2800007371727428005E001A
:1053D80000000000780000000000790000000000D4
:1053E8003C2D000000002C00000000002E000000F2
:1053F8000000280000000000290000000000430011
:10540800000000004300000000004300000000000E
:105418004300000000003738392F3435362A31323E
:10542800332D43303D2B496E70757420615B00004D
:1054380000000000496E70757420636F6C756D6EA6
:1054480020645B000000416E7320785B0000000060
:10545800000000002B2D2A2F255E3D282900202B37
:105468002D2F2A255E3D2829090D004F6E6C7920C5
:105478006669727374206C6574746572206F662037
:105488007661726961626C657320697320636F6EFF
:105498007369646572656400556E62616C616E6300
:1054A800656420506172656E746865736573004148
:1054B80053494E0041434F53004154414E0041531C
:1054C800494E480041434F5348004154414E48001B
:1054D8004C4E004C4F470045585000535152540011
:1054E80053515200524F554E4400494E5400556E88
:1054F8006B6E6F776E2046756E6374696F6E0053BE
:10550800796E746178204572726F72004E6F204513
:10551800787072657373696F6E2050726573656E0B
:10552800740046287829203D20006D696E58203D7A
:1055380020006D617858203D2000312E43616C6356
:10554800756C61746F7200322E47617573732045F4
:105558006C696D696E6174696F6E00332E4E657784
:10556800746F6E2052617068736F6E00342E496ECE
:10557800746567726174696F6E00352E4772617069
:105588006820506C6F74004E756D626572206F668E
:10559800205661726961626C65732028312D372944
:1055A8003F004E756D626572206F6620657175618A
:1055B80074696F6E732028312D37293F004E6F2094
:1055C800536F6C7574696F6E2100496E66696E69F8
:1055D800746520536F6C7574696F6E2100496E7025
:1055E8007574204571756174696F6E206F662078D7
:1055F8003A00496E70757420696E697469616C202F
:10560800617070726F78696D6174696F6E3A00418C
:105618006E73203D00496E707574206C6F776572EB
:10562800206C696D69743A00496E707574207570E4
:0C563800706572206C696D69743A0000A6
:00000001FF
