:100000000C9436020C945E020C945E020C945E0218
:100010000C945E020C945E020C945E020C945E02E0
:100020000C945E020C945E020C945E020C945E02D0
:100030000C945E020C945E020C945E020C945E02C0
:100040000C945E020C945E020C945E020C945E02B0
:100050000C945E02036EDB363D9A9999993DABAAEA
:10006000AA2A3E000000803F07634236B79BD8A70C
:100070001A39685618AEBAAB558C1D3CB7CC5763CD
:10008000BD6DEDFD753EF6177231BF000000803F7B
:10009000072C7AA5BA6CC590DA3B9365FC8BBC53F0
:1000A000F810FD3C5692834DBD879D3AB63DCBC9B5
:1000B000BF5BBE73DA0FC93F05A84CCDB2D44EB9B1
:1000C0003836A9020C50B9918688083CA6AAAA2AFB
:1000D000BE000000803F08000000BE922449123E8E
:1000E000ABAAAA2ABECDCCCC4C3E00000080BEAB51
:1000F000AAAAAA3E00000000BF000000803F000046
:10010000000000084178D3BB4387D1133D190E3C52
:10011000C3BD4282AD2B3E68EC8276BED98FE1A989
:100120003E4C80EFFFBE01C4FF7F3F000000000097
:100130000664EC1B3C04BC163E3BE5B93CC93C37AD
:10014000C29E5A3D660498083EEA69AAAA3E00008B
:1001500000803F004E414E494E495459494E46CDCC
:10016000CCCC3D0AD7233C17B7D13877CC2B32956E
:1001700095E6241FB14F0A000020410000C842004C
:10018000401C4620BCBE4CCA1B0E5AAEC59D740016
:10019000407A10F35A00A0724E18090010A5D4E856
:1001A0000000E87648170000E40B54020000CA9AE9
:1001B0003B000000E1F5050000809698000000403B
:1001C000420F000000A08601000000102700000080
:1001D00000E803000000006400000000000A0000C6
:1001E0000000000100000000002C76D888DC674F7A
:1001F0000823DFC1DFAE59E1B1B796E5E3E453C6AA
:100200003AE651997696E8E6C28426EB898C9B62A1
:10021000ED407C6FFCEFBC9C9F40F2BAA56FA5F44B
:1002200090055A2AF75C936B6CF9676DC11BFCE073
:10023000E40D47FEF520E6B500D0ED902E030094C6
:100240003577050080841E080000204E0A0000005B
:10025000C80C333333330F986E12831141EF8D2165
:1002600014893BE65516CFFEE6DB18D1844B381BCC
:10027000F77C1D901DA4BBE424203284725E228191
:1002800000C9F124ECA1E53D2700000000000000BA
:100290005F00000007000700147F147F14242A7FEA
:1002A0002A122313086462364955225000050300C0
:1002B00000001C2241000041221C00082A1C2A08C0
:1002C00008083E0808005030000008080808080028
:1002D0003030000020100804023E5149453E0042E3
:1002E0007F400042615149462141454B311814126B
:1002F0007F1027454545393C4A4949300171090578
:10030000033649494936064949291E003636000058
:10031000005636000000081422411414141414412D
:10032000221408000201510906324979413E7E112A
:1003300011117E7F494949363E414141227F414169
:10034000221C7F494949417F090901013E41415130
:10035000327F0808087F00417F41002040413F0173
:100360007F081422417F404040407F0204027F7F8B
:100370000408107F3E4141413E7F090909063E4184
:1003800051215E7F09192946464949493101017FBA
:1003900001013F4040403F1F2040201F7F20182088
:1003A0007F631408146303047804036151494543CF
:1003B00000007F4141020408102041417F000004F9
:1003C0000201020440404040400001020400205469
:1003D0005454787F48444438384444442038444492
:1003E000487F3854545418087E09010208145454A4
:1003F0003C7F0804047800447D40002040443D00D8
:10040000007F10284400417F40007C041804787C61
:100410000804047838444444387C1414140808143C
:1004200014187C7C080404084854545420043F44A5
:1004300040203C4040207C1C2040201C3C40304060
:100440003C44281028440C5050503C4464544C44C4
:10045000000836410000007F000000413608000817
:10046000082A1C08081C2A0808006D1B11241FBE3E
:10047000CFE5D8E0DEBFCDBF12E0A0E6B0E0E8EE09
:10048000F9E402C005900D92AC36B107D9F727E028
:10049000ACE6B2E001C01D92A033B207E1F712E072
:1004A000C6E3D2E004C02197FE010E949A20C53322
:1004B000D107C9F70E94E91A0C94F2240C940000A9
:1004C000AC9AAC9808958FEF81BBA09AA49AA39A96
:1004D000A29AA19AA9982FE788E391E02150804041
:1004E0009040E1F700C00000A99A2FE788E391E06F
:1004F000215080409040E1F700C00000A898AB9ADE
:10050000AA9A8FE382BB0E94600280EC82BB0E94A9
:1005100060022FE788E391E0215080409040E1F7AE
:1005200000C000002FE788E391E021508040904018
:10053000E1F700C00000AB98AA9808950F931F93AD
:10054000CF93DF93C82F042F683068F0862F885030
:100550008830E8F7162F1770D8EFD60FD695D695B6
:10056000D695DF5F02C0162FD0E0C03480F4A89883
:10057000AB9AAA98D7708D2F886B82BB0E946002BD
:10058000CF738C2F806482BB0E94600211C0C05464
:10059000A898AB98AA9AD7708D2F886B82BB0E94BF
:1005A0006002CF738C2F806482BB0E946002C05CAB
:1005B000A89A0130D1F4EC2FF0E0EE0FFF1FEE0F00
:1005C000FF1FEE0FFF1FE25DFC4FED0FF11D81E0FD
:1005D00090E002C0880F991F1A95E2F79081892B4D
:1005E000808382BB0E9460021AC0EC2FF0E081E0A1
:1005F00090E002C0880F991F1A95E2F78095EE0FE0
:10060000FF1FEE0FFF1FEE0FFF1FE25DFC4FED0F10
:10061000F11D90818923808382BB0E946002DF915B
:10062000CF911F910F910895FF920F931F93CF9336
:10063000DF9300E010E0F12CD02FCF2DEC2FF0E075
:10064000EE0FFF1FEE0FFF1FEE0FFF1FE25DFC4FCF
:10065000E00FF11F1082C03480F4A898AB9AAA98DA
:10066000D7708D2F886B82BB0E946002CF738C2F56
:10067000806482BB0E94600211C0C054A898AB98ED
:10068000AA9AD7708D2F886B82BB0E946002CF73AD
:100690008C2F806482BB0E946002C05CA89A12BA50
:1006A0000E946002CF5F52F60F5F1F4F08301105A6
:1006B00019F6DF91CF911F910F91FF9008957F92CE
:1006C0008F929F92AF92BF92CF92DF92EF92FF9262
:1006D0000F931F93CF93DF93D82FC62F742E822EA4
:1006E000A22EB12CA61AB108C42ED12CC81AD1083A
:1006F000BB2034F4B194A194B10899249A9402C017
:1007000099249394DD202CF4D194C194D1081FEF47
:1007100001C011E0AA0CBB1CCC0CDD1C402F6C2FBF
:100720008D2F0E949E02AC14BD04C4F4C6019595A1
:1007300087957501E81AF90A7D1639F1FF201CF03A
:10074000C90DEC18FD08D10FEA0CFB1C402F6C2FD3
:100750008D2F0E949E02D711F1CF17C0C50195952C
:1007600087957601E81AF90A8C1679F0FF201CF0BB
:10077000D10FEA18FB08C90DEC0CFD1C402F6C2FA3
:100780008D2F0E949E02C811F1CFDF91CF911F9152
:100790000F91FF90EF90DF90CF90BF90AF909F9020
:1007A0008F907F900895CF92DF92EF92FF920F93F8
:1007B0001F93CF93DF93D62E4052242F30E0890130
:1007C000000F111F000F111F020F131F07571D4F9E
:1007D0000F2EF5E0CF2EF02DC80EE82EFD2CC0E038
:1007E000D0E0F801449150E00C2E02C05595479599
:1007F0000A94E2F741706F2D8E2D0E949E02219681
:10080000F394C830D10569F70F5F1F4FE394CE1002
:10081000E5CFDF91CF911F910F91FF90EF90DF9087
:10082000CF900895EF92FF920F931F93CF93DF9392
:10083000FA0101900020E9F73197E41BF50B1E1631
:100840001F068CF4D62F8A017A01EE0EFF1EC82FE8
:10085000F80141918F016D2F8C2F0E94D303CA5F45
:100860000E151F05A9F7DF91CF911F910F91FF90F2
:10087000EF900895FC011182108272969C01265C13
:100880003F4F1192119211921192E217F307C9F79B
:10089000FC0112AE0895AF92BF92CF92DF92EF9219
:1008A000FF920F931F93CF93DF936C01DC0151965E
:1008B0001C92519712961C921297ED91FC91808197
:1008C000882309F4A8C0F601C081D181F8800F2DDA
:1008D00010E0C8010E94CF20892B29F02196D60173
:1008E000CD93DC93F0CFB8018EEF90E00E94EB2027
:1008F000892B89F081E0F601818B5601F3E0AF0E80
:10090000B11CCE010196D60111969C938E938881DD
:1009100012968C936BC05601B2E0AB0EB11CC801AD
:100920000E94C720892BB9F175015701F601C081DA
:10093000D1811881612F70E088E091E00E94EB2066
:10094000892B89F4112379F0CE010196D6018D937C
:100950009C93888190E00E94D820F7018083FFEF6C
:10096000EF1AFF0AE2CFD601CD91DC911881812FD9
:1009700090E00E94CF20892B29F02196F601D183A7
:10098000C083F1CF183211F082E001C084E0D601BB
:1009900051968C932BC08F2D90E0C0970A9718F03A
:1009A000BEE2FB1223C075015701F601C081D1815F
:1009B0001881612F70E088E091E00E94EB20892B84
:1009C00089F4112379F0CE010196D6018D939C9381
:1009D000888190E00E94D820F7018083FFEFEF1A12
:1009E000FF0AE2CF83E0D60151968C93F501108285
:1009F000D60151968C915197823069F413968C915F
:100A00001397882341F0DA9686E0E5E1F1E0019062
:100A10000D928A95E1F7DF91CF911F910F91FF9091
:100A2000EF90DF90CF90BF90AF900895EF92FF923C
:100A30000F931F93CF93DF9300D000D0CDB7DEB7D5
:100A40008C017B010E943707F80182818B32E1F033
:100A50008D32A1F5C8010E944B04BE016F5F7F4F2C
:100A6000C8010E94370729813A814B815C81F701D7
:100A700060817181828193810E94831BF701608371
:100A8000718382839383E0CFC8010E944B04BE012F
:100A90006F5F7F4FC8010E94370729813A814B81E0
:100AA0005C81F70160817181828193810E94841B46
:100AB000F7016083718382839383C6CF0F900F9079
:100AC0000F900F90DF91CF911F910F91FF90EF90BA
:100AD0000895DF92EF92FF920F931F93CF93DF93CE
:100AE000CDB7DEB72F970FB6F894DEBF0FBECDBFE0
:100AF0008C017B01DC015196DC90B4E0DB120AC072
:100B0000BC016E5F7F4FCE0101960E94FF20C8019D
:100B10000E944B04D8011296EC91E83209F0F8C01B
:100B2000C8010E944B04B701C8010E941605F801D4
:100B30008281893249F086E0E5E1F1E0D801DA9678
:100B400001900D928A95E1F7F4E0DF12DDC060E2DA
:100B500071E0CE0101960E94F620892B69F4D7013D
:100B60006D917D918D919C910E94F71FF70160839B
:100B7000718382839383C8C065E271E0CE010196E0
:100B80000E94F620892B69F4D7016D917D918D919A
:100B90009C910E94101CF701608371838283938370
:100BA000B3C06BE171E0CE0101960E94F620892B63
:100BB00069F4D7016D917D918D919C910E944520A2
:100BC000F70160837183828393839EC06FE171E03C
:100BD000CE0101960E94F620892B69F4D7016D9110
:100BE0007D918D919C910E94F01BF7016083718330
:100BF0008283938389C064E271E0CE0101960E94F2
:100C0000F620892B69F4D7016D917D918D919C918E
:100C10000E94721BF701608371838283938374C087
:100C200069E271E0CE0101960E94F620892B69F4F9
:100C3000D7016D917D918D919C910E949A1EF70133
:100C400060837183828393835FC06CE271E0CE0125
:100C500001960E94F620892B69F4D7016D917D9150
:100C60008D919C910E948A1EF7016083718382831B
:100C700093834AC060E371E0CE0101960E94F620A2
:100C8000892B69F4D7016D917D918D919C910E9482
:100C90008F1CF701608371838283938335C064E383
:100CA00071E0CE0101960E94F620892B69F4D701EC
:100CB0006D917D918D919C910E940520F70160833B
:100CC00071838283938320C069E371E0CE01019632
:100CD0000E94F620892B79F4D7016D917D918D9139
:100CE0009C919B01AC010E94161FF70160837183E8
:100CF0008283938309C086E0E5E1F1E0D801DA96CA
:100D000001900D928A95E1F7C8010E944B0435C00D
:100D1000D80151968C91823019F08330B9F024C0FB
:100D2000F0E0E154F109EE0FFF1FEE0FFF1FE00F9F
:100D3000F11F82899389A489B589F7018083918302
:100D4000A283B383C8010E944B0417C0C801029656
:100D50000E94C020D7016D937D938D939C93139730
:100D6000C8010E944B0409C0D801DA9686E0E5E18B
:100D7000F1E001900D928A95E1F72F960FB6F89465
:100D8000DEBF0FBECDBFDF91CF911F910F91FF90BE
:100D9000EF90DF9008950F931F93CF93DF93EC01B3
:100DA0008B018989813019F48A818B3241F08A81E3
:100DB0008D3269F0B801CE010E94690519C0CE01DB
:100DC0000E944B04B801CE010E94690511C0CE01FA
:100DD0000E944B04B801CE010E946905F801808190
:100DE0009181A281B381B05880839183A283B38320
:100DF000DF91CF911F910F910895EF92FF920F9382
:100E00001F93CF93DF9300D000D0CDB7DEB78C0116
:100E10007B010E94CB06F80182818E35E9F4C8017E
:100E20000E944B04BE016F5F7F4FC8010E94CB063A
:100E300029813A814B815C81F701608171818281D6
:100E400093810E94831FF701608371838283938360
:100E5000F80182818E3519F30F900F900F900F904B
:100E6000DF91CF911F910F91FF90EF900895EF9236
:100E7000FF920F931F93CF93DF9300D000D0CDB795
:100E8000DEB78C017B010E94FD06F80182818A3267
:100E900019F08F32D9F034C0C8010E944B04BE0152
:100EA0006F5F7F4FC8010E94FD0629813A814B8107
:100EB0005C81F70160817181828193810E94161F9C
:100EC000F7016083718382839383DFCFC8010E941F
:100ED0004B04BE016F5F7F4FC8010E94FD06298150
:100EE0003A814B815C81F7016081718182819381BC
:100EF0000E94151CF7016083718382839383C5CFA1
:100F00000F900F900F900F90DF91CF911F910F9145
:100F1000FF90EF9008958F929F92BF92CF92DF92B1
:100F2000EF92FF920F931F93CF93DF93CDB7DEB76E
:100F30002F970FB6F894DEBF0FBECDBF8C017B019B
:100F4000FC0181898230C9F5819091906F01BF01C8
:100F5000CE0101960E94FF20F801B280C8010E94D4
:100F60004B04F80182818D3361F091828082BE0151
:100F70006F5F7F4FC6010E94FF2082E0F801818BE6
:100F80001CC0C8010E944B04B701C8010E9416058D
:100F9000F70140815181628173818B2D90E08154F2
:100FA0009109880F991F880F991FF801E80FF91F01
:100FB000428B538B648B758B04C0B701C8010E94B0
:100FC00016052F960FB6F894DEBF0FBECDBFDF918A
:100FD000CF911F910F91FF90EF90DF90CF90BF9036
:100FE0009F908F9008950F931F93CF93DF9300D01E
:100FF00000D0CDB7DEB78C01FC0112AE71836083E7
:101000000E944B04F801828181110DC0D801DA964B
:1010100086E0E5E1F1E001900D928A95E1F760E06C
:1010200070E0CB0117C0BE016F5F7F4FC8010E9407
:101030008B07F8018281882349F0D801DA9686E08F
:10104000E5E1F1E001900D928A95E1F769817A81FD
:101050008B819C810F900F900F900F90DF91CF911B
:101060001F910F9108959C01FA019081992351F0ED
:10107000D901A60FB71F31969D936F5F7F4F919156
:101080009111FACFF901E60FF71F108208958F92A0
:101090009F92AF92BF92EF92FF920F931F93CF93C5
:1010A000DF93FC014A015B019081992351F17F019B
:1010B0008FEFE81AF80AC0E0D0E09837B9F407EFEC
:1010C00012E028E041E0C501B4010E94A020909107
:1010D000F702992381F0DE01AA5FBC4FE8EFF2E04E
:1010E0009D93219691919111FBCF05C0FE01EA5F7E
:1010F000FC4F90832196F70191917F019111DDCFF3
:1011000002C0C0E0D0E0CA5FDC4F188266E073E046
:101110008EEA92E00E94F307DF91CF911F910F9129
:10112000FF90EF90BF90AF909F908F900895DF92C7
:10113000EF92FF920F931F93CF93DF9300D0CDB721
:10114000DEB7A1E0B0E044E050E09D01042E02C013
:10115000220F331F0A94E2F728BB9A012450310969
:10116000F901E054FF4F00E010E0D22E732F26B3B8
:1011700030E0002E02C0359527950A94E2F720FF53
:101180002FC0ED2CF72E90812FEC290F2730F8F48B
:1011900099831A82AE014F5F5F4F682F81E00E94F2
:1011A00012042FEF34E38CE0215030408040E1F70F
:1011B00000C00000000F111F000F111F00541F4F2F
:1011C000F801EE0DFF1D808190E0C0971CC09FEFDD
:1011D00024E33CE0915020403040E1F700C00000A3
:1011E0000F5F1F4F34960430110509F6EFE1FEE45E
:1011F0003197F1F700C000004F5F5F4F4830510555
:1012000009F0A3CFA0CF0F900F90DF91CF911F9146
:101210000F91FF90EF90DF9008956F927F928F92E1
:101220009F92AF92BF92CF92DF92EF92FF920F9375
:101230001F93CF93DF93161617060CF052C07C0154
:10124000EC01E60EF71E712C01E010E0D12C812C90
:10125000912C5401CC24C39469908DE2681659F105
:101260008EE2681651F120E030E040E251E4C50121
:10127000B4010E94161F4B015C01662D70E06053A3
:101280007109072E000C880B990B0E94F91CA5010F
:1012900094010E94841B4B015C01DD2079F0C801A0
:1012A000880F991F000F111F000F111F000F111F32
:1012B000080F191F03C07C2C01C0DC2CEC16FD06A6
:1012C00059F6B801110F880B990B0E94F91C9B016C
:1012D000AC01C501B4010E94151C772029F090587B
:1012E00003C060E070E0CB01DF91CF911F910F91BF
:1012F000FF90EF90DF90CF90BF90AF909F908F9036
:101300007F906F9008952F923F924F925F926F92CD
:101310007F928F929F92AF92BF92CF92DF92EF9285
:10132000FF920F931F93CF93DF93CDB7DEB76097F4
:101330000FB6F894DEBF0FBECDBF8B87188AA12CE5
:10134000B12C88248394912CCE0101962C018C879A
:101350005D860F2EF0E62F2EF0E03F2EF02D6894E4
:10136000662462F8712CC401062C02C0880F991FF4
:101370000A94E2F788BB8BBBF301E454FF4F7F0173
:10138000610100E010E086B390E0002E02C0959568
:1013900087950A94E2F780FF36C0F701808190EDCF
:1013A000980F9A3090F4F201EA0DFB1D8083FFEF55
:1013B000AF1ABF0AF201EA0DFB1D10824C855D8554
:1013C0006B8581E00E94120414C08D3309F48EC035
:1013D000A114B10471F48D3261F42DE229831A82D3
:1013E0004C855D856B8581E00E941204AA24A3943C
:1013F000B12C8FEF94E3ECE081509040E040E1F7B6
:1014000000C0000051C089B390E0002E02C0959545
:1014100087950A94E2F780FF47C0F60180818C33FC
:1014200009F5A114B10451F4FFEF24E38CE0F1506D
:1014300020408040E1F700C000003AC091E0A91AC6
:10144000B108F201EA0DFB1DFF87EE8720E2208341
:101450004C855D856B8581E00E941204EE85FF85D9
:10146000108219C08E32B9F4F889F11114C0F2015A
:10147000EA0DFB1D2EE220838FEFA81AB80AF201B5
:10148000EA0DFB1D10824C855D856B8581E00E9415
:10149000120491E0988BEFEFF4E32CE0E150F04080
:1014A0002040E1F700C0000089E0A816B104F1F087
:1014B0000F5F1F4F98E1C90ED11CE4E0EE0EF11C46
:1014C0000430110509F05FCF8FE19EE40197F1F739
:1014D00000C000009FEF691A790AE6E02E0E311C69
:1014E000F8E06F16710409F03ECF33CF8FE19EE430
:1014F0000197F1F700C00000B501CE0101960E94EE
:101500000D0960960FB6F894DEBF0FBECDBFDF9118
:10151000CF911F910F91FF90EF90DF90CF90BF90F0
:10152000AF909F908F907F906F905F904F903F9083
:101530002F900895CF92DF92EF92FF920F931F9317
:10154000CF93DF93CDB7DEB765970FB6F894DEBFC4
:101550000FBECDBF6C017B016130710511F40E949B
:101560001403F60101900020E9F73197EC19FD0909
:101570001E161F0694F13AC0D8019D918D01E1E03D
:10158000F0E0EC0FFD1FE20FF31F90832F5F3F4F42
:101590002431310569F41D8AAE014F5F5F4F6E2D16
:1015A00081E00E941204BCE0EB0EF11C20E030E070
:1015B000C016D10609F721153105C1F0E1E0F0E0D0
:1015C000EC0FFD1FE20FF31F1082AE014F5F5F4F64
:1015D0006E2D81E00E94120409C0D6018D918D010B
:1015E0008983CE0EDF1E21E030E0E2CF65960FB694
:1015F000F894DEBF0FBECDBFDF91CF911F910F9149
:10160000FF90EF90DF90CF9008952F923F924F92EE
:101610005F926F927F928F929F92AF92BF92CF9282
:10162000DF92EF92FF920F931F93CF93DF93CDB78B
:10163000DEB72E970FB6F894DEBF0FBECDBF2C01DC
:101640001B01161617060CF032C18FEF9FEF909317
:101650006D0280936C02623071050CF417C2909396
:101660006F0280936E02633071050CF40FC2909389
:101670007102809370020AC289859A8504969A87BE
:101680008987EB85FC853296FC87EB87C414D504EB
:101690000CF010C25601C601841595050CF04AC025
:1016A0009601220F331F220F331F280D391D220FE1
:1016B000331F220F331F2E583D4F860136013A83C8
:1016C0002983E981FA8160817181828193810E94FD
:1016D000C11C7B01772324F4EE24FF24E61AF70AC9
:1016E000F301EE0FFF1FEE0FFF1FE80DF91DEE0FC8
:1016F000FF1FEE0FFF1FEE58FD4F60817181828149
:1017000093810E94C11C9B01772324F42227332755
:10171000261B370B2E153F050CF438010F5F1F4FAA
:1017200029813A81205F3F4F3A83298304151505AB
:1017300044F201C03601F301EE0FFF1FEE0FFF1F51
:10174000E80DF91DEE0FFF1FEE0FFF1FEE58FD4FC6
:1017500060817181828193810E94C11C9B017723EA
:1017600024F422273327261B370BB901330F880BAC
:10177000990B0E94F91C2CEA35EC47E257E30E94D2
:101780000B1C88230CF482C0281439040CF498C173
:10179000F301EE0FFF1FEE0FFF1FE80DF91DEE0F17
:1017A000FF1FEE0FFF1FEE58FD4FD501AA0FBB1F05
:1017B000AA0FBB1FA80DB91DAA0FBB1FAA0FBB1FE5
:1017C000AE58BD4FC40140815181628173810D913A
:1017D0001D912D913C911397019311932193319376
:1017E0004D935D936D937D930196281639065CF7B2
:1017F00067C1AE14BF04E1F1ED81FE81208131812A
:1018000042815381F60160817181828193810E94BE
:10181000151C69837A838B839C832814390444F1D3
:10182000DE86CD866F8078848401F3012191319129
:10183000419151913F0169817A818B819C810E9404
:10184000161F9B01AC01ED85FE856081718182814F
:1018500093810E94831BED85FE8561937193819333
:101860009193FE87ED870F5F1F4F20163106ECF630
:10187000FFEFEF1AFF0A20E1C20ED11C4E145F04E5
:1018800009F0B7CF65013FEFC31AD30A4FEF841AAF
:10189000940A2814390409F0EFCE0CC11192119268
:1018A00011921192019682159305C4F305C0181682
:1018B00019060CF444C0DBC00F2EFCE6EF2EF2E05C
:1018C000FF2EF02D1A821982F701819191917F01EB
:1018D0008F3FFFEF9F0739F1880F991F880F991FDE
:1018E000DC01A20DB31DAA0FBB1FAA0FBB1FAE5870
:1018F000BD4F29813A81820F931FFC01EE0FFF1F1C
:10190000EE0FFF1FEE58FD4F208131814281538140
:101910006D917D918D919C910E94151CF8016083C1
:1019200071838283938329813A812F5F3F4F3A836A
:1019300029830C5F1F4F2215330534F2DCC0C1012F
:10194000880F991F880F991FFC01EE58FD4F4F011A
:1019500002E712E09C012E553D4F5901612C712C7C
:1019600078015E824D823A82298289819A81181695
:10197000190644F02FC029803A80121413040CF485
:101980005FC078C002EA12E0F886EF82312C512C59
:10199000C12CD12CF80161917191819191918F01AC
:1019A000EF81F8852191319141915191F887EF8331
:1019B0000E94161F9B01AC01632D752D8C2D9D2D52
:1019C0000E94841B362E572EC82ED92EA016B10683
:1019D00009F704C0312C512CC12CD12CF4012081E9
:1019E000318142815381632D752D8C2D9D2D0E9457
:1019F000831B0E94C11C9B01772324F422273327D9
:101A0000261B370BB901330F880B990B0E94F91C69
:101A10002CEA35EC47E257E30E94431E18166CF19E
:101A2000FFEF6F1A7F0A20E1820E911C30E1E30E76
:101A3000F11C8D819E81681679060CF496CF9BCFA0
:101A400080916C0290916D020196D1F0EEE6F2E089
:101A500080E090E005C0219131912F3F3F4F99F0F8
:101A6000019682159305BCF381E090E049C081E0C6
:101A700090E046C081E090E043C080E090E040C04C
:101A800082E090E03DC082E090E03AC0141415047A
:101A90008CF482E792E09A878987ECE6F2E0FC8793
:101AA000EB87A12CB12C812C912C80E090E0C12CF3
:101AB000D12CF2CD02EA12E0F80180E090E0EECE07
:101AC000EB85FC85B182A082C501880F991F880F24
:101AD000991F880D991D880F991F880F991F9C01C8
:101AE0002E583D4F38872F83C984DA84E12CF12C9E
:101AF0003E832D837ECE141415040CF420CFA0CF8A
:101B00002E960FB6F894DEBF0FBECDBFDF91CF91FA
:101B10001F910F91FF90EF90DF90CF90BF90AF900B
:101B20009F908F907F906F905F904F903F902F90FD
:101B300008952F923F924F925F926F927F928F9271
:101B40009F92AF92BF92CF92DF92EF92FF920F934C
:101B50001F93CF93DF93CDB7DEB7CB54D1090FB628
:101B6000F894DEBF0FBECDBF8BE1EDE5F1E0DE0105
:101B7000119601900D928A95E1F761E070E0CE0137
:101B800001960E949A0A88E190E00E9497085C0101
:101B90008BE1E8E7F1E0DE01119601900D928A9564
:101BA000E1F761E070E0CE0101960E949A0A88E1B7
:101BB00090E00E9497082C969FAF8EAF2C97181636
:101BC00019060CF0DBC0C501880F991F880F991FFB
:101BD0009C012E583D4F28963FAF2EAF289782E7A5
:101BE00092E02A969FAF8EAF2A970F2EF0E33F2EFA
:101BF000F02D812C912C0F2EF5E02F2EF02DFE01D3
:101C0000F9962696FFAFEEAF26978E010E5B1F4F1B
:101C10000F2EFDE54F2EF02DE02EF12E1A141B0491
:101C20000CF05DC02A96CEACDFAC2A970F2EF0E305
:101C30005F2EF02D612C712C89E0E0EDF0E0DE01EB
:101C4000D09601900D928A95E1F72696EEADFFAD04
:101C50002697222D11922A95E9F7F80130821182F8
:101C60006E2D7F2DCE01C0960E94E020F8014082AB
:101C70006E2D7F2DCE01C0960E94E0202BE5F8014D
:101C800020836E2D7F2DCE01C0960E94E020F801AA
:101C900050826E2D7F2DCE01C0960E94E020F8016B
:101CA00040826E2D7F2DCE01C0960E94E02061E023
:101CB00070E0CE01C0960E949A0A8CE090E00E94EB
:101CC0008309F60161937193819391936F01FFEF03
:101CD0006F1A7F0A5394A614B70409F0ADCF80E1C0
:101CE000EEEDF0E0DE01D09601900D928A95E1F7DD
:101CF00022961FAE1EAE2297F801308211826E2D01
:101D00007F2DCE01C0960E94E020F80140826E2D0A
:101D10007F2DCE01C0960E94E02061E070E0CE01F0
:101D2000C0960E949A0A8CE090E00E94830928964F
:101D3000EEADFFAD28976083718382839383FFEFBD
:101D40008F1A9F0A339428962EAD3FAD2897205FB7
:101D50003F4F28963FAF2EAF28972A968EAD9FAD66
:101D60002A9740962A969FAF8EAF2A972C96EEAD73
:101D7000FFAD2C97E815F90509F050CFB5012C9669
:101D80008EAD9FAD2C970E94050B009781F48DE0DE
:101D9000EDE3F1E0DE01119601900D928A95E1F7F5
:101DA00061E070E0CE0101960E949A0ABBC08130CA
:101DB000910569F4FFEF2EE934E2F1502040304004
:101DC000E1F700C000001A141B04E4F0ABC0029756
:101DD000D1F783E1EAE4F1E0DE01119601900D9282
:101DE0008A95E1F761E070E0CE0101960E949A0ABF
:101DF0008FEF9EE9E4E281509040E040E1F700C0BF
:101E00000000E1CF0F2EF2EA8F2EF2E09F2EF02D90
:101E10000F2EF0E35F2EF02DC12CD12C0F2EF7E00A
:101E20003F2EF02D3E01F7E36F0E711C0F2EFDE5E6
:101E30004F2EF02DEE24E394F12C87E0E0EFF0E05C
:101E4000DE01D09601900D928A95E1F7F301232DE2
:101E500011922A95E9F723965FAE239724961FAE39
:101E60002497BE016E5B7F4FCE01C0960E94E0209A
:101E700023964FAE2397BE016E5B7F4FCE01C09677
:101E80000E94E020B701CE01C0960E949A0AF40198
:101E900061917191819191914F018E01045E1F4F6B
:101EA00022E041E00E94A0206CE070E0C8010E94A6
:101EB0009A0A44E050E0C701042E02C0880F991F1F
:101EC0000A94E2F788BBFA01E454FF4F20E030E0C7
:101ED00086B390E0022E02C0959587950A94E2F7AA
:101EE00080FF03C080818D3361F02F5F3F4F3496B8
:101EF0002430310569F74F5F5F4F48305105D9F6FF
:101F0000D8CFFFEF24E33CE0F15020403040E1F730
:101F100000C000008FEFC81AD80A5394AC14BD0457
:101F200009F08BCFC55BDF4F0FB6F894DEBF0FBE55
:101F3000CDBFDF91CF911F910F91FF90EF90DF9078
:101F4000CF90BF90AF909F908F907F906F905F9059
:101F50004F903F902F9008952F923F924F925F9213
:101F60006F927F928F929F92AF92BF92CF92DF92A9
:101F7000EF92FF920F931F93CF93DF93CDB7DEB70E
:101F800028970FB6F894DEBF0FBECDBF7C012A01A3
:101F90003B01480159019A01AB01C501B4010E94FE
:101FA000831B20E030E048E452E40E94151C698362
:101FB0007A838B839C83B301A201C7010E944708E7
:101FC0006D837E838F839887B501A401C7010E942A
:101FD00047089B01AC016D817E818F8198850E94AD
:101FE000841B4B015C0129813A814B815C81C301D7
:101FF000B2010E94841BAB01BC01C7010E944708CB
:102000009B01AC0181E090E0B0E0A0E0F0E8E0E40A
:10201000D12C00E8C12C312C212C10E49E838D831F
:1020200025C02D813E81B901330F880B990B0E9489
:10203000F91C29813A814B815C810E94161FA30102
:1020400092010E94841BAB01BC01C7010E9447089A
:102050009B01AC018D8180FD05C0BC2DA32DF22D0F
:10206000E12F04C0B0E0AD2DF02FE0E46B2F7A2F0C
:102070008F2F9E2F0E94161F9B01AC01C501B4013A
:102080000E94841B4B015C012D813E812F5F3F4FDD
:102090003E832D832233310521F620E030E040E4F9
:1020A00050E469817A818B819C810E94151CA50175
:1020B00094010E94161F28960FB6F894DEBF0FBE3B
:1020C000CDBFDF91CF911F910F91FF90EF90DF90E7
:1020D000CF90BF90AF909F908F907F906F905F90C8
:1020E0004F903F902F9008952F923F924F925F9282
:1020F0006F927F928F929F92AF92BF92CF92DF9218
:10210000EF92FF920F931F93CF93DF93CDB7DEB77C
:10211000CA55D1090FB6F894DEBF0FBECDBF0E94DD
:10212000140385E1E3E9F1E0DE01119601900D92DF
:102130008A95E1F783E1E8EAF1E0DE015696019045
:102140000D928A95E1F783E1EBEBF1E0DE019996E0
:1021500001900D928A95E1F7AE014F5F5F4F61E00C
:1021600081E00E9412040F2EFCE08F2E912CF02DA6
:10217000E12CF12C2E012CE3420E511C68964FAE3F
:10218000689769965FAE69970F2EF0E62F2EF0E004
:102190003F2EF02D6894662462F8712C81E090E067
:1021A000062C02C0880F991F0A94E2F788BB8BBBEC
:1021B000C30184549F4F6C01510100E010E086B3CD
:1021C00090E0002E02C0959587950A94E2F780FF73
:1021D00043C0F6018081833499F41CAE0E9414033D
:1021E00068964FAD689769965FAD699761E081E049
:1021F0000E94120488248394912CE12CF12C22C09B
:102200008D3309F4DFC0F201EE0DFF1D8083FFEF77
:10221000EF1AFF0AF201EE0DFF1D108268964FAD16
:10222000689769965FAD6997682D81E00E941204F6
:1022300024E1E216F10431F48CE0880E911C1CAE0E
:10224000E12CF12C9FEFE4E3FCE09150E040F04002
:10225000E1F700C0000066C089B390E0002E02C024
:10226000959587950A94E2F780FF5CC0F50180811F
:102270008C3349F5E114F10451F4FFEF24E38CE0D1
:10228000F15020408040E1F700C000004BC091E0D9
:10229000E91AF108F201EE0DFF1D6B96FFAFEEAFEC
:1022A0006B9720E2208368964FAD689769965FAD83
:1022B0006997682D81E00E9412046B96EEADFFAD28
:1022C0006B97108212C0A501B70168968FAD689711
:1022D00069969FAD69970E943308F2010190002032
:1022E000E9F731977F01E418F50868964FAD6897D4
:1022F00069965FAD6997682D81E00E941204F4E150
:10230000EF16F10431F42CE0820E911C1CAEE12C8E
:10231000F12C8FEF94E3ECE081509040E040E1F746
:1023200000C000000F5F1F4FF8E1AF0EB11C24E0AA
:10233000C20ED11C0430110509F041CF8FE19EE49B
:102340000197F1F700C000009FEF691A790AE6E0F3
:102350002E0E311CF8E06F16710409F01FCF14CF58
:1023600044E050E0CB01042E02C0880F991F0A946C
:10237000E2F788BBFA01E454FF4F20E030E086B377
:1023800090E0022E02C0959587950A94E2F780FFAF
:1023900003C080818D3361F02F5F3F4F349624302E
:1023A000310569F74F5F5F4F48305105D9F6D8CFF7
:1023B0002FEF84E39CE0215080409040E1F700C083
:1023C00000004EC0EFE1FEE43197F1F700C00000DD
:1023D0000E941403AE014A5E5F4F61E081E00E94FB
:1023E00012048CE090E00E9483096B017C010E9442
:1023F0001403AE01475D5F4F61E081E00E9412046B
:102400008CE090E00E9483098B019C01B701A6013A
:10241000CE01CC960E94AC0F6B017C0186E0EEEC05
:10242000F1E0DE01AF5ABF4F01900D928A95E1F7BE
:1024300061E070E0CE018F5A9F4F0E949A0A8E0190
:10244000045C1F4F22E041E0C701B6010E94A020BA
:102450006CE070E0C8010E949A0A61E070E080CFF1
:10246000C65ADF4F0FB6F894DEBF0FBECDBFDF9167
:10247000CF911F910F91FF90EF90DF90CF90BF9081
:10248000AF909F908F907F906F905F904F903F9014
:102490002F9008952F923F924F925F926F927F926A
:1024A0008F929F92AF92BF92CF92DF92EF92FF9264
:1024B0000F931F93CF93DF93EC016B010E941403E2
:1024C0002FEF81EE94E0215080409040E1F700C072
:1024D0000000AE0161E081E00E941204EFEFF1EE36
:1024E00024E0E150F0402040E1F700C000000F2E52
:1024F000FCE04F2E512CF02D00E010E0222423941C
:10250000312C0F2EF0E66F2EF0E07F2EF02D689428
:10251000AA24A2F8B12CC1010A2C02C0880F991F6D
:102520000A94E2F788BB8BBBC50184549F4F4C01D2
:102530007301C0E0D0E086B390E00C2E02C0959508
:1025400087950A94E2F780FF39C0F40180818334D3
:1025500079F4F60110820E941403A60161E081E083
:102560000E94120444244394512C00E010E01CC04B
:102570008D3309F492C0F601E00FF11F80830F5FE5
:102580001F4FF601E00FF11F1082A601642D81E0BC
:102590000E9412040431110539F4FCE04F0E511C65
:1025A000F601108200E010E0FFEF24E38CE0F15030
:1025B00020408040E1F700C0000052C089B390E0A5
:1025C0000C2E02C0959587950A94E2F780FF48C0CB
:1025D000F70180818C33F9F40115110551F4FFEFF7
:1025E00024E38CE0F15020408040E1F700C000007F
:1025F00037C0F601E00FF11F319790E29083A601FA
:10260000642D81E00E94120401501109F601E00FCF
:10261000F11F10820DC0A701B801C6010E94330846
:10262000F60101900020E9F731978F010C191D097F
:10263000A601642D81E00E9412040431110539F4D1
:10264000ECE04E0E511CF601108200E010E0FFEFAE
:1026500024E38CE0F15020408040E1F700C000000E
:10266000219698E1E90EF11CE4E08E0E911CC43035
:10267000D10509F060CF8FE19EE40197F1F700C02A
:1026800000009FEFA91AB90AE6E06E0E711CF8E08F
:10269000AF16B10409F03FCF34CFDF91CF911F9136
:1026A0000F91FF90EF90DF90CF90BF90AF909F90F1
:1026B0008F907F906F905F904F903F902F900895F4
:1026C0002F923F924F925F926F927F928F929F9242
:1026D000AF92BF92CF92DF92EF92FF920F931F9330
:1026E000CF93DF93CDB7DEB7C257D1090FB6F894B9
:1026F000DEBF0FBECDBF88E0E4EDF1E0DE01119654
:1027000001900D928A95E1F7BE01675F7F4FCE0180
:1027100001960E944A1288E0ECEDF1E0DE0111968C
:1027200001900D928A95E1F7BE016D5E7F4FCE015B
:1027300001960E944A12BE016D5E7F4F8EEA92E0C2
:102740000E94F30762966FAF629763967FAF6397BD
:1027500064968FAF6497192F88E0E4EEF1E0DE0114
:10276000119601900D928A95E1F7BE016D5E7F4F43
:10277000CE0101960E944A12BE016D5E7F4F8EEA25
:1027800092E00E94F307662E772E882E992E262F30
:10279000372F482F592F62966FAD629763967FADA2
:1027A000639764968FAD6497912F0E94431E18160D
:1027B000C4F462963FAD629763962FAD63976496BB
:1027C0009FAD6497812F62966FAE629763967FAEDE
:1027D000639764968FAE6497192D632E722E892E9F
:1027E000982E2E012DE1420E511C120180E3280E7D
:1027F000311C72016296DFAC62976396CFAC63972F
:102800006496BFAC6497A12E66965FAE4EAE669797
:10281000562C472C712E2E968FAE2E97692C1B2D81
:102820000A2D4D2D5C2D612F702FCE0109960E942F
:102830004708F70161937193819391937F016296A9
:102840002FAD629763963FAD639764964FAD6497E3
:10285000572D652D742D2E968FAD2E97962D0E9497
:10286000831B4B015C0120E030E040E351E40E9417
:10287000151C9B01AC016D2D7C2D812F902F0E948A
:10288000841BD62EC72E182F092F2E143F0449F66D
:10289000A8968CAE9DAEAEAEBFAEA89766964EAC77
:1028A0005FAC6697172D6201612C712C6D961FAE7F
:1028B0006D97A1961FAEA197AA961FAEAA97AB9649
:1028C0001FAEAB9761961CAE1DAE1EAE1FAE6197DC
:1028D000AC961FAEAC97AD961FAEAD97AE961FAE41
:1028E000AE97AF961FAEAF9700E065961FAE6597A7
:1028F00069961FAE6997A9961FAEA997E1963FAE5C
:102900002EAEE197E3965FAE4EAEE397512E302E9A
:10291000B301072C000C880B990B0E94F91CA89698
:102920002CAD3DAD4EAD5FADA8970E94161F20E0C7
:1029300030E040E351E40E94151C62962FAD62978F
:1029400063963FAD639764964FAD6497552D0E9493
:10295000841B062F172FF82EE92E232D65963FADE9
:10296000659769964FAD6997A9965FADA9970E9443
:10297000431E181654F4302E65961FAF659769965E
:10298000FFAE6997A996EFAEA997F6018190919055
:10299000A190B1906F01AC962FADAC97AD963FADC5
:1029A000AD97AE964FADAE97AF965FADAF97C50101
:1029B000B4010E94431E181664F4AC968FAEAC9717
:1029C000AD969FAEAD97AE96AFAEAE97AF96BFAE9B
:1029D000AF9761962CAD3DAD4EAD5FAD6197602F69
:1029E000712F8F2D9E2D0E940B1C882354F4802F55
:1029F000912FAF2DBE2D61968CAF9DAFAEAFBFAF07
:102A000061976D962FAD6D97A1963FADA197AA9650
:102A10004FADAA97AB965FADAB97C501B4010E94CD
:102A20000B1C882364F46D968FAE6D97A1969FAEB4
:102A3000A197AA96AFAEAA97AB96BFAEAB97FFEFA2
:102A40006F1A7F0A2CE06216710409F061CF152D10
:102A5000E3964EAC5FACE397032DE1962EAC3FAC12
:102A6000E19772016D96DFAC6D97A196CFACA197FF
:102A7000AA96BFACAA97AB96AFACAB972D2D3C2DC9
:102A80004B2D5A2DF70160817181828193810E94C3
:102A9000831BF70161937193819391937F012E16AC
:102AA0003F0661F761962CAD3DAD4EAD5FAD6197D0
:102AB000602F65967FAD659769968FAD6997A996EA
:102AC0009FADA9970E94831B9B01AC0160E070E061
:102AD00080EF92E40E94151C68966CAF7DAF8EAFBC
:102AE0009FAF68976D962FAD6D97A1963FADA1975B
:102AF000AA964FADAA97AB965FADAB97AC966FAD6C
:102B0000AC97AD967FADAD97AE968FADAE97AF96C5
:102B10009FADAF970E94831B9B01AC0160E070E00A
:102B200080E792E40E94151C6C966CAF7DAF8EAF6F
:102B30009FAF6C970E941403FFEF24E38CE0F150E9
:102B400020408040E1F700C0000068962CAD3DAD0C
:102B50004EAD5FAD689761966CAD7DAD8EAD9FADAE
:102B6000619790580E94161F0E94D31F0E94C11C9B
:102B7000F62E00E041E0602F8F2D0E949E020F5F35
:102B80000034C1F76C962CAD3DAD4EAD5FAD6C978A
:102B90006D966FAD6D97A1967FADA197AA968FADFB
:102BA000AA97AB969FADAB970E94161F0E94D31FAA
:102BB00020E030E04CE752E40E94841B0E94C11CDC
:102BC000F62E00E041E06F2D802F0E949E020F5FE5
:102BD0000038C1F722242394312C712EF201248174
:102BE0003581468157816C966CAD7DAD8EAD9FADC4
:102BF0006C970E94161F0E94D31FA0966CAF7DAFEA
:102C00008EAF9FAFA097B101032C000C880B990BDE
:102C10000E94F91CA8962CAD3DAD4EAD5FADA897B6
:102C20000E94161F20E030E040E351E40E94151C92
:102C300062962FAD629763963FAD639764964FADF2
:102C40006497572D0E94841B61962CAD3DAD4EAD0F
:102C50005FAD61970E94831B68962CAD3DAD4EAD74
:102C60005FAD68970E94161F0E94D31FA4966CAF99
:102C70007DAF8EAF9FAFA497F20120813181428159
:102C80005381F4E04F0E511C6C966CAD7DAD8EAD52
:102C90009FAD6C970E94161F0E94D31F4B015C01D1
:102CA000B10161507109072E000C880B990B0E942D
:102CB000F91CA8962CAD3DAD4EAD5FADA8970E9416
:102CC000161F20E030E040E351E40E94151C62969C
:102CD0002FAD629763963FAD639764964FAD64974F
:102CE000572D0E94841B61962CAD3DAD4EAD5FAD5E
:102CF00061970E94831B68962CAD3DAD4EAD5FADD4
:102D000068970E94161F0E94D31F6B017C01A0963A
:102D10002CAD3DAD4EAD5FADA09760E070E08CE7AF
:102D200092E40E94831B0E94C81C162FA4966CADCF
:102D30007DAD8EAD9FADA4970E94C81C662EA501E7
:102D4000940160E070E08CE792E40E94831B0E9493
:102D5000C81CB62EC701B6010E94C81C862F01E010
:102D6000212F462D6B2D0E945F032FE788E391E012
:102D7000215080409040E1F700C00000EFEF2E1A94
:102D80003E0AFCE02F16310409F028CFCE58DF4F61
:102D90000FB6F894DEBF0FBECDBFDF91CF911F916C
:102DA0000F91FF90EF90DF90CF90BF90AF909F90EA
:102DB0008F907F906F905F904F903F902F900895ED
:102DC0008F929F92AF92BF92CF92DF92EF92FF923B
:102DD000CF93DF93EC016A017B012DEB37E346E8EB
:102DE00055E3C701B6010E94841BAB01BC01CE01B3
:102DF0000E9447084B015C012DEB37E346E855E3A1
:102E0000C701B6010E94831BAB01BC01CE010E9429
:102E100047089B01AC01C501B4010E94831B2DEB47
:102E200037E346E056E30E94151CDF91CF91FF90F7
:102E3000EF90DF90CF90BF90AF909F908F900895CC
:102E40008F929F92AF92BF92CF92DF92EF92FF92BA
:102E50000F931F93CF93DF938C01E42EF52ED62E84
:102E6000C72EC9E2D0E04E2D5F2D6D2D7C2DC801FF
:102E70000E9447084B015C014E2D5F2D6D2D7C2D6E
:102E8000C8010E94E0169B01AC01C501B4010E947B
:102E9000151C9B01AC016E2D7F2D8D2D9C2D0E944C
:102EA000831B282F220F292F221F2F3F31F021971C
:102EB000E62EF72ED82EC92EB1F66E2D7F2D8D2D34
:102EC0009C2DDF91CF911F910F91FF90EF90DF909C
:102ED000CF90BF90AF909F908F9008952F923F9288
:102EE0004F925F926F927F928F929F92AF92BF921A
:102EF000CF92DF92EF92FF920F931F93CF93DF93C6
:102F0000CDB7DEB7C055D1090FB6F894DEBF0FBEFE
:102F1000CDBF0E94140385E1ECEEF1E0DE011196D5
:102F200001900D928A95E1F78DE1E1E0F2E0DE019A
:102F3000569601900D928A95E1F7AE014F5F5F4F73
:102F400061E081E00E9412040F2EFCE08F2E912C94
:102F5000F02DE12CF12C2E0123E3420E511C2E9674
:102F60004FAE2E972F965FAE2F970F2EF0E62F2E97
:102F7000F0E03F2EF02D6894662462F8712C81E019
:102F800090E0062C02C0880F991F0A94E2F788BBD4
:102F90008BBBC30184549F4F6C01510100E010E0D2
:102FA00086B390E0002E02C0959587950A94E2F7CB
:102FB00080FF43C0F6018081833499F41BAA0E94EC
:102FC00014032E964FAD2E972F965FAD2F9761E08D
:102FD00081E00E94120488248394912CE12CF12C2E
:102FE00022C08D3309F4DFC0F201EE0DFF1D808396
:102FF000FFEFEF1AFF0AF201EE0DFF1D10822E9671
:103000004FAD2E972F965FAD2F97682D81E00E94D0
:10301000120424E1E216F10431F48CE0880E911CD4
:103020001BAAE12CF12C9FEFE4E3FCE09150E0407F
:10303000F040E1F700C0000066C089B390E0002EC8
:1030400002C0959587950A94E2F780FF5CC0F50170
:1030500080818C3349F5E114F10451F4FFEF24E34E
:103060008CE0F15020408040E1F700C000004BC0F0
:1030700091E0E91AF108F201EE0DFF1D6196FFAF34
:10308000EEAF619720E220832E964FAD2E972F96BC
:103090005FAD2F97682D81E00E9412046196EEAD1E
:1030A000FFAD6197108212C0A501B7012E968FADBA
:1030B0002E972F969FAD2F970E943308F201019013
:1030C0000020E9F731977F01E418F5082E964FADFF
:1030D0002E972F965FAD2F97682D81E00E941204E6
:1030E000F4E1EF16F10431F42CE0820E911C1BAADE
:1030F000E12CF12C8FEF94E3ECE081509040E04024
:10310000E1F700C000000F5F1F4FF8E1AF0EB11CE8
:1031100024E0C20ED11C0430110509F041CF8FE12B
:103120009EE40197F1F700C000009FEF691A790A49
:10313000E6E02E0E311CF8E06F16710409F01FCF87
:1031400014CF44E050E0CB01042E02C0880F991F39
:103150000A94E2F788BBFA01E454FF4F20E030E024
:1031600086B390E0022E02C0959587950A94E2F707
:1031700080FF03C080818D3361F02F5F3F4F349615
:103180002430310569F74F5F5F4F48305105D9F65C
:10319000D8CF2FEF84E39CE0215080409040E1F7AE
:1031A00000C0000040C0EFE1FEE43197F1F700C03D
:1031B00000000E94140361E070E0CE0146960E9478
:1031C0009A0A88E190E00E9483096B017C010E94C9
:1031D0001403B701A601CE01C3960E9420176B010C
:1031E0007C0186E0EEECF1E0DE01A95BBF4F0190CF
:1031F0000D928A95E1F761E070E0CE01895B9F4F07
:103200000E949A0A8E010D5C1F4F22E041E0C70127
:10321000B6010E94A0206CE070E0C8010E949A0AEA
:1032200061E070E08ECFC05BDF4F0FB6F894DEBF79
:103230000FBECDBFDF91CF911F910F91FF90EF9007
:10324000DF90CF90BF90AF909F908F907F906F90C6
:103250005F904F903F902F9008952F923F924F9202
:103260005F926F927F928F929F92AF92BF92CF9216
:10327000DF92EF92FF920F931F93CF93DF93CDB71F
:10328000DEB768970FB6F894DEBF0FBECDBF0E94C1
:10329000140388248394912CE12CF12C9E012F5F40
:1032A0003F4F29012D8B5E8A0F2EF0E62F2EF0E086
:1032B0003F2EF02D6894662462F8712C81E090E036
:1032C000062C02C0880F991F0A94E2F788BB8BBBBB
:1032D000C30184549F4F6C01510100E010E086B39C
:1032E00090E0002E02C0959587950A94E2F780FF42
:1032F0006BC0F6018081833479F419820E94140333
:103300004D895E8961E081E00E94120488248394E3
:10331000912CE12CF12C4EC08D3389F5BE016F5FED
:103320007F4F8EEA92E00E94F307FFEF20E732E042
:10333000F15020403040E1F700C000008E010F5FE7
:103340001F4F22E041E00E94A0204FEF80E792E073
:10335000415080409040E1F700C000000E941403FB
:10336000EFEFF0E722E0E150F0402040E1F700C04D
:103370000000A80161E081E00E9412049AC0F201FD
:10338000EE0DFF1D80833FEFE31AF30AF201EE0D0D
:10339000FF1D10824D895E89682D81E00E94120414
:1033A00044E1E416F10431F48CE0880E911C19829A
:1033B000E12CF12C9FEFE4E3FCE09150E040F04081
:1033C000E1F700C0000057C089B390E0002E02C0B2
:1033D000959587950A94E2F780FF4DC0F5018081AD
:1033E0008C3311F5E114F10451F4FFEF24E33CE0D8
:1033F000F15020403040E1F700C000003CC041E007
:10340000E41AF108C2018E0D9F1D988F8F8B20E268
:10341000FC0120834D895E89682D81E00E941204A1
:10342000EF89F88D10820EC0A501B7018D899E89A4
:103430000E943308F20101900020E9F731977F01E3
:10344000E418F5084D895E89682D81E00E94120418
:10345000F4E1EF16F10431F42CE0820E911C198294
:10346000E12CF12C3FEF44E38CE0315040408040B0
:10347000E1F700C000000F5F1F4F98E1A90EB11CDB
:10348000E4E0CE0ED11C0430110509F028CF8FE105
:103490009EE40197F1F700C000009FEF691A790AD6
:1034A000E6E02E0E311CF8E06F16710409F006CF2D
:1034B000FBCE68960FB6F894DEBF0FBECDBFDF918E
:1034C000CF911F910F91FF90EF90DF90CF90BF9021
:1034D000AF909F908F907F906F905F904F903F90B4
:1034E0002F9008954EE152E061E081E00E941204C5
:1034F0004BE252E06CE081E00E9412044FE352E0A4
:1035000068E181E00E94120440E552E064E281E05B
:103510000E9412044EE552E060E381E00E94120432
:103520000895CF93A1E0B0E064E070E0CD01062EF5
:1035300002C0880F991F0A94E2F788BBCB01049759
:10354000FC01E054FF4F20E030E0C82F592F86B334
:1035500090E0022E02C0959587950A94E2F780FFCD
:1035600023C08C2F952F408141534530A0F44FEF5D
:1035700054E36CE0415050406040E1F700C000006F
:10358000220F331F220F331F20543F4FF901E80F42
:10359000F91F80811CC08FEF94E34CE08150904074
:1035A0004040E1F700C000002F5F3F4F34962430C9
:1035B000310569F68FE19EE40197F1F700C0000044
:1035C0006F5F7F4F6830710509F0B0CFADCFCF91FD
:1035D00008950E9463028FEF87BB8ABBC1E0D0E0F1
:1035E000FF24F394E12C1F2D0E2D0E9414030E9442
:1035F000721A0E94911A813319F40E942D1916C073
:10360000823319F40E94990D11C0833319F40E947A
:103610006E170CC0843319F40E94741007C08533F0
:1036200029F40E94601302C09923F9F244E050E0AB
:1036300002C09923D1F2CE01042E02C0880F991F37
:103640000A94E2F788BBFA01E454FF4F20E030E02F
:1036500003C03496833499F186B390E0022E02C001
:10366000959587950A94E2F780FF23C08081912F7A
:10367000833409F4902F6FEF74E3ACE06150704035
:10368000A040E1F700C000002F5F3F4F243031051C
:1036900001F701C09F2DEFE1FEE43197F1F700C083
:1036A00000004F5F5F4F4830510519F6BDCF34968B
:1036B000D3CF2F5F3F4F24303105C9F7EBCF8FE1D8
:1036C0009EE40197F1F700C000004F5F5F4F483064
:1036D000510509F48ACF9E2DACCF8EEA92E00E946C
:1036E0003A0408959F939F770E94341D0F90002005
:1036F00042F49058A2EA2AED3FE049E450E40E94E7
:103700009B1B0C94F51D5058BB27AA270E949B1B9E
:103710000C94F51D0E94BC1D38F00E94C31D20F0C2
:1037200039F49F3F19F426F40C947E1D0EF4E095B5
:10373000E7FB0C94781DE92F0E941A1E58F3BA1764
:10374000620773078407950720F079F4A6F50C94B7
:103750003C1E0EF4E0950B2EBA2FA02D0B01B901E3
:1037600090010C01CA01A0011124FF27591B99F0F7
:10377000593F50F4503E68F11A16F040A22F232F03
:10378000342F4427585FF3CF469537952795A79553
:10379000F0405395C9F77EF41F16BA0B620B730BFA
:1037A000840BBAF09150A1F0FF0FBB1F661F771F6B
:1037B000881FC2F70EC0BA0F621F731F841F48F420
:1037C000879577956795B795F7959E3F08F0B0CFA9
:1037D0009395880F08F09927EE0F97958795089590
:1037E0009F939F77EEE389379E0728F4E4E5F0E0A6
:1037F0000E94A81D0CC00E94341D9058A2EA2AED18
:103800003FE049EC5FE30E949B1B0E94F51D0F9077
:1038100007FC905808950E94541D08F481E0089513
:103820000E94CC1DE3950C94061E0E94291C0C944A
:10383000F51D0E94C31D58F00E94BC1D40F029F4E4
:103840005F3F29F00C94781D51110C943D1E0C948F
:103850007E1D0E941A1E68F39923B1F3552391F33C
:10386000951B550BBB27AA2762177307840738F0EF
:103870009F5F5F4F220F331F441FAA1FA9F335D04C
:103880000E2E3AF0E0E832D091505040E695001C00
:10389000CAF72BD0FE2F29D0660F771F881FBB1FBA
:1038A000261737074807AB07B0E809F0BB0B802D98
:1038B000BF01FF2793585F4F3AF09E3F510578F0C4
:1038C0000C94781D0C943D1E5F3FE4F3983ED4F3B6
:1038D000869577956795B795F7959F5FC9F7880F98
:1038E000911D9695879597F90895E1E0660F771FEA
:1038F000881FBB1F621773078407BA0720F0621B7B
:10390000730B840BBA0BEE1F88F7E095089529F42A
:1039100016F00C94781D0C943C1E0C947E1D0E9495
:10392000221EA8F39638A0F707F80F92E8942BE32D
:103930003AEA48EB5FE70E942C1F0F920F920F921A
:103940004DB75EB70F920E94E21EE8E6F0E00E94DB
:10395000811D4F915F91EF91FF91E595EE1FFF1F44
:1039600049F0FE57E0684427EE0F441FFA95E1F74F
:103970004195550B0E94541E0F9007FE0C94481E53
:1039800008950E94C81C6894B1110C943D1E0895BE
:103990000E94221E88F09F5798F0B92F9927B7519F
:1039A000B0F0E1F0660F771F881F991F1AF0BA95E3
:1039B000C9F714C0B13091F00E943C1EB1E00895E7
:1039C0000C943C1E672F782F8827B85F39F0B93FD9
:1039D000CCF3869577956795B395D9F73EF4909596
:1039E0008095709561957F4F8F4F9F4F0895E89414
:1039F00009C097FB3EF490958095709561957F4F37
:103A00008F4F9F4F9923A9F0F92F96E9BB279395E4
:103A1000F695879577956795B795F111F8CFFAF4F4
:103A2000BB0F11F460FF1BC06F5F7F4F8F4F9F4F25
:103A300016C0882311F096E911C0772321F09EE883
:103A4000872F762F05C0662371F096E8862F70E0E9
:103A500060E02AF09A95660F771F881FDAF7880FC3
:103A60009695879597F90895DF93CF931F930F93BA
:103A70008B01EC01E0E9F0E00E94811D0E94F51D40
:103A80009801AE018B01EC0160E070E080E89FE3FB
:103A90000E94831B0E9405209801AE010F911F9187
:103AA000CF91DF910C94291F990F0008550FAA0B95
:103AB000E0E8FEEF16161706E807F907C0F0121641
:103AC0001306E407F50798F0621B730B840B950B44
:103AD00039F40A2661F0232B242B252B21F4089599
:103AE0000A2609F4A140A6958FEF811D811D089536
:103AF00097F99F6780E870E060E008959FEF80ECA1
:103B00000895DF93CF931F930F93FF92EF92DF926D
:103B10007B018C01689406C0DA2EEF010E94291FF8
:103B2000FE01E894A5912591359145915591A6F313
:103B3000EF010E949B1BFE019701A801DA9469F72F
:103B4000DF90EF90FF900F911F91CF91DF9108953B
:103B50009F938F937F936F93FF93EF939B01AC01A0
:103B60000E94161FEF91FF910E94811D2F913F919E
:103B70004F915F910C94161F00240A941616170695
:103B800018060906089500240A941216130614064E
:103B9000050608950C947E1D0E94221ED8F3E89419
:103BA000E0E0BB279F57F0F02AED3FE049EC06C06C
:103BB000EE0FBB0F661F771F881F28F0B23A62070F
:103BC0007307840728F0B25A620B730B840BE395DA
:103BD0009A9572F7803830F49A95BB0F661F771F5D
:103BE000881FD2F790480C948720092E0394000C6C
:103BF00011F4882352F0BB0F40F4BF2B11F460FF87
:103C000004C06F5F7F4F8F4F9F4F0895EF93E0FF8A
:103C100007C0A2EA2AED3FE049EC5FEB0E949B1B44
:103C20000E94F51D0F90039401FC9058E8EBF0E022
:103C30000C94A81D57FD9058440F551F59F05F3F35
:103C400071F04795880F97FB991F61F09F3F79F0BE
:103C500087950895121613061406551FF2CF469540
:103C6000F1DF08C0161617061806991FF1CF8695C2
:103C70007105610508940895E894BB2766277727A6
:103C8000CB0197F908950E94541D08F48FEF089511
:103C90009B01AC0160E070E080E89FE30C94151C90
:103CA0000C94781D0C9485200E94221ED8F3992331
:103CB000C9F3940F511DA3F39150504094F059F063
:103CC000882332F0660F771F881F91505040C1F74C
:103CD0009E3F51052CF7880F911D9695879597F972
:103CE00008955F3FACF0983E9CF0BB278695779592
:103CF0006795B79508F4B1609395C1F7BB0F58F776
:103D000011F460FFE8CF6F5F7F4F8F4F9F4FE3CF7E
:103D10000C943D1E0E949A1E29ED3BE54EED5EE39C
:103D20000C94161F16F00C9485200C947E1D68943C
:103D30000C94781D0E94221EA8F39923C1F3AEF3C0
:103D4000DF93CF931F930F93FF92C92FDD27882313
:103D50002AF02197660F771F881FDAF720E030E0FE
:103D600040E85FEB9FE3883920F0803E38F02196F1
:103D70008F770E94841BE6EDF0E004C00E94841B54
:103D8000E3E0F1E00E94811D8B01BE01EC01FB2EFE
:103D90006F5771097595771F880B990B0E94F91C55
:103DA00028E132E741E35FE30E94291FAF2D98012C
:103DB000AE01FF900F911F91CF91DF910E949B1B4D
:103DC0000C94F51DFA01DC01AA0FBB1F9B01AC018D
:103DD000BF5728F4222733274427507820C0B751F3
:103DE00090F4AB2F0024469537952795011CA39599
:103DF000D2F3002071F0220F331F441FB395DAF382
:103E00000ED00C94831B61307105A0E88A07B94677
:103E100030F49B01AC01662777278827907830968D
:103E200021F0208331834283538308950E94291F08
:103E30000C94F51D0E94BC1D38F00E94C31D20F09B
:103E4000952311F00C94781D0C947E1D11240C9474
:103E50003D1E0E941A1E70F3959FC1F3950F50E00E
:103E6000551F629FF001729FBB27F00DB11D639F2C
:103E7000AA27F00DB11DAA1F649F6627B00DA11DD2
:103E8000661F829F2227B00DA11D621F739FB00D78
:103E9000A11D621F839FA00D611D221F749F3327E8
:103EA000A00D611D231F849F600D211D822F762F81
:103EB0006A2F11249F5750409AF0F1F088234AF05E
:103EC000EE0FFF1FBB1F661F771F881F91505040CA
:103ED000A9F79E3F510580F00C94781D0C943D1E6F
:103EE0005F3FE4F3983ED4F3869577956795B79551
:103EF000F795E7959F5FC1F7FE2B880F911D96956B
:103F0000879597F90895FA01EE0FFF1F3096210566
:103F10003105A1F16115710561F48038BFE39B079C
:103F200049F168949038810561F08038BFEF9B07B4
:103F300041F099234AF5FF3FE1053105210519F1CB
:103F4000E8940894E795D901AA2329F4AB2FBE2F52
:103F5000F85FD0F310C0FF5F70F4A695E0F7F73973
:103F600050F019F0FF3A38F49F779F930DD00F90DF
:103F700007FC9058089546F00C947E1D60E070E0B8
:103F800080E89FE308954FE79F775F934F933F93B8
:103F90002F930E949A1E2F913F914F915F910E9403
:103FA000161F0C948F1C0E94221EE8F09E37E8F02A
:103FB0009639B8F49E3848F4672F782F8827985F91
:103FC000F9CF86957795679593959539D0F3B62F68
:103FD000B1706B0F711D811D20F4879577956795E2
:103FE00093950C946A200C9485200C943D1E9F930D
:103FF0000E94CC1D0F9007FCEE5F0C94061E19F476
:1040000016F40C947E1D0C9485200E94221EB8F399
:104010009923C9F3B6F39F57550B87FF0E9493204E
:104020000024A0E640EA900180585695979528F420
:10403000805C660F771F881F20F026173707480718
:1040400030F4621B730B840B202931294A2BA6956F
:1040500017940794202531254A2758F7660F771FB4
:10406000881F20F026173707480730F4620B730BC0
:10407000840B200D311D411DA09581F7B901842FBE
:104080009158880F969587950895DF93D92F0E94B0
:10409000CC1DE695D7952AED3FE049E45FE3B33ABE
:1040A0006207730784079507D7953AF0A2EA49ECAF
:1040B00090680E949B1B0E94F51DE0E3F1E00E94C6
:1040C000A81DDD0F13F00E94481EDD0F0BF4905861
:1040D000DF910895882371F4772321F09850872B7E
:1040E000762F07C0662311F499270DC09051862BB7
:1040F00070E060E02AF09A95660F771F881FDAF764
:10410000880F9695879597F908959F3F31F09150C4
:1041100020F4879577956795B795880F911D9695AB
:10412000879597F9089591505040660F771F881F23
:10413000D2F70895EE0FFF1F0590F491E02D09943A
:10414000EF920F931F93CF93DF93E80147FD02C0D7
:1041500034E001C034E1042E000C550B57FF03C0BE
:10416000519541955109E32E022F242FAE010E9453
:104170000621CE01DF91CF911F910F91EF9008950D
:10418000662777270C94602285FD0C948624806234
:1041900091110C94862481568A51D8F70895911173
:1041A0000C948624803219F089508550C8F7089500
:1041B0009111089581568A5108F4805285580895C6
:1041C000FB01DC010D900020E9F7119701900D92A1
:1041D0000020E1F70895FC018191861721F08823E2
:1041E000D9F7992708953197CF010895FB01DC0194
:1041F0008D91019080190110D9F3990B0895FB015D
:10420000DC0101900D920020E1F70895A9E0B0E0F3
:10421000ECE0F1E20C94B2246A01122FB02E2BE3F1
:10422000201720F0FF24F394F00E02C02CE3F22EAE
:104230000F2D27E0AE014F5F5F4F0E94AE23BC0100
:104240004981842F8970813031F0E1FC06C0E0FEA5
:1042500006C090E205C09DE203C09BE201C090E071
:104260005E2D507143FF3CC0911102C083E001C03C
:1042700084E0811718F4212F281B01C020E0511180
:104280000BC0F601822F30E2882319F03193815060
:10429000FBCFC20ED11C20E0992329F0D6019C93BC
:1042A000F60131966F01C6010396E2FE0AC03EE4B4
:1042B000D6013C9341E411964C93119712963C938E
:1042C00006C03EE6F601308341E641833283FC01BD
:1042D000322F40E2332309F442C041933150FACFE8
:1042E00042FF44C0911102C083E001C084E0811705
:1042F00018F4212F281B01C020E051110BC0F6013A
:10430000822F30E2882319F031938150FBCFC20E07
:10431000D11C20E0992329F0D6019C93F601319617
:104320006F01C6010396E2FE0BC039E4D6013C934F
:104330003EE411963C93119736E412963C9307C0E5
:1043400039E6F60130833EE6318336E63283FC01FE
:10435000322F40E2332319F041933150FBCFFC015F
:10436000E20FF11D10828EEF9FEFA6C021E030E03A
:10437000911102C020E030E0161617061CF4FB0174
:10438000319602C0E1E0F0E02E0F3F1FBB2021F08C
:10439000EB2DF0E0319602C0E0E0F0E02E0F3F1F81
:1043A000E12FF0E02E173F071CF4121B212F01C054
:1043B00020E08E2D887159F4F601822F30E2882397
:1043C00019F031938150FBCFC20ED11C20E099230C
:1043D00029F0D6019C93F60131966F0151110BC063
:1043E000F601822F90E3882319F091938150FBCF3F
:1043F000C20ED11C20E00F2D060F9A81342F307190
:1044000044FF03C0913309F40150101624F409301D
:1044100018F008E001C001E0AB0177FF02C040E006
:1044200050E0FB01E41BF50BA1E0B0E0AC0FBD1FB9
:10443000EA0FFB1F8EE2A82E4B01801A91080B2D6C
:1044400010E01195019511094F3FBFEF5B0721F473
:10445000D601AC9211966D01641775072CF0841685
:10446000950614F4818101C080E3415051093196D1
:10447000D60111967D014017510724F0D6018C9387
:104480006701E2CF6417750739F4963320F495334A
:1044900019F4311101C081E3F6018083F701822F05
:1044A00090E2882319F091938150FBCFF701E20F3E
:1044B000F11D108280E090E02996ECE00C94CE246F
:1044C000A0E0B0E0E6E6F2E20C94B224EC016B016D
:1044D0006115710519F0FB01918380837E01FFEF67
:1044E000EF1AFF0A0881802F90E00E94CF20892BCD
:1044F00011F0E701F3CF0D3239F47E0182E0E80ECE
:10450000F11C098111E008C00B3229F47E0192E010
:10451000E90EF11C098110E0E701219743E050E02A
:104520006CE571E0CE010E948924892BC1F42396A9
:1045300045E050E067E571E0CE010E948924892BB7
:1045400009F42596C114D10419F0F601D183C08372
:104550001111F6C060E070E080E89FE7FAC043E028
:1045600050E064E571E0CE010E948924892B59F462
:10457000C114D10409F4E9C0F2E0EF0EF11CF60118
:10458000F182E082E2C020E030E0A901C0E0D0E0AA
:10459000F70180EDA82EA00E89E08A1530F1912F49
:1045A0009260B92E812F887012FF04C0811124C03F
:1045B000219622C081112197A5E0B0E00E94A1249C
:1045C000DC01CB01880F991FAA1FBB1F9C01AD0105
:1045D0002A0D311D411D511D283989E93807480729
:1045E00089E1580748F0166006C09EEFA9120AC07C
:1045F00013FD40C01860B12E8FEFE81AF80A008151
:104600001B2DC6CF802F8F7D8534A1F580818D3203
:1046100011F4106106C08B3221F0319661E070E038
:1046200004C08181329662E070E080538A3018F0D5
:10463000E61BF70B1FC060E070E060389CE0790774
:104640005CF4DB01AA0FBB1FAA0FBB1F6A0F7B1F05
:10465000660F771F680F711D3196DF0111978C91DE
:1046600080538A3050F314FF03C07195619571092E
:10467000C60FD71F11FF08C0C114D10429F0CF0104
:104680000197F60191838083CA01B9010E94F71C4A
:10469000212F2370233019F04B015C0106C04B0120
:1046A0005C01B7FAB094B7F8B09420E030E0A9010B
:1046B000C501B4010E940B1C882309F43EC0D7FF3A
:1046C00006C0D195C195D10903E711E002C00BE8FE
:1046D00011E06801F8E1CF1AD10890E2E92EF12C3F
:1046E000CE15DF0574F0F80125913591459154916F
:1046F000C501B4010E94161F4B015C01CE19DF09F0
:10470000EFCF04501109F594E7940C151D0541F7FE
:104710008A2D880F8B2D881F8F3F49F020E030E0D5
:10472000A901C501B4010E940B1C811106C082E2DF
:1047300090E090932F0780932E07C501B40109C024
:1047400060E070E080E89FEF04C060E070E080EC23
:104750009FE7CDB7DEB7ECE00C94CE24283008F00C
:1047600027E03327DA01990F311D87FD916000960C
:104770006105710539F432602E5F3D9330E32A956F
:10478000E1F708959F3F30F080387105610509F029
:104790003C5F3C5F3D93913008F08068911DDF9352
:1047A000CF931F930F93FF92EF92192F987F9695B7
:1047B000E92F96959695E90FFF27E751FE4F992728
:1047C0003327EE24FF24A701E701059008940794FE
:1047D00028F4360FE71EF81E491F511D660F771F7C
:1047E000881F991F0694A1F70590079428F4E70EF7
:1047F000F81E491F561FC11D770F881F991F661F7E
:104800000694A1F70590079428F4F80E491F561F47
:10481000C71FD11D880F991F661F771F0694A1F728
:104820000590079420F4490F561FC71FD81F990FF2
:10483000661F771F881F0694A9F78491109517703B
:1048400041F0D695C79557954795F794E7941A95F3
:10485000C1F7EFE8F1E068941590159135916591F5
:10486000959105907FE27395E118F10A430B560B81
:10487000C90BD009C0F7E10CF11E431F561FC91F19
:10488000D01D7EF4703311F48A95E6CFE894015080
:1048900030F0080F0AF40027021708F4202F2395A0
:1048A000022F7A3328F079E37D932A95E9F710C037
:1048B0007D932A9589F60694979567953795179570
:1048C0001794E118F10A430B560BC90BD00998F065
:1048D00023957E9173957A3308F070E37C932013CF
:1048E000B8F77E9170617D9330F0839571E37D938D
:1048F00070E32A95E1F71124EF90FF900F911F913B
:10490000CF91DF91992787FD909508959927882762
:104910000895FB01DC014150504088F08D918134B5
:104920001CF08B350CF4805E659161341CF06B35A6
:104930000CF4605E861B611171F3990B0895881B5E
:10494000FCCF0E94E324A59F900DB49F900DA49FDF
:10495000800D911D112408952F923F924F925F92E6
:104960006F927F928F929F92AF92BF92CF92DF927F
:10497000EF92FF920F931F93CF93DF93CDB7DEB7E4
:10498000CA1BDB0B0FB6F894DEBF0FBECDBF099478
:104990002A88398848885F846E847D848C849B84CF
:1049A000AA84B984C884DF80EE80FD800C811B81DD
:1049B000AA81B981CE0FD11D0FB6F894DEBF0FBE0C
:1049C000CDBFED010895A29FB001B39FC001A39F89
:1049D000700D811D1124911DB29F700D811D112438
:0849E000911D0895F894FFCF2A
:1049E80073696E280000636F7328000074616E2875
:1049F80000007371727428005E00000000007800E7
:104A080000000000332E313400003C2D000000006F
:104A18006578702800002E000000000028000000C3
:104A280000002900000000006C6F672800006C6E11
:104A3800280000006173696E280061636F732800A5
:104A48003738392F3435362A3132332D43303D2B20
:104A5800496E70757420615B000000000000496EAB
:104A680070757420636F6C756D6E20645B00000058
:104A7800416E7320785B00000000000000002B2DC1
:104A88002A2F255E3D282900202B2D2F2A255E3D23
:104A98002829090D004572726F720054414E004179
:104AA80053494E0041434F53004C4E004C4F470072
:104AB800455850005351525400535152004E6F20E4
:104AC800536F6C7574696F6E2100496E66696E6903
:104AD800746520536F6C7574696F6E21004E756D27
:104AE800626572206F66205661726961626C6573D7
:104AF8002028312D37293F004E756D626572206F71
:104B080066206571756174696F6E732028312D3761
:104B1800293F00496E7075742046756E6374696F1D
:104B28006E206F6620783A00496E707574206C6F3D
:104B3800776572206C696D69743A00496E70757496
:104B4800207570706572206C696D69743A00416EE9
:104B580073203D0046287829203D20006D696E5855
:104B6800203D20006D617858203D2000496E707509
:104B780074204571756174696F6E206F6620783A8C
:104B880000496E70757420696E697469616C206182
:104B98007070726F78696D6174696F6E3A00312E4A
:104BA80043616C63756C61746F7200322E47617576
:104BB800737320456C696D696E6174696F6E00333B
:104BC8002E4E6577746F6E2052617068736F6E0039
:104BD800342E496E746567726174696F6E00352E84
:0C4BE800477261706820506C6F74000010
:00000001FF
