S01700004763634170706C69636174696F6E312E737265635B
S11300000C945B020C9483020C9483020C94830280
S11300100C9483020C9483020C9483020C94830248
S11300200C9483020C9483020C9483020C94830238
S11300300C9483020C9483020C9483020C94830228
S11300400C9483020C9483020C9483020C94830218
S11300500C948302036EDB363D9A9999993DABAAC1
S1130060AA2A3E000000803F084AD73B3BCE016EDF
S113007084BCBFFDC12F3D6C74319ABD56833DDAFB
S11300803D00C77F11BED9E4BB4C3E916BAAAABE0A
S1130090000000803F07634236B79BD8A71A39682F
S11300A05618AEBAAB558C1D3CB7CC5763BD6DED3D
S11300B0FD753EF6177231BF000000803F072C7AB1
S11300C0A5BA6CC590DA3B9365FC8BBC53F810FD64
S11300D03C5692834DBD879D3AB63DCBC9BF5BBEAE
S11300E073DA0FC93F05A84CCDB2D44EB93836A93E
S11300F0020C50B9918688083CA6AAAA2ABE000020
S113010000803F08000000BE922449123EABAAAA18
S11301102ABECDCCCC4C3E00000080BEABAAAAAA1D
S11301203E00000000BF000000803F00000000000F
S1130130084178D3BB4387D1133D190E3CC3BD425C
S113014082AD2B3E68EC8276BED98FE1A93E4C800D
S1130150EFFFBE01C4FF7F3F00000000000289885A
S1130160083CABAAAA2A3E000000803F0289880806
S11301703EABAAAAAABE000000803F0664EC1B3C6A
S113018004BC163E3BE5B93CC93C37C29E5A3D66A9
S11301900498083EEA69AAAA3E000000803F4E4146
S11301A04E494E495459494E46CDCCCC3D0AD723ED
S11301B03C17B7D13877CC2B329595E6241FB14F35
S11301C00A000020410000C84200401C4620BCBE7A
S11301D04CCA1B0E5AAEC59D7400407A10F35A00E7
S11301E0A0724E18090010A5D4E80000E87648175C
S11301F00000E40B54020000CA9A3B000000E1F541
S113020005000080969800000040420F000000A006
S11302108601000000102700000000E80300000031
S1130220006400000000000A00000000000100005B
S11302300000002C76D888DC674F0823DFC1DFAECE
S113024059E1B1B796E5E3E453C63AE65199769697
S1130250E8E6C28426EB898C9B62ED407C6FFCEF60
S1130260BC9C9F40F2BAA56FA5F490055A2AF75C8E
S1130270936B6CF9676DC11BFCE0E40D47FEF52040
S1130280E6B500D0ED902E03009435770500808408
S11302901E080000204E0A000000C80C333333331C
S11302A00F986E12831141EF8D2114893BE6551688
S11302B0CFFEE6DB18D1844B381BF77C1D901DA4C0
S11302C0BBE424203284725E228100C9F124ECA1B3
S11302D0E53D27000000000000005F00000007006B
S11302E00700147F147F14242A7F2A12231308641E
S11302F06236495522500005030000001C224100CB
S11303000041221C00082A1C2A0808083E0808008C
S113031050300000080808080800303000002010A1
S11303200804023E5149453E00427F40004261516B
S113033049462141454B311814127F102745454544
S1130340393C4A494930017109050336494949365E
S1130350064949291E0036360000005636000000C2
S11303600814224114141414144122140800020124
S1130370510906324979413E7E1111117E7F494966
S113038049363E414141227F4141221C7F4949492E
S1130390417F090901013E414151327F0808087F2C
S11303A000417F41002040413F017F081422417FEA
S11303B0404040407F0204027F7F0408107F3E419A
S11303C041413E7F090909063E4151215E7F0919D9
S11303D02946464949493101017F01013F404040D6
S11303E03F1F2040201F7F2018207F6314081463C0
S11303F00304780403615149454300007F414102ED
S11304000408102041417F0000040201020440401E
S1130410404040000102040020545454787F484472
S113042044383844444420384444487F385454546D
S113043018087E090102081454543C7F0804047807
S113044000447D40002040443D00007F10284400CB
S1130450417F40007C041804787C08040478384404
S11304604444387C14141408081414187C7C0804BC
S113047004084854545420043F4440203C40402045
S11304807C1C2040201C3C4030403C442810284424
S11304900C5050503C4464544C4400083641000015
S11304A0007F0000004136080008082A1C08081CC8
S11304B02A0808007B1D11241FBECFE5D8E0DEBF4B
S11304C0CDBF13E0A0E6B0E0ECEEF1E502C005908C
S11304D00D92A230B107D9F727E0A2E0B3E001C042
S11304E01D92A838B207E1F712E0CBE5D2E004C0D0
S11304F02197FE010E947B23CA35D107C9F70E94C8
S1130500561D0C94F4280C940000AC9AAC980895F1
S11305108FEF81BBA09AA49AA39AA29AA19AA998B0
S11305202FE788E391E0215080409040E1F700C03C
S11305300000A99A2FE788E391E021508040904081
S1130540E1F700C00000A898AB9AAA9A8FE382BB97
S11305500E94850280EC82BB0E9485022FE788E31B
S113056091E0215080409040E1F700C000002FE767
S113057088E391E0215080409040E1F700C0000002
S1130580AB98AA9808950F931F93CF93DF93C82F26
S1130590042F683068F0862F88508830E8F7162FCB
S11305A01770D8EFD60FD695D695D695DF5F02C0D3
S11305B0162FD0E0C03480F4A898AB9AAA98D770CC
S11305C08D2F886B82BB0E948502CF738C2F806431
S11305D082BB0E94850211C0C054A898AB98AA9A05
S11305E0D7708D2F886B82BB0E948502CF738C2FAE
S11305F0806482BB0E948502C05CA89A0130D1F459
S1130600EC2FF0E0EE0FFF1FEE0FFF1FEE0FFF1FAA
S1130610EE57FC4FED0FF11D81E090E002C0880F12
S1130620991F1A95E2F79081892B808382BB0E94DF
S113063085021AC0EC2FF0E081E090E002C0880F40
S1130640991F1A95E2F78095EE0FFF1FEE0FFF1F1B
S1130650EE0FFF1FEE57FC4FED0FF11D9081892324
S1130660808382BB0E948502DF91CF911F910F91FD
S11306700895FF920F931F93CF93DF9300E010E050
S1130680F12CD02FCF2DEC2FF0E0EE0FFF1FEE0F4B
S1130690FF1FEE0FFF1FEE57FC4FE00FF11F1082FC
S11306A0C03480F4A898AB9AAA98D7708D2F886B21
S11306B082BB0E948502CF738C2F806482BB0E9410
S11306C0850211C0C054A898AB98AA9AD7708D2FF0
S11306D0886B82BB0E948502CF738C2F806482BB9F
S11306E00E948502C05CA89A12BA0E948502CF5F5C
S11306F052F60F5F1F4F0830110519F6DF91CF91A5
S11307001F910F91FF9008957F928F929F92AF92C5
S1130710BF92CF92DF92EF92FF920F931F93CF93EA
S1130720DF93D82FC62F742E822EA22EB12CA61A98
S1130730B108C42ED12CC81AD108BB2034F4B1940A
S1130740A194B10899249A9402C099249394DD2029
S11307502CF4D194C194D1081FEF01C011E0AA0C6C
S1130760BB1CCC0CDD1C402F6C2F8D2F0E94C302B0
S1130770AC14BD04C4F4C601959587957501E81AB7
S1130780F90A7D1639F1FF201CF0C90DEC18FD089B
S1130790D10FEA0CFB1C402F6C2F8D2F0E94C3023B
S11307A0D711F1CF17C0C501959587957601E81A41
S11307B0F90A8C1679F0FF201CF0D10FEA18FB0817
S11307C0C90DEC0CFD1C402F6C2F8D2F0E94C30211
S11307D0C811F1CFDF91CF911F910F91FF90EF904E
S11307E0DF90CF90BF90AF909F908F907F900895AF
S11307F0CF92DF92EF92FF920F931F93CF93DF93E9
S1130800D62E4052242F30E08901000F111F000F13
S1130810111F020F131F0D521D4F0F2EF5E0CF2E87
S1130820F02DC80EE82EFD2CC0E0D0E0F801449174
S113083050E00C2E02C0559547950A94E2F741709A
S11308406F2D8E2D0E94C3022196F394C830D105DA
S113085069F70F5F1F4FE394CE10E5CFDF91CF917F
S11308601F910F91FF90EF90DF90CF900895EF923A
S1130870FF920F931F93CF93DF93FA01019000200F
S1130880E9F73197E41BF50B1E161F068CF4D62FDF
S11308908A017A01EE0EFF1EC82FF80141918F01E3
S11308A06D2F8C2F0E94F803CA5F0E151F05A9F740
S11308B0DF91CF911F910F91FF90EF900895FC016C
S11308C01182108272969C01265C3F4F1192119204
S11308D011921192E217F307C9F7FC0112AE0895C1
S11308E0AF92BF92CF92DF92EF92FF920F931F933A
S11308F0CF93DF936C01DC0151961C9251971296B1
S11309001C921297ED91FC918081882309F4A8C070
S1130910F601C081D181F8800F2D10E0C8010E943A
S1130920D124892B29F02196D601CD93DC93F0CFE5
S1130930B8018EE091E00E94ED24892B89F081E0DA
S1130940F601818B5601F3E0AF0EB11CCE01019686
S1130950D60111969C938E93888112968C936BC0CA
S11309605601B2E0AB0EB11CC8010E94C924892B08
S1130970B9F175015701F601C081D1811881612F48
S113098070E088E191E00E94ED24892B89F4112321
S113099079F0CE010196D6018D939C93888190E0E5
S11309A00E94DA24F7018083FFEFEF1AFF0AE2CFF7
S11309B0D601CD91DC911881812F90E00E94D12441
S11309C0892B29F02196F601D183C083F1CF183207
S11309D011F082E001C084E0D60151968C932BC0C3
S11309E08F2D90E0C0970A9718F0BEE2FB1223C047
S11309F075015701F601C081D1811881612F70E022
S1130A0088E191E00E94ED24892B89F4112379F087
S1130A10CE010196D6018D939C93888190E00E942B
S1130A20DA24F7018083FFEFEF1AFF0AE2CF83E0B5
S1130A30D60151968C93F5011082D60151968C9172
S1130A405197823069F413968C911397882341F05F
S1130A50DA968DE2E5E2F1E001900D928A95E1F7F4
S1130A60DF91CF911F910F91FF90EF90DF90CF9086
S1130A70BF90AF900895EF92FF920F931F93CF937F
S1130A80DF9300D000D0CDB7DEB78C017B010E948C
S1130A901908F80182818B32E1F08D32A1F5C80189
S1130AA00E947004BE016F5F7F4FC8010E94190845
S1130AB029813A814B815C81F70160817181828156
S1130AC093810E94911DF7016083718382839383D4
S1130AD0E0CFC8010E947004BE016F5F7F4FC80160
S1130AE00E94190829813A814B815C81F701608158
S1130AF07181828193810E94921DF70160837183C9
S1130B0082839383C6CF0F900F900F900F90DF9145
S1130B10CF911F910F91FF90EF900895DF92EF9284
S1130B20FF920F931F93CF93DF93CDB7DEB72F9729
S1130B300FB6F894DEBF0FBECDBF8C017B01DC0184
S1130B405196DC90B4E0DB120AC0BC016E5F7F4FAB
S1130B50CE0101960E940125C8010E947004D801AB
S1130B601296EC91E83209F0B5C1C8010E947004F4
S1130B70B701C8010E943B05F8018281893249F01E
S1130B8087E1E2E5F1E0D801DA9601900D928A95C9
S1130B90E1F7F4E0DF129AC16AE671E0CE01019652
S1130BA00E94F824892B69F4D7016D917D918D9170
S1130BB09C910E94C922F70160837183828393838D
S1130BC085C16FE671E0CE0101960E94F824892B5D
S1130BD069F4D7016D917D918D919C910E94641E61
S1130BE0F701608371838283938370C164E771E04A
S1130BF0CE0101960E94F824892B69F4D7016D91E6
S1130C007D918D919C910E944F23F70160837183A4
S1130C10828393835BC169E671E0CE0101960E94F1
S1130C20F824892B69F4D7016D917D918D919C9164
S1130C300E94FE1DF701608371838283938346C102
S1130C406EE671E0CE0101960E94F824892B69F4C6
S1130C50D7016D917D918D919C910E94801DF7012A
S1130C60608371838283938331C163E771E0CE0132
S1130C7001960E94F824892B69F4D7016D917D9126
S1130C808D919C910E94191EF70160837183828368
S1130C9093831CC169E771E0CE0101960E94F82498
S1130CA0892B69F4D7016D917D918D919C910E945E
S1130CB0A322F701608371838283938307C16FE763
S1130CC071E0CE0101960E94F824892B69F4D701C2
S1130CD06D917D918D919C910E944D1EF7016083D1
S1130CE0718382839383F2C065E871E0CE0101963B
S1130CF00E94F824892B69F4D7016D917D918D911F
S1130D009C910E941B23F7016083718382839383E8
S1130D10DDC068E771E0CE0101960E94F824892BBA
S1130D2069F4D7016D917D918D919C910E94FE1D76
S1130D30F7016083718382839383C8C06EE771E097
S1130D40CE0101960E94F824892B69F4D7016D9194
S1130D507D918D919C910E94801DF7016083718328
S1130D6082839383B3C064E871E0CE0101960E944C
S1130D70F824892B69F4D7016D917D918D919C9113
S1130D800E94191EF70160837183828393839EC03E
S1130D906AE871E0CE0101960E94F824892B69F477
S1130DA0D7016D917D918D919C910E944621F7010F
S1130DB0608371838283938389C06DE871E0CE017F
S1130DC001960E94F824892B69F4D7016D917D91D5
S1130DD08D919C910E943621F701608371838283F7
S1130DE0938374C061E971E0CE0101960E94F824F6
S1130DF0892B69F4D7016D917D918D919C910E940D
S1130E00E31EF70160837183828393835FC065E986
S1130E1071E0CE0101960E94F824892B69F4D70170
S1130E206D917D918D919C910E94D722F7016083F1
S1130E307183828393834AC06AE971E0CE0101968B
S1130E400E94F824892B79F4D7016D917D918D91BD
S1130E509C919B01AC010E94C221F70160837183C4
S1130E608283938333C06EE971E0CE0101960E94C0
S1130E70F824892B69F4D7016D917D918D919C9112
S1130E800E947F22F70160837183828393831EC053
S1130E9064EA71E0CE0101960E94F824892B69F47A
S1130EA0D7016D917D918D919C910E94881FF701CE
S1130EB0608371838283938309C081E1E8EAF1E06E
S1130EC0D801DA9601900D928A95E1F7C8010E9443
S1130ED0700435C0D80151968C91823019F083305A
S1130EE0B9F024C0F0E0E154F109EE0FFF1FEE0F5A
S1130EF0FF1FE00FF11F82899389A489B589F70147
S1130F0080839183A283B383C8010E94700417C0B5
S1130F10C80102960E94C224D7016D937D938D93DC
S1130F209C931397C8010E94700409C0D801DA96F3
S1130F308DE0E9EBF1E001900D928A95E1F72F96AF
S1130F400FB6F894DEBF0FBECDBFDF91CF911F91D6
S1130F500F91FF90EF90DF9008950F931F93CF931D
S1130F60DF93EC018B018989813019F48A818B32FA
S1130F7041F08A818D3269F0B801CE010E948E055C
S1130F8019C0CE010E947004B801CE010E948E05E2
S1130F9011C0CE010E947004B801CE010E948E05DA
S1130FA0F80180819181A281B381B05880839183BB
S1130FB0A283B383DF91CF911F910F910895EF9294
S1130FC0FF920F931F93CF93DF9300D000D0CDB740
S1130FD0DEB78C017B010E94AD07F80182818E355A
S1130FE0E9F4C8010E947004BE016F5F7F4FC8011D
S1130FF00E94AD0729813A814B815C81F7016081B0
S11310007181828193810E942F22F7016083718311
S113101082839383F80182818E3519F30F900F90A8
S11310200F900F90DF91CF911F910F91FF90EF9050
S11310300895EF92FF920F931F93CF93DF9300D005
S113104000D0CDB7DEB78C017B010E94DF07F80129
S113105082818A3219F08F32D9F034C0C8010E94DB
S11310607004BE016F5F7F4FC8010E94DF072981B2
S11310703A814B815C81F701608171818281938126
S11310800E94C221F7016083718382839383DFCF3F
S1131090C8010E947004BE016F5F7F4FC8010E94A7
S11310A0DF0729813A814B815C81F701608171817D
S11310B0828193810E94691EF70160837183828318
S11310C09383C5CF0F900F900F900F90DF91CF9126
S11310D01F910F91FF90EF9008958F929F92BF926E
S11310E0CF92DF92EF92FF920F931F93CF93DF93F0
S11310F0CDB7DEB72F970FB6F894DEBF0FBECDBFC6
S11311008C017B01FC0181898230C9F58190919029
S11311106F01BF01CE0101960E940125F801B28042
S1131120C8010E947004F80182818D3361F09182BC
S11311308082BE016F5F7F4FC6010E94012582E05D
S1131140F801818B1CC0C8010E947004B701C8015A
S11311500E943B05F70140815181628173818B2D8F
S113116090E081549109880F991F880F991FF80105
S1131170E80FF91F428B538B648B758B04C0B70146
S1131180C8010E943B052F960FB6F894DEBF0FBE30
S1131190CDBFDF91CF911F910F91FF90EF90DF9022
S11311A0CF90BF909F908F9008950F931F93CF93EC
S11311B0DF9300D000D0CDB7DEB78C01FC0112AEB6
S11311C0718360830E947004F801828181110DC0D3
S11311D0D801DA9686E1E6ECF1E001900D928A9569
S11311E0E1F760E070E0CB0117C0BE016F5F7F4F95
S11311F0C8010E946D08F8018281882349F0D80152
S1131200DA968DE0E9EBF1E001900D928A95E1F731
S113121069817A818B819C810F900F900F900F9040
S1131220DF91CF911F910F9108959C01FA01908154
S1131230992351F0D901A60FB71F31969D936F5F83
S11312407F4F91919111FACFF901E60FF71F1082A8
S113125008958F929F92AF92BF92EF92FF920F9355
S11312601F93CF93DF93FC014A015B019081992383
S113127051F17F018FEFE81AF80AC0E0D0E0983707
S1131280B9F40BE413E028E041E0C501B4010E9485
S1131290812390914B03992381F0DE01A65ABC4F20
S11312A0ECE4F3E09D93219691919111FBCF05C05D
S11312B0FE01E65AFC4F90832196F70191917F013C
S11312C09111DDCF02C0C0E0D0E0C65ADC4F1882D5
S11312D06AE573E082E093E00E94D508DF91CF9144
S11312E01F910F91FF90EF90BF90AF909F908F90C0
S11312F00895DF92EF92FF920F931F93CF93DF93A2
S113130000D0CDB7DEB7A1E0B0E044E050E09D01ED
S1131310042E02C0220F331F0A94E2F728BB9A015D
S113132024503109F901EA53FF4F00E010E0D22EB6
S1131330732F26B330E0002E02C0359527950A940A
S1131340E2F720FF2FC0ED2CF72E90812FEC290F10
S11313502730F8F499831A82AE014F5F5F4F682FEC
S113136081E00E9437042FEF34E38CE021503040B9
S11313708040E1F700C00000000F111F000F111F93
S11313800A531F4FF801EE0DFF1D808190E0C097B6
S11313901CC09FEF24E33CE0915020403040E1F733
S11313A000C000000F5F1F4F34960430110509F68A
S11313B0EFE1FEE43197F1F700C000004F5F5F4FAB
S11313C04830510509F0A3CFA0CF0F900F90DF91C3
S11313D0CF911F910F91FF90EF90DF9008956F923E
S11313E07F928F929F92AF92BF92CF92DF92EF92B1
S11313F0FF920F931F93CF93DF93161617060CF0EB
S113140052C07C01EC01E60EF71E712C01E010E0E5
S1131410D12C812C912C5401CC24C39469908DE25D
S1131420681659F18EE2681651F120E030E040E28E
S113143051E4C501B4010E94C2214B015C01662D37
S113144070E060537109072E000C880B990B0E9401
S11314504D1FA50194010E94921D4B015C01DD20EA
S113146079F0C801880F991F000F111F000F111F79
S1131470000F111F080F191F03C07C2C01C0DC2CA6
S1131480EC16FD0659F6B801110F880B990B0E9452
S11314904D1F9B01AC01C501B4010E94691E772058
S11314A029F0905803C060E070E0CB01DF91CF9148
S11314B01F910F91FF90EF90DF90CF90BF90AF906E
S11314C09F908F907F906F9008952F923F924F92AC
S11314D05F926F927F928F929F92AF92BF92CF92C0
S11314E0DF92EF92FF920F931F93CF93DF93CDB7C9
S11314F0DEB760970FB6F894DEBF0FBECDBF8B8703
S1131500188AA12CB12C88248394912CCE010196A5
S11315102C018C875D860F2EF6E62F2EF0E03F2EF1
S1131520F02D6894662462F8712CC401062C02C064
S1131530880F991F0A94E2F788BB8BBBF301EE5323
S1131540FF4F7F01610100E010E086B390E0002EC0
S113155002C0959587950A94E2F780FF36C0F7019B
S1131560808190ED980F9A3090F4F201EA0DFB1D02
S11315708083FFEFAF1ABF0AF201EA0DFB1D108250
S11315804C855D856B8581E00E94370414C08D33E2
S113159009F48EC0A114B10471F48D3261F42DE20A
S11315A029831A824C855D856B8581E00E9437040E
S11315B0AA24A394B12C8FEF94E3ECE081509040E3
S11315C0E040E1F700C0000051C089B390E0002E74
S11315D002C0959587950A94E2F780FF47C0F6010B
S11315E080818C3309F5A114B10451F4FFEF24E395
S11315F08CE0F15020408040E1F700C000003AC088
S113160091E0A91AB108F201EA0DFB1DFF87EE87EC
S113161020E220834C855D856B8581E00E94370440
S1131620EE85FF85108219C08E32B9F4F889F11164
S113163014C0F201EA0DFB1D2EE220838FEFA81ADD
S1131640B80AF201EA0DFB1D10824C855D856B859D
S113165081E00E94370491E0988BEFEFF4E32CE0F3
S1131660E150F0402040E1F700C0000089E0A816F6
S1131670B104F1F00F5F1F4F98E1C90ED11CE4E0F3
S1131680EE0EF11C0430110509F05FCF8FE19EE4EA
S11316900197F1F700C000009FEF691A790AE6E0AC
S11316A02E0E311CF8E06F16710409F03ECF33CFD3
S11316B08FE19EE40197F1F700C00000B501CE016F
S11316C001960E94EF0960960FB6F894DEBF0FBE34
S11316D0CDBFDF91CF911F910F91FF90EF90DF90DD
S11316E0CF90BF90AF909F908F907F906F905F90BE
S11316F04F903F902F900895CF92DF92EF92FF92F8
S11317000F931F93CF93DF93CDB7DEB765970FB6D3
S1131710F894DEBF0FBECDBF6C017B016130710553
S113172011F40E943903F60101900020E9F7319782
S1131730EC19FD091E161F0694F13AC0D8019D91BB
S11317408D01E1E0F0E0EC0FFD1FE20FF31F908349
S11317502F5F3F4F2431310569F41D8AAE014F5F7D
S11317605F4F6E2D81E00E943704BCE0EB0EF11C4C
S113177020E030E0C016D10609F721153105C1F08B
S1131780E1E0F0E0EC0FFD1FE20FF31F1082AE0169
S11317904F5F5F4F6E2D81E00E94370409C0D60170
S11317A08D918D018983CE0EDF1E21E030E0E2CFE2
S11317B065960FB6F894DEBF0FBECDBFDF91CF9113
S11317C01F910F91FF90EF90DF90CF9008952F928B
S11317D03F924F925F926F927F928F929F92AF92BD
S11317E0BF92CF92DF92EF92FF920F931F93CF930A
S11317F0DF93CDB7DEB764970FB6F894DEBF0FBEA4
S1131800CDBF9A8789871B01588B4F8729019B017C
S1131810220F331F3A832983C9010E94A1239A8B83
S1131820898B121413040CF056C19E878D8769812D
S11318307A81680F791FFC018FEF9FEF7A836983A8
S113184081939193A981BA81AE17BF07C9F72EC2BC
S1131850B4E06B0E711CED85FE853296FE87ED8734
S113186029853A85A216B3060CF026C2BC86AB863F
S1131870C5010AC0612C712C1C861B8618861F8228
S113188080E090E0A12CB12C69857A8586179707B2
S11318900CF041C07501EE0CFF1CE40CF51CBA827F
S11318A0A98265014B01D701ED91FD917D01E60D02
S11318B0F71D60817181828193810E94151F8B01C4
S11318C0772324F400271127061B170BF601EE0FCC
S11318D0FF1FE40DF51D0190F081E02DE60DF71DCD
S11318E060817181828193810E94151F9B017723FE
S11318F024F422273327261B370B2017310714F42F
S1131900C980DA80E981FA813196FA83E983E8159E
S1131910F9054CF201C06501CC0CDD1C92012C0DC3
S11319203D1D3A832983D901ED91FC91E60DF71D04
S113193060817181828193810E94151F9B017723AD
S113194024F422273327261B370BB901330F880BC6
S1131950990B0E944D1F25E93FEB46ED53E30E948E
S1131960481E88230CF4A4C0EF81F8852E163F0688
S11319700CF4A8C14B855C85440F551F440D551DBF
S1131980C3019F0109811A81D801ED91FC91E80FEF
S1131990F91FC080D180E280F380DA016D917C91DF
S11319A0DB01A80FB91F8D909D90AD90BC908082F3
S11319B09182A282B382DA01ED91FC91E80FF91FC2
S11319C0C082D182E282F3822F5F3F4F04962216B7
S11319D03306D4F677C1EB85FC85EA15FB0509F4DB
S11319E053C0CD80DE80D601ED91FC91CF01860DF0
S11319F0971DF401A081B181A60DB71D2D913D91D4
S1131A004D915C91DC016D917D918D919C910E9431
S1131A10691E69837A838B839C83EF81F8852E16F4
S1131A203F0694F183017F01D6010D90BC91A02D56
S1131A30A00FB11FBC8BAB8BD401ED91FC91E00FD7
S1131A40F11F208131814281538169817A818B81A7
S1131A509C810E94C2219B01AC01EB89FC896081BD
S1131A607181828193810E94911DAB89BC896D93A0
S1131A707D938D939C931397BFEFEB1AFB0A0C5F36
S1131A801F4F2E143F0484F6EFEFAE1ABE0A2D81C9
S1131A903E812E5F3F4F3E832D8369857A856A158B
S1131AA07B0509F098CFAB84BC847FEFA71AB70AF3
S1131AB08F819885019698878F832816390609F0B7
S1131AC0C7CEFAC011921192119211920196821509
S1131AD09305C4F307C0A985BA851A161B060CF42E
S1131AE043C0DAC06101CC0CDD1CCC0CDD1CA98820
S1131AF0BA88EF85F88900E010E0FA83E983D5011C
S1131B008D919D915D018F3FBFEF9B0709F1880F78
S1131B10991FF201E80FF91F0190F081E02DDF0118
S1131B20AC0DBD1D89819A818E199F09E80FF91F9B
S1131B3020813181428153816D917D918D919C9160
S1131B400E94691EE981FA81608371838283938391
S1131B500F5F1F4F29813A812C5F3F4F3A832983BE
S1131B600215130564F2BFC0B101660F771F660F3B
S1131B70771F7A8369834201AF84B888A60EB71EA3
S1131B80612C712C412C512C1214130434F031C0EB
S1131B90121413040CF464C07FC00F851889D40197
S1131BA00D90BC91A02DE12CF12CC42CD52CBE831E
S1131BB0AD83F80161917191819191918F01AD8112
S1131BC0BE812D913D914D915D91BE83AD830E9467
S1131BD0C2219B01AC016E2D7F2D8C2D9D2D0E9469
S1131BE0921DE62EF72EC82ED92EA016B10609F79F
S1131BF004C0E12CF12CC42CD52CD401ED91FD9121
S1131C004D0129813A81E20FF31F20813181428104
S1131C1053816E2D7F2D8C2D9D2D0E94911D0E9430
S1131C20151F9B01772324F422273327261B370B08
S1131C30B901330F880B990B0E944D1F25E93FEB27
S1131C4046ED53E30E94EF2018166CF13FEF631A40
S1131C50730A69857A85661677060CF495CF98CF52
S1131C60A989BA898D919C91019669F405C0219145
S1131C7031912F3F3F4F61F489899A890E94392419
S1131C8082E090E037C0E989FA89329680E090E0FA
S1131C900196821593055CF389899A890E943924F7
S1131CA081E090E027C080E090E024C069857A85D7
S1131CB0161617060CF4DECDEF84F888F70180E0E1
S1131CC090E000CFEB85FC85AD85BE85ED93FC935C
S1131CD0CF01880F991F4201880E991E5E824D82A2
S1131CE0A12CB12C78CE29853A85121613060CF452
S1131CF03BCFB6CF64960FB6F894DEBF0FBECDBF10
S1131D00DF91CF911F910F91FF90EF90DF90CF90D3
S1131D10BF90AF909F908F907F906F905F904F9007
S1131D203F902F9008952F923F924F925F926F921F
S1131D307F928F929F92AF92BF92CF92DF92EF9257
S1131D40FF920F931F93CF93DF93CDB7DEB7CD569A
S1131D50D1090FB6F894DEBF0FBECDBF8BE1ECEF17
S1131D60F1E0DE01119601900D928A95E1F761E0B0
S1131D7070E0CE0101960E947C0B88E190E00E9405
S1131D8079092C018BE1E7E1F2E0DE011196019083
S1131D900D928A95E1F761E070E0CE0101960E9410
S1131DA07C0B88E190E00E947909AA969FAF8EAFE0
S1131DB0AA979201220F331F220F331FA4963FAF1D
S1131DC02EAFA497C9010E94A123AD968FAFAD9702
S1131DD0AE969FAFAE97AA968EAD9FADAA97880F89
S1131DE0991FAC969FAF8EAFAC970E94A123A89683
S1131DF09FAF8EAFA897AA96EEADFFADAA971E1619
S1131E001F060CF0F7C0A496EEACFFACA497F4E068
S1131E10EF0EF11CA2969FAF8EAFA2979C01AC96D9
S1131E208EAD9FADAC97280F391FA6963FAF2EAF4E
S1131E30A697A8960EAD1FADA8976901C7010E9489
S1131E40A123F801819391938F01CE16DF06B1F798
S1131E500F2EF0E36F2EF02D9E012B5D3F4FA096C9
S1131E603FAF2EAFA0978E01025B1F4F0F2EFDE5F3
S1131E707F2EF02D0F2EFBE52F2EF02DE02EF12ED0
S1131E80141415040CF06EC0812C912C0F2EF0E369
S1131E903F2EF02DA12CB12C8E2DE32C9F2DF62C52
S1131EA0692E382E89E0E6EDF0E0DE015C960190C3
S1131EB00D928A95E1F7A096EEADFFADA09725E0CF
S1131EC011922A95E9F7F801F0821182632D762D9B
S1131ED0CE014C960E94E224F8017082632D762D87
S1131EE0CE014C960E94E224F8012082632D762DC7
S1131EF0CE014C960E94E224F801E082632D762DF7
S1131F00CE014C960E94E224F8017082632D762D56
S1131F10CE014C960E94E22461E070E0CE014C9622
S1131F200E947C0BA296EEADFFADA297C080D1803B
S1131F30C80CD91C8CE090E00E94650AF60160830D
S1131F40718382839383FFEFAF1ABF0AE39424E083
S1131F50820E911C4A145B0409F0A4CFE32C862D55
S1131F606F2CF82E80E1E4EEF0E0DE015C96019047
S1131F700D928A95E1F71DA61CA6F80160821182D4
S1131F806E2D7F2DCE014C960E94E224F8017082C2
S1131F906E2D7F2DCE014C960E94E22461E070E00C
S1131FA0CE014C960E947C0BA296EEADFFADA2979B
S1131FB0C190D190A296FFAFEEAFA297A4962EAD9A
S1131FC03FADA497C20ED31E8CE090E00E94650A38
S1131FD0F60160837183828393836394A2962EAD0A
S1131FE03FADA297A6968EAD9FADA6972817390749
S1131FF009F046CFA8962EAD3FADA897AD964FAD4C
S1132000AD97AE965FADAE97B201AA968EAD9FAD79
S1132010AA970E94E70B009781F48DE0ECEDF1E0C4
S1132020DE01119601900D928A95E1F761E070E06E
S1132030CE0101960E947C0BF1C08130910569F4B8
S11320409FEFEEE9F4E29150E040F040E1F700C088
S11320500000141415042CF11BC00297D1F783E17E
S1132060E9EEF1E0DE01119601900D928A95E1F717
S113207061E070E0CE0101960E947C0B2FEF3EE9F7
S113208084E2215030408040E1F700C00000E1CFFD
S1132090AA96EEADFFADAA971E161F060CF49CC0BF
S11320A0AFC0AD96AFACAD97AE96BFACAE970F2EAA
S11320B0F0E37F2EF02DC12CD12C0F2EF7E03F2E14
S11320C0F02D0F2EFEE48F2E912CF02D8C0E9D1EE4
S11320D0F7E08F0E911C0F2EFDE56F2EF02DEE24F0
S11320E0E394F12C87E0E6EFF0E0DE01A25BBF4F62
S11320F001900D928A95E1F7F401232D11922A950E
S1132100E9F76D967FAE6D976E961FAE6E97BE0122
S1132110645A7F4FCE01825B9F4F0E94E2246D96EA
S11321206FAE6D97BE01645A7F4FCE01825B9F4FA5
S11321300E94E224B701CE01825B9F4F0E947C0B78
S1132140F50161917191819191915F018E01045E1C
S11321501F4F22E041E00E9481236CE070E0C8013F
S11321600E947C0B44E050E0C701042E02C0880F9B
S1132170991F0A94E2F788BBFA01EE53FF4F20E05F
S113218030E086B390E0022E02C0959587950A94BC
S1132190E2F780FF03C080818D3361F02F5F3F4FF2
S11321A034962430310569F74F5F5F4F483051054D
S11321B0D9F6D8CFFFEF24E33CE0F1502040304083
S11321C0E1F700C000008FEFC81AD80A73944C14CA
S11321D05D0409F087CF5CCFA8960EAD1FADA8971C
S11321E07801AC96EEADFFADAC97EE0EFF1EF80194
S11321F0819191918F010E943924E016F106B9F77B
S1132200A8968EAD9FADA8970E943924AD968FAD48
S1132210AD97AE969FADAE970E943924C359DF4F58
S11322200FB6F894DEBF0FBECDBFDF91CF911F91E3
S11322300F91FF90EF90DF90CF90BF90AF909F9061
S11322408F907F906F905F904F903F902F90089564
S11322502F923F924F925F926F927F928F929F92B2
S1132260AF92BF92CF92DF92EF92FF920F931F93A0
S1132270CF93DF93CDB7DEB728970FB6F894DEBFC0
S11322800FBECDBF7C012A013B01480159019A01CF
S1132290AB01C501B4010E94911D20E030E048E487
S11322A052E40E94691E69837A838B839C83B30101
S11322B0A201C7010E9429096D837E838F839887B9
S11322C0B501A401C7010E9429099B01AC016D81DC
S11322D07E818F8198850E94921D4B015C0129812A
S11322E03A814B815C81C301B2010E94921DAB0112
S11322F0BC01C7010E9429099B01AC0181E090E067
S1132300B0E0A0E0F0E8E0E4D12C00E8C12C312CEE
S1132310212C10E49E838D8325C02D813E81B9013B
S1132320330F880B990B0E944D1F29813A814B81F1
S11323305C810E94C221A30192010E94921DAB0103
S1132340BC01C7010E9429099B01AC018D8180FD5C
S113235005C0BC2DA32DF22DE12F04C0B0E0AD2D9E
S1132360F02FE0E46B2F7A2F8F2F9E2F0E94C22133
S11323709B01AC01C501B4010E94921D4B015C019B
S11323802D813E812F5F3F4F3E832D8322333105C4
S113239021F620E030E040E450E469817A818B81C9
S11323A09C810E94691EA50194010E94C221289665
S11323B00FB6F894DEBF0FBECDBFDF91CF911F9152
S11323C00F91FF90EF90DF90CF90BF90AF909F90D0
S11323D08F907F906F905F904F903F902F900895D3
S11323E02F923F924F925F926F927F928F929F9221
S11323F0AF92BF92CF92DF92EF92FF920F931F930F
S1132400CF93DF93CDB7DEB7CA55D1090FB6F89491
S1132410DEBF0FBECDBF0E94390385E1E2E3F2E0E7
S1132420DE01119601900D928A95E1F783E1E7E4CC
S1132430F2E0DE01569601900D928A95E1F783E170
S1132440EAE5F2E0DE01999601900D928A95E1F7B2
S1132450AE014F5F5F4F61E081E00E9437040F2EB1
S1132460FCE08F2E912CF02DE12CF12C2E012CE38D
S1132470420E511C68964FAE689769965FAE699795
S11324800F2EF6E62F2EF0E03F2EF02D68946624F2
S113249062F8712C81E090E0062C02C0880F991F2D
S11324A00A94E2F788BB8BBBC3018E539F4F6C0128
S11324B0510100E010E086B390E0002E02C0959533
S11324C087950A94E2F780FF43C0F6018081833444
S11324D099F41CAE0E94390368964FAD68976996CB
S11324E05FAD699761E081E00E943704882483949A
S11324F0912CE12CF12C22C08D3309F4DFC0F201C0
S1132500EE0DFF1D8083FFEFEF1AFF0AF201EE0DBF
S1132510FF1D108268964FAD689769965FAD699705
S1132520682D81E00E94370424E1E216F10431F4BD
S11325308CE0880E911C1CAEE12CF12C9FEFE4E39F
S1132540FCE09150E040F040E1F700C0000066C0BC
S113255089B390E0002E02C0959587950A94E2F71E
S113256080FF5CC0F50180818C3349F5E114F104EE
S113257051F4FFEF24E38CE0F15020408040E1F778
S113258000C000004BC091E0E91AF108F201EE0D21
S1132590FF1D6B96FFAFEEAF6B9720E2208368962A
S11325A04FAD689769965FAD6997682D81E00E9489
S11325B037046B96EEADFFAD6B97108212C0A50188
S11325C0B70168968FAD689769969FAD69970E9429
S11325D01509F20101900020E9F731977F01E41811
S11325E0F50868964FAD689769965FAD6997682D51
S11325F081E00E943704F4E1EF16F10431F42CE099
S1132600820E911C1CAEE12CF12C8FEF94E3ECE0D4
S113261081509040E040E1F700C000000F5F1F4F81
S1132620F8E1AF0EB11C24E0C20ED11C0430110538
S113263009F041CF8FE19EE40197F1F700C000005B
S11326409FEF691A790AE6E02E0E311CF8E06F1646
S1132650710409F01FCF14CF44E050E0CB01042EE5
S113266002C0880F991F0A94E2F788BBFA01EE535F
S1132670FF4F20E030E086B390E0022E02C0959533
S113268087950A94E2F780FF03C080818D3361F05F
S11326902F5F3F4F34962430310569F74F5F5F4F0A
S11326A048305105D9F6D8CF2FEF84E39CE0215070
S11326B080409040E1F700C000004EC0EFE1FEE42E
S11326C03197F1F700C000000E943903AE014A5E61
S11326D05F4F61E081E00E9437048CE090E00E944B
S11326E0650A6B017C010E943903AE01475D5F4FAF
S11326F061E081E00E9437048CE090E00E94650A6A
S11327008B019C01B701A601CE01CC960E94281131
S11327106B017C0186E0EDE6F2E0DE01AF5ABF4FCB
S113272001900D928A95E1F761E070E0CE018F5A35
S11327309F4F0E947C0B8E01045C1F4F22E041E0FE
S1132740C701B6010E9481236CE070E0C8010E94B9
S11327507C0B61E070E080CFC65ADF4F0FB6F8946F
S1132760DEBF0FBECDBFDF91CF911F910F91FF90C0
S1132770EF90DF90CF90BF90AF909F908F907F901D
S11327806F905F904F903F902F9008952F923F92BB
S11327904F925F926F927F928F929F92AF92BF926D
S11327A0CF92DF92EF92FF920F931F93CF93DF9319
S11327B0EC016B010E9439032FEF81EE94E021506C
S11327C080409040E1F700C00000AE0161E081E08C
S11327D00E943704EFEFF1EE24E0E150F040204096
S11327E0E1F700C000000F2EFCE04F2E512CF02D1D
S11327F000E010E022242394312C0F2EF6E66F2EF5
S1132800F0E07F2EF02D6894AA24A2F8B12CC10127
S11328100A2C02C0880F991F0A94E2F788BB8BBB6D
S1132820C5018E539F4F4C017301C0E0D0E086B3C5
S113283090E00C2E02C0959587950A94E2F780FFEC
S113284039C0F4018081833479F4F60110820E9446
S11328503903A60161E081E00E94370444244394D3
S1132860512C00E010E01CC08D3309F492C0F60135
S1132870E00FF11F80830F5F1F4FF601E00FF11F80
S11328801082A601642D81E00E94370404311105F1
S113289039F4FCE04F0E511CF601108200E010E008
S11328A0FFEF24E38CE0F15020408040E1F700C0CA
S11328B0000052C089B390E00C2E02C09595879514
S11328C00A94E2F780FF48C0F70180818C33F9F461
S11328D00115110551F4FFEF24E38CE0F150204081
S11328E08040E1F700C0000037C0F601E00FF11F9F
S11328F0319790E29083A601642D81E00E94370411
S113290001501109F601E00FF11F10820DC0A7015B
S1132910B801C6010E941509F60101900020E9F7EB
S113292031978F010C191D09A601642D81E00E94C5
S113293037040431110539F4ECE04E0E511CF60154
S1132940108200E010E0FFEF24E38CE0F15020401F
S11329508040E1F700C00000219698E1E90EF11CE7
S1132960E4E08E0E911CC430D10509F060CF8FE1F4
S11329709EE40197F1F700C000009FEFA91AB90A7D
S1132980E6E06E0E711CF8E0AF16B10409F03FCF1B
S113299034CFDF91CF911F910F91FF90EF90DF9093
S11329A0CF90BF90AF909F908F907F906F905F90EB
S11329B04F903F902F9008952F923F924F925F92A5
S11329C06F927F928F929F92AF92BF92CF92DF923B
S11329D0EF92FF920F931F93CF93DF93CDB7DEB7A0
S11329E0C75AD1090FB6F894DEBF0FBECDBF88E039
S11329F0E4E0F1E0DE01119601900D928A95E1F791
S1132A001A861986BE01655F7F4FCE0101960E942A
S1132A10C61388E0E3E7F2E0DE01119601900D921F
S1132A208A95E1F7BE016B5E7F4FCE0101960E944D
S1132A30C613BE016B5E7F4F82E093E00E94D5080F
S1132A40C957DF4F6883C758D040C857DF4F7883D2
S1132A50C858D040C757DF4F8883C958D040192F72
S1132A6088E0EBE7F2E0DE01119601900D928A9581
S1132A70E1F7BE016B5E7F4FCE0101960E94C61343
S1132A80BE016B5E7F4F82E093E00E94D508662E04
S1132A90772E882E992E262F372F482F592FC95736
S1132AA0DF4F6881C758D040C857DF4F7881C85876
S1132AB0D040C757DF4F8881C958D040912F0E941A
S1132AC0EF20181624F5C957DF4F3881C758D04076
S1132AD0C857DF4F2881C858D040C757DF4F988167
S1132AE0C958D040812FC957DF4F6882C758D0409A
S1132AF0C857DF4F7882C858D040C757DF4F888205
S1132B00C958D040192D632E722E892E982E2E016D
S1132B102FE1420E511C1E0183E8280E311C720164
S1132B20C957DF4FD880C758D040C857DF4FC88037
S1132B30C858D040C757DF4FB880C958D040A12EDD
S1132B40C656DF4F59824882CA59D040562C472C6A
S1132B50712ECD57DF4F8882C358D040692C1B2D6E
S1132B600A2D4D2D5C2D612F702FCE010B960E94E6
S1132B702909F70161937193819391937F01C95757
S1132B80DF4F2881C758D040C857DF4F3881C85815
S1132B90D040C757DF4F4881C958D040572D652DC5
S1132BA0742DCD57DF4F8881C358D040962D0E9495
S1132BB0911D4B015C0120E030E040EC51E40E94A7
S1132BC0691E9B01AC016D2D7C2D812F902F0E94DD
S1132BD0921DD62EC72E182F092F2E143F0409F646
S1132BE0C656DF4F48805980CA59D040C656DF4F79
S1132BF088829982AA82BB82CA59D040172D620169
S1132C00612C712CCE56DF4F1882C259D040CA565F
S1132C10DF4F1882C659D040C256DF4F1882CE59B2
S1132C20D040C156DF4F1882CF59D040CD57DF4F27
S1132C30188219821A821B82C358D040C056DF4FB3
S1132C401882C05AD040CF55DF4F1882C15AD040A5
S1132C50CE55DF4F1882C25AD040CD55DF4F18826F
S1132C60C35AD04000E0912CC657DF4F1882CA588F
S1132C70D040C257DF4F1882CE58D040CC55DF4FDA
S1132C8059824882C45AD040CA55DF4F39822882BB
S1132C90C65AD040412E302E592CB301072C000CBB
S1132CA0880B990B0E944D1FC656DF4F288139812E
S1132CB04A815B81CA59D0400E94C22120E030E0A1
S1132CC040EC51E40E94691EC957DF4F2881C75860
S1132CD0D040C857DF4F3881C858D040C757DF4F5E
S1132CE04881C958D040542D0E94921D062F172F99
S1132CF0F82EE92E232D352DC657DF4F4881CA58AB
S1132D00D040C257DF4F5881CE58D0400E94EF20A8
S1132D10181664F4302E512EC657DF4FF882CA5865
S1132D20D040C257DF4FE882CE58D040F6018190A0
S1132D309190A190B1906F01C056DF4F2881C05A85
S1132D40D040CF55DF4F3881C15AD040CE55DF4FE8
S1132D504881C25AD040CD55DF4F5881C35AD04024
S1132D60C501B4010E94EF201816A4F4C056DF4F29
S1132D708882C05AD040CF55DF4F9882C15AD04084
S1132D80CE55DF4FA882C25AD040CD55DF4FB8820E
S1132D90C35AD040CD57DF4F288139814A815B81A6
S1132DA0C358D040602F712F8F2D9E2D0E94481E36
S1132DB0882364F4802F912FAF2DBE2DCD57DF4F84
S1132DC088839983AA83BB83C358D040CE56DF4FF0
S1132DD02881C259D040CA56DF4F3881C659D040E5
S1132DE0C256DF4F4881CE59D040C156DF4F58817B
S1132DF0CF59D040C501B4010E94481E8823A4F4D1
S1132E00CE56DF4F8882C259D040CA56DF4F9882CF
S1132E10C659D040C256DF4FA882CE59D040C156C1
S1132E20DF4FB882CF59D040FFEF6F1A7F0A29E1F4
S1132E306216710409F031CF142D032DCA55DF4FEA
S1132E4028803980C65AD040952CCC55DF4F488015
S1132E505980C45AD0407201CE56DF4FD880C2592F
S1132E60D040CA56DF4FC880C659D040C256DF4F43
S1132E70B880CE59D040C156DF4FA880CF59D0403A
S1132E802D2D3C2D4B2D5A2DF701608171818281AE
S1132E9093810E94911DF7016193719381939193A2
S1132EA07F012E163F0661F7CD57DF4F2881398108
S1132EB04A815B81C358D040602F792DC657DF4FBC
S1132EC08881CA58D040C257DF4F9881CE58D0402D
S1132ED00E94911D9B01AC0160E070E080EF92E4E0
S1132EE00E94691EC657DF4F688379838A839B8358
S1132EF0CA58D040CE56DF4F2881C259D040CA5656
S1132F00DF4F3881C659D040C256DF4F4881CE5971
S1132F10D040C156DF4F5881CF59D040C056DF4F03
S1132F206881C05AD040CF55DF4F7881C15AD04014
S1132F30CE55DF4F8881C25AD040CD55DF4F98819E
S1132F40C35AD0400E94911D9B01AC0160E070E027
S1132F5080E792E40E94691EC257DF4F6883798339
S1132F608A839B83CE58D0400E943903FFEF24E329
S1132F708CE0F15020408040E1F700C0000089E17E
S1132F8090E00197F1F7C657DF4F288139814A81D4
S1132F905B81CA58D040CD57DF4F688179818A81DF
S1132FA09B81C358D04090580E94C2210E947F2226
S1132FB00E94151FF62E00E041E0602F8F2D0E9425
S1132FC0C3020F5F0034C1F7C257DF4F2881398134
S1132FD04A815B81CE58D040CE56DF4F6881C259BA
S1132FE0D040CA56DF4F7881C659D040C256DF4F11
S1132FF08881CE59D040C156DF4F9881CF59D040F7
S11330000E94C2210E947F2220E030E04CE752E47B
S11330100E94921D0E94151FF62E00E041E06F2DC4
S1133020802F0E94C3020F5F0038C1F7222423942B
S1133030312C712EF2012481358146815781C2578A
S1133040DF4F688179818A819B81CE58D0400E946C
S1133050C2210E947F22CE56DF4F688379838A8300
S11330609B83C259D040B101032C000C880B990BEF
S11330700E944D1FC656DF4F288139814A815B81EA
S1133080CA59D0400E94C22120E030E040EC51E413
S11330900E94691EC957DF4F2881C758D040C857BE
S11330A0DF4F3881C858D040C757DF4F4881C958CF
S11330B0D040572D0E94921DCD57DF4F2881398172
S11330C04A815B81C358D0400E94911DC657DF4F8F
S11330D0288139814A815B81CA58D0400E94C2212B
S11330E00E947F22CA56DF4F688379838A839B8339
S11330F0C659D040F2012081318142815381F4E0EC
S11331004F0E511CC257DF4F688179818A819B81A0
S1133110CE58D0400E94C2210E947F224B015C0104
S1133120B10161507109072E000C880B990B0E94A4
S11331304D1FC656DF4F288139814A815B81CA59A8
S1133140D0400E94C22120E030E040EC51E40E94D3
S1133150691EC957DF4F2881C758D040C857DF4F71
S11331603881C858D040C757DF4F4881C958D0402C
S1133170572D0E94921DCD57DF4F288139814A81F6
S11331805B81C358D0400E94911DC657DF4F2881F0
S113319039814A815B81CA58D0400E94C2210E9471
S11331A07F226B017C01CE56DF4F288139814A8111
S11331B05B81C259D04060E070E08CE792E40E94E9
S11331C0911D0E941C1F162FCA56DF4F68817981FA
S11331D08A819B81C659D0400E941C1F662EA5017E
S11331E0940160E070E08CE792E40E94911D0E94DB
S11331F01C1FB62EC701B6010E941C1F862F01E0BA
S1133200212F462D6B2D0E9484032FE788E391E044
S1133210215080409040E1F700C00000EFEF2E1AEB
S11332203E0AF9E12F16310409F004CFC955DF4FE6
S11332300FB6F894DEBF0FBECDBFDF91CF911F91C3
S11332400F91FF90EF90DF90CF90BF90AF909F9041
S11332508F907F906F905F904F903F902F90089544
S11332608F929F92AF92BF92CF92DF92EF92FF9292
S1133270CF93DF93EC016A017B012DEB37E346E842
S113328055E3C701B6010E94921DAB01BC01CE01FA
S11332900E9429094B015C012DEB37E346E855E315
S11332A0C701B6010E94911DAB01BC01CE010E9471
S11332B029099B01AC01C501B4010E94911D2DEBAC
S11332C037E346E056E30E94691EDF91CF91FF90F9
S11332D0EF90DF90CF90BF90AF909F908F90089524
S11332E08F929F92AF92BF92CF92DF92EF92FF9212
S11332F00F931F93CF93DF938C01E42EF52ED62EDC
S1133300C72EC1E5D0E04E2D5F2D6D2D7C2DC8015B
S11333100E9429094B015C014E2D5F2D6D2D7C2DE2
S1133320C8010E9430199B01AC01C501B4010E947F
S1133330691E9B01AC016E2D7F2D8D2D9C2D0E944D
S1133340911D282F220F292F221F2F3F31F0219763
S1133350E62EF72ED82EC92EB1F66E2D7F2D8D2D8B
S11333609C2DDF91CF911F910F91FF90EF90DF90F3
S1133370CF90BF90AF909F908F9008952F923F92DF
S11333804F925F926F927F928F929F92AF92BF9271
S1133390CF92DF92EF92FF920F931F93CF93DF931D
S11333A0CDB7DEB7CE56D1090FB6F894DEBF0FBE47
S11333B0CDBF0E94390385E1E3E8F2E0DE01119616
S11333C001900D928A95E1F78DE1E8E9F2E0DE01E2
S11333D0569601900D928A95E1F7AE014F5F5F4FCB
S11333E061E081E00E9437040F2EFCE08F2E912CC7
S11333F0F02DE12CF12C2E0123E3420E511CAC964E
S11334004FAEAC97AD965FAEAD970F2EF6E62F2E6E
S1133410F0E03F2EF02D6894662462F8712C81E070
S113342090E0062C02C0880F991F0A94E2F788BB2B
S11334308BBBC3018E539F4F6C01510100E010E020
S113344086B390E0002E02C0959587950A94E2F722
S113345080FF43C0F6018081833499F41BAA0E9443
S11334603903AC964FADAC97AD965FADAD9761E0C7
S113347081E00E94370488248394912CE12CF12C60
S113348022C08D3309F4DFC0F201EE0DFF1D8083ED
S1133490FFEFEF1AFF0AF201EE0DFF1D1082AC964A
S11334A04FADAC97AD965FADAD97682D81E00E94AE
S11334B0370424E1E216F10431F48CE0880E911C07
S11334C01BAAE12CF12C9FEFE4E3FCE09150E040D7
S11334D0F040E1F700C0000066C089B390E0002E20
S11334E002C0959587950A94E2F780FF5CC0F501C8
S11334F080818C3349F5E114F10451F4FFEF24E3A6
S11335008CE0F15020408040E1F700C000004BC047
S113351091E0E91AF108F201EE0DFF1DAF96FFAF3D
S1133520EEAFAF9720E22083AC964FADAC97AD964B
S11335305FADAD97682D81E00E943704AF96EEAD84
S1133540FFADAF97108212C0A501B701AC968FAD45
S1133550AC97AD969FADAD970E941509F20101900D
S11335600020E9F731977F01E418F508AC964FADD8
S1133570AC97AD965FADAD97682D81E00E9437049E
S1133580F4E1EF16F10431F42CE0820E911C1BAA35
S1133590E12CF12C8FEF94E3ECE081509040E0407B
S11335A0E1F700C000000F5F1F4FF8E1AF0EB11C40
S11335B024E0C20ED11C0430110509F041CF8FE183
S11335C09EE40197F1F700C000009FEF691A790AA1
S11335D0E6E02E0E311CF8E06F16710409F01FCFDF
S11335E014CF44E050E0CB01042E02C0880F991F91
S11335F00A94E2F788BBFA01EE53FF4F20E030E073
S113360086B390E0022E02C0959587950A94E2F75E
S113361080FF03C080818D3361F02F5F3F4F34966C
S11336202430310569F74F5F5F4F48305105D9F6B3
S1133630D8CF2FEF84E39CE0215080409040E1F705
S113364000C0000040C0EFE1FEE43197F1F700C094
S113365000000E94390361E070E0CE0146960E94AA
S11336607C0B88E190E00E94650A6B017C010E945A
S11336703903B701A601CE01C3960E9470196B01EC
S11336807C0186E0EDE6F2E0DE01AB59BF4F01902C
S11336900D928A95E1F761E070E0CE018B599F4F5E
S11336A00E947C0B8E010D5C1F4F22E041E0C7019C
S11336B0B6010E9481236CE070E0C8010E947C0B7B
S11336C061E070E08ECFC259DF4F0FB6F894DEBFD1
S11336D00FBECDBFDF91CF911F910F91FF90EF905F
S11336E0DF90CF90BF90AF909F908F907F906F901E
S11336F05F904F903F902F900895CF93DF93CDB775
S1133700DEB7E6970FB6F894DEBF0FBECDBF0E94BA
S1133710390388248394912CC12CD12C9E012F5FD2
S11337203F4F19012BAB3CAA0F2EF6E64F2EF0E0CB
S11337305F2EF02D6894EE24E2F8F12C81E090E005
S11337400E2C02C0880F991F0A94E2F788BB8BBB2A
S1133750C7018E539F4F5C01320100E010E086B335
S113376090E0002E02C0959587950A94E2F780FFB9
S11337706AC0F5018081833479F419820E94390387
S11337804BA95CA961E081E00E94370488248394FA
S1133790912CC12CD12C4DC08D3381F56BA97CA902
S11337A082E093E00E94D508FFEF20E732E0F15079
S11337B020403040E1F700C000000BA91CA922E022
S11337C041E00E9481234FEF80E792E04150804026
S11337D09040E1F700C000000E943903EFEFF0E7EA
S11337E022E0E150F0402040E1F700C000004BA986
S11337F05CA961E081E00E94370488C0F101EC0D0E
S1133800FD1D80833FEFC31AD30AF101EC0DFD1DAA
S113381010824BA95CA9682D81E00E94370444E121
S1133820C416D10431F48CE0880E911C1982C12C89
S1133830D12C9FEFE4E3FCE09150E040F040E1F74D
S113384000C0000057C089B390E0002E02C09595D7
S113385087950A94E2F780FF4DC0F30180818C3391
S113386011F5C114D10451F4FFEF24E33CE0F1500D
S113387020403040E1F700C000003CC041E0C41AE1
S1133880D108C1018C0D9D1D9EAB8DAB20E2FC01C6
S113389020834BA95CA9682D81E00E943704EDA91F
S11338A0FEA910820EC0A301B6018BA99CA90E9497
S11338B01509F10101900020E9F731976F01C21851
S11338C0D3084BA95CA9682D81E00E943704F4E178
S11338D0CF16D10431F42CE0820E911C1982C12C34
S11338E0D12C3FEF44E38CE0315040408040E1F77D
S11338F000C000000F5F1F4F98E1690E711CE4E0E7
S1133900AE0EB11C0430110509F029CF8FE19EE4FD
S11339100197F1F700C000009FEFE91AF90AE6E009
S11339204E0E511CF8E0EF16F10409F4FDCE06CF5B
S1133930CF93DF93CDB7DEB7CD54D1090FB6F8944A
S1133940DEBF0FBECDBF8DE0E5EBF2E0DE011196E8
S113395001900D928A95E1F7AE014F5F5F4F61E0F0
S113396081E00E94370484E1E2ECF2E0DE011E967D
S113397001900D928A95E1F7AE01425F5F4F6CE0D2
S113398081E00E94370481E1E6EDF2E0DE019296E7
S113399001900D928A95E1F7AE014E5D5F4F68E1AB
S11339A081E00E9437048EE0E7EEF2E0DE01D39678
S11339B001900D928A95E1F7AE014D5C5F4F64E290
S11339C081E00E9437048DE0E5EFF2E0DE01AF5BB9
S11339D0BF4F01900D928A95E1F7AE014F5B5F4FA7
S11339E060E381E00E943704C35BDF4F0FB6F894B5
S11339F0DEBF0FBECDBFDF91CF910895CF93A1E07D
S1133A00B0E064E070E0CD01062E02C0880F991F7B
S1133A100A94E2F788BBCB010497FC01EA53FF4FF9
S1133A2020E030E0C82F592F86B390E0022E02C068
S1133A30959587950A94E2F780FF23C08C2F952FE4
S1133A40408141534530A0F44FEF54E36CE04150C2
S1133A5050406040E1F700C00000220F331F220FE6
S1133A60331F2A533F4FF901E80FF91F80811CC00F
S1133A708FEF94E34CE0815090404040E1F700C068
S1133A8000002F5F3F4F34962430310569F68FE1F3
S1133A909EE40197F1F700C000006F5F7F4F68302C
S1133AA0710509F0B0CFADCFCF9108950E9488027F
S1133AB00E9439030E94981C8FEF87BB8ABB0E9427
S1133AC0FE1C813311F40E947D1B823319F40E9481
S1133AD0930E0EC0833319F40E94BE1909C08433B7
S1133AE019F40E94F01104C0853311F40E94DC140F
S1133AF080E090E0089582E093E00E945F040895DE
S1133B009F939F770E949F1F0F90002042F490582C
S1133B10A2EA2AED3FE049E450E40E94A91D0C9476
S1133B2089205058BB27AA270E94A91D0C948920DC
S1133B300E94502038F00E94572020F039F49F3F13
S1133B4019F426F40C9412200EF4E095E7FB0C947F
S1133B50E31FE92F0E94AE2058F3BA1762077307D8
S1133B608407950720F079F4A6F50C94E8200EF468
S1133B70E0950B2EBA2FA02D0B01B90190010C0179
S1133B80CA01A0011124FF27591B99F0593F50F491
S1133B90503E68F11A16F040A22F232F342F4427E9
S1133BA0585FF3CF469537952795A795F0405395E1
S1133BB0C9F77EF41F16BA0B620B730B840BBAF0B1
S1133BC09150A1F0FF0FBB1F661F771F881FC2F71C
S1133BD00EC0BA0F621F731F841F48F48795779530
S1133BE06795B795F7959E3F08F0B0CF9395880FEA
S1133BF008F09927EE0F9795879508959F939F77DF
S1133C00EEE389379E0728F4E4E5F0E00E943C20C7
S1133C100CC00E949F1F9058A2EA2AED3FE049EC95
S1133C205FE30E94A91D0E9489200F9007FC905811
S1133C300895DF93DD27B92FBF7740E85FE31616B9
S1133C40170648075B0718F4D92F0E94F4209F93A6
S1133C508F937F936F930E941723E8E6F0E00E940E
S1133C6015200E9489202F913F914F915F910E94CE
S1133C70D521DD2351F09058A2EA2AED3FE049EC2A
S1133C805FE3D0785D270E94A91DDF910C94892001
S1133C900E94BF1F08F481E0089590680E94E31E0B
S1133CA04FEF5FEF0E9400219F938F937F936F9359
S1133CB042E050E00E9400210E94F4202F913F91A5
S1133CC04F915F910C94921D0E946020E3950C9497
S1133CD09A200E947D1E0C9489200E94572058F03F
S1133CE00E94502040F029F45F3F29F00C94E31F18
S1133CF051110C94E9200C9412200E94AE2068F318
S1133D009923B1F3552391F3951B550BBB27AA2790
S1133D1062177307840738F09F5F5F4F220F331FCA
S1133D20441FAA1FA9F335D00E2E3AF0E0E832D092
S1133D3091505040E695001CCAF72BD0FE2F29D095
S1133D40660F771F881FBB1F261737074807AB0767
S1133D50B0E809F0BB0B802DBF01FF2793585F4FDC
S1133D603AF09E3F510578F00C94E31F0C94E9203F
S1133D705F3FE4F3983ED4F3869577956795B795BE
S1133D80F7959F5FC9F7880F911D9695879597F9C9
S1133D900895E1E0660F771F881FBB1F6217730742
S1133DA08407BA0720F0621B730B840BBA0BEE1F57
S1133DB088F7E095089529F416F00C94E31F0C9409
S1133DC0E8200C9412200E94B620A8F39638A0F79D
S1133DD007F80F92E8942BE33AEA48EB5FE70E9476
S1133DE0D8210F920F920F924DB75EB70F920E9497
S1133DF08E21E5E9F0E00E9415204F915F91EF914B
S1133E00FF91E595EE1FFF1F49F0FE57E068442738
S1133E10EE0F441FFA95E1F74195550B0E940021DE
S1133E200F9007FE0C94F42008950E941C1F6894C0
S1133E30B1110C94E92008950E94B62088F09F5790
S1133E4098F0B92F9927B751B0F0E1F0660F771FBA
S1133E50881F991F1AF0BA95C9F714C0B13091F0B0
S1133E600E94E820B1E008950C94E820672F782F91
S1133E708827B85F39F0B93FCCF386957795679575
S1133E80B395D9F73EF490958095709561957F4FE1
S1133E908F4F9F4F0895E89409C097FB3EF4909587
S1133EA08095709561957F4F8F4F9F4F9923A9F00F
S1133EB0F92F96E9BB279395F6958795779567959E
S1133EC0B795F111F8CFFAF4BB0F11F460FF1BC0E2
S1133ED06F5F7F4F8F4F9F4F16C0882311F096E975
S1133EE011C0772321F09EE8872F762F05C0662323
S1133EF071F096E8862F70E060E02AF09A95660FDC
S1133F00771F881FDAF7880F9695879597F9089594
S1133F100E94D02090F09F3748F4911116F00C9431
S1133F20E92060E070E080E89FEB089526F41B161A
S1133F30611D711D811D0C94E91F0C940420DF93F5
S1133F40CF931F930F938B01EC01EDEBF0E00E94F4
S1133F5015200E9489209801AE018B01EC0160E0DC
S1133F6070E080E89FE30E94911D0E94D72298018F
S1133F70AE010F911F91CF91DF910C94D521990F30
S1133F800008550FAA0BE0E8FEEF16161706E8071F
S1133F90F907C0F012161306E407F50798F0621B40
S1133FA0730B840B950B39F40A2661F0232B242B15
S1133FB0252B21F408950A2609F4A140A6958FEF34
S1133FC0811D811D089597F99F6780E870E060E086
S1133FD00895882371F4772321F09850872B762F46
S1133FE007C0662311F499270DC09051862B70E009
S1133FF060E02AF09A95660F771F881FDAF7880F1A
S11340009695879597F908959F3F31F0915020F444
S1134010879577956795B795880F911D96958795A0
S113402097F908959FEF80EC0895DF93CF931F9342
S11340300F93FF92EF92DF927B018C01689406C08C
S1134040DA2EEF010E94D521FE01E894A591259175
S1134050359145915591A6F3EF010E94A91DFE01EA
S11340609701A801DA9469F7DF90EF90FF900F9120
S11340701F91CF91DF9108959F938F937F936F93B7
S1134080FF93EF939B01AC010E94C221EF91FF913A
S11340900E9415202F913F914F915F910C94C22162
S11340A000240A9416161706180609060895002413
S11340B00A94121613061406050608950C94122089
S11340C00E94B620D8F3E894E0E0BB279F57F0F0B5
S11340D02AED3FE049EC06C0EE0FBB0F661F771FC9
S11340E0881F28F0B23A62077307840728F0B25A8F
S11340F0620B730B840BE3959A9572F7803830F456
S11341009A95BB0F661F771F881FD2F790480C94AF
S11341100620092E0394000C11F4882352F0BB0FDF
S113412040F4BF2B11F460FF04C06F5F7F4F8F4FCB
S11341309F4F0895EF93E0FF07C0A2EA2AED3FE006
S113414049EC5FEB0E94A91D0E9489200F90039403
S113415001FC9058E5EEF0E00C943C2057FD90589B
S1134160440F551F59F05F3F71F04795880F97FB37
S1134170991F61F09F3F79F08795089512161306F1
S11341801406551FF2CF4695F1DF08C01616170620
S11341901806991FF1CF8695710561050894089555
S11341A00E94B620A0F0BEE7B91788F4BB279F3859
S11341B060F41616B11D672F782F8827985FF7CF04
S11341C0869577956795B11D93959639C8F30895AB
S11341D0E894BB2766277727CB0197F908950E94B7
S11341E0BF1F08F48FEF08959B01AC0160E070E0FD
S11341F080E89FE30C94691E0C94E31F0C94042044
S11342000E94B620D8F39923C9F3940F511DA3F348
S11342109150504094F059F0882332F0660F771F84
S1134220881F91505040C1F79E3F51052CF7880FCD
S1134230911D9695879597F908955F3FACF0983E48
S11342409CF0BB27869577956795B79508F4B16080
S11342509395C1F7BB0F58F711F460FFE8CF6F5F78
S11342607F4F8F4F9F4FE3CF0C94E9200E9446214C
S113427029ED3BE54EED5EE30C94C22116F00C945F
S113428004200C94122068940C94E31F0E94B6201E
S1134290A8F39923C1F3AEF3DF93CF931F930F9346
S11342A0FF92C92FDD2788232AF02197660F771FF5
S11342B0881FDAF720E030E040E85FEB9FE38839BD
S11342C020F0803E38F021968F770E94921DE3E023
S11342D0F1E004C00E94921DE0E3F1E00E94152089
S11342E08B01BE01EC01FB2E6F5771097595771F89
S11342F0880B990B0E944D1F28E132E741E35FE3ED
S11343000E94D521AF2D9801AE01FF900F911F910E
S1134310CF91DF910E94A91D0C948920FA01DC0140
S1134320AA0FBB1F9B01AC01BF5728F422273327D8
S11343304427507820C0B75190F4AB2F0024469501
S113434037952795011CA395D2F3002071F0220F15
S1134350331F441FB395DAF30ED00C94911D6130D2
S11343607105A0E88A07B94630F49B01AC016627C1
S1134370772788279078309621F0208331834283F1
S1134380538308950E94D5210C9489200E945020C3
S113439038F00E94572020F0952311F00C94E31F6D
S11343A00C94122011240C94E9200E94AE2070F386
S11343B0959FC1F3950F50E0551F629FF001729FC6
S11343C0BB27F00DB11D639FAA27F00DB11DAA1FD5
S11343D0649F6627B00DA11D661F829F2227B00D22
S11343E0A11D621F739FB00DA11D621F839FA00DAD
S11343F0611D221F749F3327A00D611D231F849FFD
S1134400600D211D822F762F6A2F11249F57504053
S11344109AF0F1F088234AF0EE0FFF1FBB1F661FCE
S1134420771F881F91505040A9F79E3F510580F097
S11344300C94E31F0C94E9205F3FE4F3983ED4F31B
S1134440869577956795B795F795E7959F5FC1F73B
S1134450FE2B880F911D9695879597F90895FA017B
S1134460EE0FFF1F309621053105A1F1611571058D
S113447061F48038BFE39B0749F168949038810563
S113448061F08038BFEF9B0741F099234AF5FF3F65
S1134490E1053105210519F1E8940894E795D9015E
S11344A0AA2329F4AB2FBE2FF85FD0F310C0FF5F0F
S11344B070F4A695E0F7F73950F019F0FF3A38F4A4
S11344C09F779F930DD00F9007FC9058089546F066
S11344D00C94122060E070E080E89FE308954FE7B9
S11344E09F775F934F933F932F930E9446212F9181
S11344F03F914F915F910E94C2210C94E31E0E9450
S1134500B620E8F09E37E8F09639B8F49E3848F4BF
S1134510672F782F8827985FF9CF869577956795C9
S113452093959539D0F3B62FB1706B0F711D811D22
S113453020F487957795679593950C94E91F0C94CF
S113454004200C94E9209F939F77FEE3803A9F0711
S113455028F4EDE5F1E00E943C2017C090680E9429
S1134560E31E4FEF5FEF0E9400219F938F937F9391
S11345706F9342E050E00E9400210E94F4202F91AA
S11345803F914F915F910E94911D0F9007FC90689D
S113459008959F930E9460200F9007FCEE5F0C9497
S11345A09A2019F416F40C9412200C9404200E94FE
S11345B0B620B8F39923C9F3B6F39F57550B87FF79
S11345C00E9474230024A0E640EA90018058569586
S11345D0979528F4805C660F771F881F20F02617B4
S11345E03707480730F4621B730B840B20293129E9
S11345F04A2BA69517940794202531254A2758F766
S1134600660F771F881F20F026173707480730F4F6
S1134610620B730B840B200D311D411DA09581F796
S1134620B901842F9158880F9695879508959B0119
S1134630AC010C94C2219F939F77FEE380319F07C6
S113464028F4ECE6F1E00E943C2025C0906841E0AB
S113465050E00E9400210E94E31E9F938F937F935A
S11346606F9320E030E040E85FE30E94921D2F91B9
S11346703F914F915F919F938F937F936F9360E0EE
S113468070E080E89FE30E94911D2F913F914F912C
S11346905F910E94691E0F9007FC90580895DF9364
S11346A0D92F0E946020E695D7952AED3FE049E492
S11346B05FE3B33A6207730784079507D7953AF027
S11346C0A2EA49EC90680E94A91D0E948920EBE7A8
S11346D0F1E00E943C20DD0F13F00E94F420DD0F76
S11346E00BF49058DF91089591505040660F771F56
S11346F0881FD2F70895EE0FFF1F0590F491E02D67
S11347000994EF920F931F93CF93DF93E80147FD32
S113471002C034E001C034E1042E000C550B57FFF5
S113472003C0519541955109E32E022F242FAE0168
S11347300E940825CE01DF91CF911F910F91EF9038
S113474008950F931F93CF93DF938230910510F454
S113475082E090E0E0918407F091850720E030E06A
S1134760A0E0B0E0309719F14081518102811381BA
S113477048175907C8F08417950769F4109731F062
S113478012960C93129713961C9327C000938407D8
S11347901093850722C02115310519F042175307DC
S11347A018F49A01BD01EF01DF01F801DBCF2115F7
S11347B03105F9F0281B390B2430310580F48A8146
S11347C09B816115710521F0FB019383828304C0F1
S11347D09093850780938407FE01329644C0FE01BE
S11347E0E20FF31F81939193225031093983288377
S11347F03AC02091820730918307232B41F4209102
S113480062003091630030938307209382072091E4
S11348106000309161002115310541F42DB73EB798
S11348204091640050916500241B350BE091820790
S1134830F0918307E217F307A0F42E1B3F0B281710
S1134840390778F0AC014E5F5F4F2417350748F005
S11348504E0F5F1F50938307409382078193919378
S113486002C0E0E0F0E0CF01DF91CF911F910F9102
S11348700895CF93DF93009709F481C0FC01329728
S113488013821282A0918407B0918507109781F456
S113489020813181820F931F2091820730918307F9
S11348A02817390751F5F0938307E093820767C00F
S11348B0ED0120E030E0CE17DF0740F44A815B8150
S11348C09E0141155105F1F0EA01F5CFD383C2836E
S11348D040815181840F951FC817D90759F48881E5
S11348E09981840F951F0296918380838A819B818D
S11348F0938382832115310529F4F0938507E0938E
S113490084073DC0E901FB83EA8349915991C40FAF
S1134910D51FEC17FD0761F480819181840F951FE9
S11349200296E90199838883828193819B838A8398
S1134930E0E0F0E012968D919C911397009719F0A6
S1134940FD01DC01F7CF8D919C9111979D012E5FA4
S11349503F4F820F931F20918207309183072817BE
S1134960390769F4309729F4109285071092840767
S113497002C013821282B0938307A0938207DF914F
S1134980CF910895662777270C94622685FD0C94B1
S11349908828806291110C94882881568A51D8F70E
S11349A0089591110C948828803219F0895085500B
S11349B0C8F708959111089581568A5108F48052D8
S11349C085580895FB01DC010D900020E9F711974B
S11349D001900D920020E1F70895FC018191861762
S11349E021F08823D9F7992708953197CF010895A5
S11349F0FB01DC018D91019080190110D9F3990B11
S1134A000895FB01DC0101900D920020E1F7089567
S1134A10A9E0B0E0EEE0F5E20C94B4286A01122FAC
S1134A20B02E2BE3201720F0FF24F394F00E02C0E5
S1134A302CE3F22E0F2D27E0AE014F5F5F4F0E9453
S1134A40B027BC014981842F8970813031F0E1FCA9
S1134A5006C0E0FE06C090E205C09DE203C09BE2F2
S1134A6001C090E05E2D507143FF3CC0911102C023
S1134A7083E001C084E0811718F4212F281B01C0B2
S1134A8020E051110BC0F601822F30E2882319F087
S1134A9031938150FBCFC20ED11C20E0992329F021
S1134AA0D6019C93F60131966F01C6010396E2FE8E
S1134AB00AC03EE4D6013C9341E411964C9311970D
S1134AC012963C9306C03EE6F601308341E64183EC
S1134AD03283FC01322F40E2332309F442C0419374
S1134AE03150FACF42FF44C0911102C083E001C0AB
S1134AF084E0811718F4212F281B01C020E05111F4
S1134B000BC0F601822F30E2882319F031938150D3
S1134B10FBCFC20ED11C20E0992329F0D6019C932F
S1134B20F60131966F01C6010396E2FE0BC039E42B
S1134B30D6013C933EE411963C93119736E41296C9
S1134B403C9307C039E6F60130833EE6318336E60E
S1134B503283FC01322F40E2332319F04193315068
S1134B60FBCFFC01E20FF11D10828EEF9FEFA6C078
S1134B7021E030E0911102C020E030E01616170663
S1134B801CF4FB01319602C0E1E0F0E02E0F3F1F60
S1134B90BB2021F0EB2DF0E0319602C0E0E0F0E024
S1134BA02E0F3F1FE12FF0E02E173F071CF4121BBE
S1134BB0212F01C020E08E2D887159F4F601822F37
S1134BC030E2882319F031938150FBCFC20ED11CFF
S1134BD020E0992329F0D6019C93F60131966F01C8
S1134BE051110BC0F601822F90E3882319F09193A1
S1134BF08150FBCFC20ED11C20E00F2D060F9A81ED
S1134C00342F307144FF03C0913309F4015010165E
S1134C1024F4093018F008E001C001E0AB0177FF8B
S1134C2002C040E050E0FB01E41BF50BA1E0B0E062
S1134C30AC0FBD1FEA0FFB1F8EE2A82E4B01801A9A
S1134C4091080B2D10E01195019511094F3FBFEF0D
S1134C505B0721F4D601AC9211966D0164177507B8
S1134C602CF08416950614F4818101C080E3415030
S1134C7051093196D60111967D014017510724F050
S1134C80D6018C936701E2CF6417750739F4963324
S1134C9020F4953319F4311101C081E3F6018083C6
S1134CA0F701822F90E2882319F091938150FBCF72
S1134CB0F701E20FF11D108280E090E02996ECE00C
S1134CC00C94D028A0E0B0E0E8E6F6E20C94B42816
S1134CD0EC016B016115710519F0FB01918380836F
S1134CE07E01FFEFEF1AFF0A0881802F90E00E94F7
S1134CF0D124892B11F0E701F3CF0D3239F47E0171
S1134D0082E0E80EF11C098111E008C00B3229F49D
S1134D107E0192E0E90EF11C098110E0E701219780
S1134D2043E050E066EA71E0CE010E948B28892BB3
S1134D30C1F4239645E050E061EA71E0CE010E949F
S1134D408B28892B09F42596C114D10419F0F60196
S1134D50D183C0831111F6C060E070E080E89FE762
S1134D60FAC043E050E06EE971E0CE010E948B2866
S1134D70892B59F4C114D10409F4E9C0F2E0EF0E0F
S1134D80F11CF601F182E082E2C020E030E0A901EA
S1134D90C0E0D0E0F70180EDA82EA00E89E08A15CE
S1134DA030F1912F9260B92E812F887012FF04C0C8
S1134DB0811124C0219622C081112197A5E0B0E081
S1134DC00E94A328DC01CB01880F991FAA1FBB1FD7
S1134DD09C01AD012A0D311D411D511D283989E960
S1134DE03807480789E1580748F0166006C09EEF67
S1134DF0A9120AC013FD40C01860B12E8FEFE81A43
S1134E00F80A00811B2DC6CF802F8F7D8534A1F534
S1134E1080818D3211F4106106C08B3221F03196FD
S1134E2061E070E004C08181329662E070E08053FA
S1134E308A3018F0E61BF70B1FC060E070E06038A2
S1134E409CE079075CF4DB01AA0FBB1FAA0FBB1F10
S1134E506A0F7B1F660F771F680F711D3196DF0184
S1134E6011978C9180538A3050F314FF03C07195CD
S1134E7061957109C60FD71F11FF08C0C114D10471
S1134E8029F0CF010197F60191838083CA01B9010A
S1134E900E944B1F212F2370233019F04B015C011A
S1134EA006C04B015C01B7FAB094B7F8B09420E0A7
S1134EB030E0A901C501B4010E94481E882309F409
S1134EC03EC0D7FF06C0D195C195D1090DEB11E0C5
S1134ED002C005ED11E06801F8E1CF1AD10890E2B3
S1134EE0E92EF12CCE15DF0574F0F80125913591EA
S1134EF045915491C501B4010E94C2214B015C014A
S1134F00CE19DF09EFCF04501109F594E7940C157D
S1134F101D0541F78A2D880F8B2D881F8F3F49F07F
S1134F2020E030E0A901C501B4010E94481E8111AE
S1134F3006C082E290E09093870780938607C501BC
S1134F40B40109C060E070E080E89FEF04C060E055
S1134F5070E080EC9FE7CDB7DEB7ECE00C94D0288E
S1134F60283008F027E03327DA01990F311D87FD37
S1134F70916000966105710539F432602E5F3D93AE
S1134F8030E32A95E1F708959F3F30F080387105AA
S1134F90610509F03C5F3C5F3D93913008F0806807
S1134FA0911DDF93CF931F930F93FF92EF92192FCD
S1134FB0987F9695E92F96959695E90FFF27ED5CD6
S1134FC0FD4F99273327EE24FF24A701E70105901D
S1134FD00894079428F4360FE71EF81E491F511D44
S1134FE0660F771F881F991F0694A1F705900794F1
S1134FF028F4E70EF81E491F561FC11D770F881F9E
S1135000991F661F0694A1F70590079428F4F80EDB
S1135010491F561FC71FD11D880F991F661F771F71
S11350200694A1F70590079420F4490F561FC71F53
S1135030D81F990F661F771F881F0694A9F78491BC
S11350401095177041F0D695C79557954795F794E5
S1135050E7941A95C1F7E9EDF1E06894159015917C
S113506035916591959105907FE27395E118F10A68
S1135070430B560BC90BD009C0F7E10CF11E431FBB
S1135080561FC91FD01D7EF4703311F48A95E6CFE4
S1135090E894015030F0080F0AF40027021708F4CE
S11350A0202F2395022F7A3328F079E37D932A95D4
S11350B0E9F710C07D932A9589F60694979567952C
S11350C0379517951794E118F10A430B560BC90B42
S11350D0D00998F023957E9173957A3308F070E3A4
S11350E07C932013B8F77E9170617D9330F08395A3
S11350F071E37D9370E32A95E1F71124EF90FF901B
S11351000F911F91CF91DF91992787FD9095089575
S1135110992788270895FB01DC014150504088F00D
S11351208D9181341CF08B350CF4805E6591613473
S11351301CF06B350CF4605E861B611171F3990BE6
S11351400895881BFCCF0E94E528A59F900DB49F6D
S1135150900DA49F800D911D112408952F923F92CC
S11351604F925F926F927F928F929F92AF92BF9273
S1135170CF92DF92EF92FF920F931F93CF93DF931F
S1135180CDB7DEB7CA1BDB0B0FB6F894DEBF0FBE7C
S1135190CDBF09942A88398848885F846E847D84C9
S11351A08C849B84AA84B984C884DF80EE80FD80CB
S11351B00C811B81AA81B981CE0FD11D0FB6F89441
S11351C0DEBF0FBECDBFED010895A29FB001B39F16
S11351D0C001A39F700D811D1124911DB29F700DFC
S10F51E0811D1124911D0895F894FFCF47
S11351EC00008807200073696E280000636F732821
S11351FC000074616E2800007371727428005E00E4
S113520C000000007800000000007900000000009D
S113521C3C2D000000002C00000000002E000000BB
S113522C00002800000000002900000000004300DA
S113523C00000000430000000000430000000000D8
S113524C4300000000003738392F3435362A313208
S113525C332D43303D2B496E70757420615B000017
S113526C00000000496E70757420636F6C756D6E70
S113527C20645B000000416E7320785B000000002A
S113528C0000000046287829203D200000002B2D2A
S113529C2A2F255E3D282900202B2D2F2A255E3D03
S11352AC2829090D004F6E6C79206669727374207D
S11352BC6C6574746572206F6620766172696162C4
S11352CC6C657320697320636F6E736964657265B2
S11352DC6400556E62616C616E636564205061722A
S11352EC656E746865736573004153494E004143A0
S11352FC4F53004154414E004153494E48004143E1
S113530C4F5348004154414E48004C4E004C4F47BB
S113531C0045585000535152540053515200524FAF
S113532C554E4400494E5400556E6B6E6F776E208B
S113533C46756E6374696F6E0053796E7461782070
S113534C4572726F72004E6F20457870726573737C
S113535C696F6E2050726573656E74004E6F2053C6
S113536C6F6C7574696F6E2100496E66696E697431
S113537C6520536F6C7574696F6E21004E756D6288
S113538C6572206F66205661726961626C65732068
S113539C28312D37293F004E756D626572206F667A
S11353AC206571756174696F6E732028312D3729EE
S11353BC3F00496E7075742046756E6374696F6E28
S11353CC206F6620783A00496E707574206C6F7784
S11353DC6572206C696D69743A00496E707574203D
S11353EC7570706572206C696D69743A00416E73E6
S11353FC203D006D696E58203D20006D6178582069
S113540C3D2000496E707574204571756174696F27
S113541C6E206F6620783A00496E70757420696E40
S113542C697469616C20617070726F78696D6174F4
S113543C696F6E3A00312E43616C63756C61746FE5
S113544C7200322E476175737320456C696D696EF9
S113545C6174696F6E00332E4E6577746F6E2052D3
S113546C617068736F6E00342E496E746567726177
S113547C74696F6E00352E477261706820506C6FC2
S105548C7400A6
S9030000FC
