S01700004763634170706C69636174696F6E312E737265635B
S11300000C945A020C9477020C9477020C947702A5
S11300100C9477020C9477020C9477020C94770278
S11300200C9477020C9477020C9477020C94770268
S11300300C9477020C9477020C9477020C94770258
S11300400C9477020C9477020C9477020C94770248
S11300500C947702036EDB363D9A9999993DABAACD
S1130060AA2A3E000000803F084AD73B3BCE016EDF
S113007084BCBFFDC12F3D6C74319ABD56833DDAFB
S11300803D00C77F11BED9E4BB4C3E916BAAAABE0A
S1130090000000803F07634236B79BD8A71A39682F
S11300A05618AEBAAB558C1D3CB7CC5763BD6DED3D
S11300B0FD753EF6177231BF000000803F072C7AB1
S11300C0A5BA6CC590DA3B9365FC8BBC53F810FD64
S11300D03C5692834DBD879D3AB63DCBC9BF5BBEAE
S11300E073DA0FC93F05A84CCDB2D44EB93836A93E
S11300F0020C50B9918688083CA6AAAA2ABE000020
S113010000803F08000000BE922449123EABAAAA18
S11301102ABECDCCCC4C3E00000080BEABAAAAAA1D
S11301203E00000000BF000000803F00000000000F
S1130130084178D3BB4387D1133D190E3CC3BD425C
S113014082AD2B3E68EC8276BED98FE1A93E4C800D
S1130150EFFFBE01C4FF7F3F00000000000289885A
S1130160083CABAAAA2A3E000000803F0289880806
S11301703EABAAAAAABE000000803F0664EC1B3C6A
S113018004BC163E3BE5B93CC93C37C29E5A3D66A9
S11301900498083EEA69AAAA3E000000803F4E4146
S11301A04E494E495459494E46CDCCCC3D0AD723ED
S11301B03C17B7D13877CC2B329595E6241FB14F35
S11301C00A000020410000C84200401C4620BCBE7A
S11301D04CCA1B0E5AAEC59D7400407A10F35A00E7
S11301E0A0724E18090010A5D4E80000E87648175C
S11301F00000E40B54020000CA9A3B000000E1F541
S113020005000080969800000040420F000000A006
S11302108601000000102700000000E80300000031
S1130220006400000000000A00000000000100005B
S11302300000002C76D888DC674F0823DFC1DFAECE
S113024059E1B1B796E5E3E453C63AE65199769697
S1130250E8E6C28426EB898C9B62ED407C6FFCEF60
S1130260BC9C9F40F2BAA56FA5F490055A2AF75C8E
S1130270936B6CF9676DC11BFCE0E40D47FEF52040
S1130280E6B500D0ED902E03009435770500808408
S11302901E080000204E0A000000C80C333333331C
S11302A00F986E12831141EF8D2114893BE6551688
S11302B0CFFEE6DB18D1844B381BF77C1D901DA4C0
S11302C0BBE424203284725E228100C9F124ECA1B3
S11302D0E53D27000000000000005F00000007006B
S11302E00700147F147F14242A7F2A12231308641E
S11302F06236495522500005030000001C224100CB
S11303000041221C00082A1C2A0808083E0808008C
S113031050300000080808080800303000002010A1
S11303200804023E5149453E00427F40004261516B
S113033049462141454B311814127F102745454544
S1130340393C4A494930017109050336494949365E
S1130350064949291E0036360000005636000000C2
S11303600814224114141414144122140800020124
S1130370510906324979413E7E1111117E7F494966
S113038049363E414141227F4141221C7F4949492E
S1130390417F090901013E414151327F0808087F2C
S11303A000417F41002040413F017F081422417FEA
S11303B0404040407F0204027F7F0408107F3E419A
S11303C041413E7F090909063E4151215E7F0919D9
S11303D02946464949493101017F01013F404040D6
S11303E03F1F2040201F7F2018207F6314081463C0
S11303F00304780403615149454300007F414102ED
S11304000408102041417F0000040201020440401E
S1130410404040000102040020545454787F484472
S113042044383844444420384444487F385454546D
S113043018087E090102081454543C7F0804047807
S113044000447D40002040443D00007F10284400CB
S1130450417F40007C041804787C08040478384404
S11304604444387C14141408081414187C7C0804BC
S113047004084854545420043F4440203C40402045
S11304807C1C2040201C3C4030403C442810284424
S11304900C5050503C4464544C4400083641000015
S11304A0007F0000004136080008082A1C08081CC8
S11304B02A08080011241FBECFE5D8E0DEBFCDBF57
S11304C012E0A0E6B0E0E4E7F9E302C005900D9283
S11304D0A236B107D9F727E0A2E6B2E001C01D9227
S11304E0AE36B207E1F70E9455120C94B81C0C9476
S11304F00000AC9AAC9808958FEF81BBA09AA49A9F
S1130500A39AA29AA19AA9982FE788E391E021508F
S113051080409040E1F700C00000A99A2FE788E3EB
S113052091E0215080409040E1F700C00000A8987D
S1130530AB9AAA9A8FE382BB0E94790280EC82BBB9
S11305400E9479022FE788E391E021508040904097
S1130550E1F700C000002FE788E391E021508040DC
S11305609040E1F700C00000AB98AA9808950F935B
S11305701F93CF93DF93C82F042F683068F0862F22
S113058088508830E8F7162F1770D8EFD60FD69515
S1130590D695D695DF5F02C0162FD0E0C03480F424
S11305A0A898AB9AAA98D7708D2F886B82BB0E94AB
S11305B07902CF738C2F806482BB0E94790211C0B0
S11305C0C054A898AB98AA9AD7708D2F886B82BB19
S11305D00E947902CF738C2F806482BB0E947902BF
S11305E0C05CA89A0130D1F4EC2FF0E0EE0FFF1FAD
S11305F0EE0FFF1FEE0FFF1FE459FC4FED0FF11D2F
S113060081E090E002C0880F991F1A95E2F790816B
S1130610892B808382BB0E9479021AC0EC2FF0E000
S113062081E090E002C0880F991F1A95E2F7809547
S1130630EE0FFF1FEE0FFF1FEE0FFF1FE459FC4FDD
S1130640ED0FF11D90818923808382BB0E94790282
S1130650DF91CF911F910F910895FF920F931F93F4
S1130660CF93DF9300E010E0F12CD02FCF2DEC2FAF
S1130670F0E0EE0FFF1FEE0FFF1FEE0FFF1FE45918
S1130680FC4FE00FF11F1082C03480F4A898AB9A9D
S1130690AA98D7708D2F886B82BB0E947902CF7382
S11306A08C2F806482BB0E94790211C0C054A89828
S11306B0AB98AA9AD7708D2F886B82BB0E9479025F
S11306C0CF738C2F806482BB0E947902C05CA89A8D
S11306D012BA0E947902CF5F52F60F5F1F4F0830A3
S11306E0110519F6DF91CF911F910F91FF90089595
S11306F0CF92DF92EF92FF920F931F93CF93DF93EA
S1130700D62E4052242F30E08901000F111F000F14
S1130710111F020F131F0D521D4F0F2EF5E0CF2E88
S1130720F02DC80EE82EFD2CC0E0D0E0F801449175
S113073050E00C2E02C0559547950A94E2F741709B
S11307406F2D8E2D0E94B7022196F394C830D105E7
S113075069F70F5F1F4FE394CE10E5CFDF91CF9180
S11307601F910F91FF90EF90DF90CF900895EF923B
S1130770FF920F931F93CF93DF93FA010190002010
S1130780E9F73197E41BF50B1E161F068CF4D62FE0
S11307908A017A01EE0EFF1EC82FF80141918F01E4
S11307A06D2F8C2F0E947803CA5F0E151F05A9F7C1
S11307B0DF91CF911F910F91FF90EF900895FC016D
S11307C011821082B1969C01275B3F4F11921192C6
S11307D011921192E217F307C9F7FC01E75BFF4F8F
S11307E010820895AF92BF92CF92DF92EF92FF9260
S11307F00F931F93CF93DF936C01DC0190961C92AF
S1130800909712961C921297ED91FC918081882307
S113081009F4A9C0F601C081D181F8800F2D10E040
S1130820C8010E949518892B29F02196D601CD93F1
S1130830DC93F0CFB8018EEF90E00E94B118892BC1
S113084089F081E0F60180A35601F3E0AF0EB11CFC
S1130850CE010196D60111969C938E9388811296AF
S11308608C936BC05601B2E0AB0EB11CC8010E9460
S11308708D18892BB9F175015701F601C081D18119
S11308801881612F70E088E091E00E94B118892BF3
S113089089F4112379F0CE010196D6018D939C93AE
S11308A0888190E00E949E18F7018083FFEFEF1A81
S11308B0FF0AE2CFD601CD91DC911881812F90E01F
S11308C00E949518892B29F02196F601D183C083C3
S11308D0F1CF183211F082E001C084E0D601909685
S11308E08C932BC08F2D90E0C0970A9718F0BEE22E
S11308F0FB1223C075015701F601C081D181188113
S1130900612F70E088E091E00E94B118892B89F48E
S1130910112379F0CE010196D6018D939C938881A1
S113092090E00E949E18F7018083FFEFEF1AFF0A00
S1130930E2CF83E0D60190968C93F5011082D60124
S113094090968C919097823071F413968C911397B2
S1130950882349F0A75BBF4F8DE2E5E1F1E0019008
S11309600D928A95E1F7DF91CF911F910F91FF903E
S1130970EF90DF90CF90BF90AF900895EF92FF92E9
S11309800F931F93CF93DF9300D000D0CDB7DEB782
S11309908C017B010E94C307F80182818B32E1F054
S11309A08D32A1F5C8010E94F203BE016F5F7F4F33
S11309B0C8010E94C30729813A814B815C81F701F8
S11309C060817181828193810E947C12F70160832E
S11309D0718382839383E0CFC8010E94F203BE0136
S11309E06F5F7F4FC8010E94C30729813A814B8101
S11309F05C81F70160817181828193810E947D1203
S1130A00F7016083718382839383C6CF0F900F9025
S1130A100F900F90DF91CF911F910F91FF90EF9066
S1130A200895DF92EF92FF920F931F93CF93DF937A
S1130A30CDB7DEB76E970FB6F894DEBF0FBECDBF4D
S1130A408C017B01DC019096DC90B4E0DB120AC0DF
S1130A50BC016E5F7F4FCE0101960E94C518C8018C
S1130A600E94F203D8011296EC91E83209F0DBC13E
S1130A70C8010E94F203B701C8010E94BE04F80134
S1130A808281893251F087E1E2E4F1E0D801A75B89
S1130A90BF4F01900D928A95E1F7F4E0DF12BFC1D8
S1130AA06AE571E0CE0101960E94BC18892B99F485
S1130AB025E33AEF4EE85CE3D7016D917D918D918A
S1130AC09C910E94AD160E94B417F7016083718354
S1130AD082839383A4C16FE571E0CE0101960E94E5
S1130AE0BC18892B99F425E33AEF4EE85CE3D7016F
S1130AF06D917D918D919C910E94AD160E944F1332
S1130B00F701608371838283938389C164E671E012
S1130B10CE0101960E94BC18892B99F425E33AEF83
S1130B204EE85CE3D7016D917D918D919C910E947B
S1130B30AD160E943A18F701608371838283938310
S1130B406EC169E571E0CE0101960E94BC18892B43
S1130B5099F4D7016D917D918D919C910E94E91238
S1130B6020EE3EE245E652E40E94AD16F7016083B2
S1130B7071838283938353C16EE571E0CE01019644
S1130B800E94BC18892B99F4D7016D917D918D91A8
S1130B909C910E946B1220EE3EE245E652E40E94D4
S1130BA0AD16F701608371838283938338C163E652
S1130BB071E0CE0101960E94BC18892B99F4D701EB
S1130BC06D917D918D919C910E94041320EE3EE2E3
S1130BD045E652E40E94AD16F70160837183828377
S1130BE093831DC169E671E0CE0101960E94BC1891
S1130BF0892B69F4D7016D917D918D919C910E940F
S1130C008E17F701608371838283938308C16FE633
S1130C1071E0CE0101960E94BC18892B69F4D701BA
S1130C206D917D918D919C910E943813F7016083A1
S1130C30718382839383F3C065E771E0CE010196EB
S1130C400E94BC18892B69F4D7016D917D918D9117
S1130C509C910E940618F7016083718382839383B9
S1130C60DEC068E671E0CE0101960E94BC18892BB3
S1130C7069F4D7016D917D918D919C910E94E91247
S1130C80F7016083718382839383C9C06EE671E048
S1130C90CE0101960E94BC18892B69F4D7016D918D
S1130CA07D918D919C910E946B12F70160837183F9
S1130CB082839383B4C064E771E0CE0101960E94FD
S1130CC0BC18892B69F4D7016D917D918D919C910C
S1130CD00E940413F70160837183828393839FC00E
S1130CE06AE771E0CE0101960E94BC18892B69F471
S1130CF0D7016D917D918D919C910E943116F701E0
S1130D0060837183828393838AC06DE771E0CE012F
S1130D1001960E94BC18892B69F4D7016D917D91CD
S1130D208D919C910E942116F701608371838283C7
S1130D30938375C061E871E0CE0101960E94BC18EE
S1130D40892B69F4D7016D917D918D919C910E94BD
S1130D50CE13F701608371838283938360C065E857
S1130D6071E0CE0101960E94BC18892B69F4D70169
S1130D706D917D918D919C910E94C217F7016083C2
S1130D807183828393834BC06AE871E0CE0101963C
S1130D900E94BC18892B79F4D7016D917D918D91B6
S1130DA09C919B01AC010E94AD16F7016083718395
S1130DB08283938334C06EE871E0CE0101960E9471
S1130DC0BC18892B69F4D7016D917D918D919C910B
S1130DD00E946A17F70160837183828393831FC023
S1130DE064E971E0CE0101960E94BC18892B69F474
S1130DF0D7016D917D918D919C910E947314F7019F
S1130E0060837183828393830AC081E1E8E9F1E01E
S1130E10D801A75BBF4F01900D928A95E1F7C801F5
S1130E200E94F20336C0D80190968C91823019F05A
S1130E308330B9F024C0F0E0E154F109EE0FFF1F54
S1130E40EE0FFF1FE00FF11F81A192A1A3A1B4A196
S1130E50F70180839183A283B383C8010E94F203C4
S1130E6018C0C80102960E948618D7016D937D931D
S1130E708D939C931397C8010E94F2030AC0D80172
S1130E80A75BBF4F8DE0E9EAF1E001900D928A95EE
S1130E90E1F76E960FB6F894DEBF0FBECDBFDF91BB
S1130EA0CF911F910F91FF90EF90DF9008950F93D2
S1130EB01F93CF93DF93EC018B0188A1813019F448
S1130EC08A818B3241F08A818D3269F0B801CE017A
S1130ED00E94110519C0CE010E94F203B801CE018F
S1130EE00E94110511C0CE010E94F203B801CE0187
S1130EF00E941105F80180819181A281B381B058CB
S1130F0080839183A283B383DF91CF911F910F914B
S1130F100895EF92FF920F931F93CF93DF9300D026
S1130F2000D0CDB7DEB78C017B010E945707F801D2
S1130F3082818E35E9F4C8010E94F203BE016F5F1D
S1130F407F4FC8010E94570729813A814B815C81F8
S1130F50F70160817181828193810E941A17F701E0
S1130F606083718382839383F80182818E3519F3C0
S1130F700F900F900F900F90DF91CF911F910F91D1
S1130F80FF90EF900895EF92FF920F931F93CF93EA
S1130F90DF9300D000D0CDB7DEB78C017B010E9477
S1130FA08907F80182818A3219F08F32D9F034C06E
S1130FB0C8010E94F203BE016F5F7F4FC8010E9407
S1130FC0890729813A814B815C81F70160817181B4
S1130FD0828193810E94AD16F701608371838283BD
S1130FE09383DFCFC8010E94F203BE016F5F7F4F7E
S1130FF0C8010E94890729813A814B815C81F701EC
S113100060817181828193810E945413F70160830E
S1131010718382839383C5CF0F900F900F900F90AD
S1131020DF91CF911F910F91FF90EF9008958F92D0
S11310309F92BF92CF92DF92EF92FF920F931F93F2
S1131040CF93DF93CDB7DEB76E970FB6F894DEBFBC
S11310500FBECDBF8C017B01FC0180A18230C9F59C
S1131060819091906F01BF01CE0101960E94C51835
S1131070F801B280C8010E94F203F80182818D3325
S113108061F091828082BE016F5F7F4FC6010E9432
S1131090C51882E0F80180A31CC0C8010E94F203B5
S11310A0B701C8010E94BE04F701408151816281E9
S11310B073818B2D90E081549109880F991F880FBB
S11310C0991FF801E80FF91F41A352A363A374A366
S11310D004C0B701C8010E94BE046E960FB6F8940E
S11310E0DEBF0FBECDBFDF91CF911F910F91FF9057
S11310F0EF90DF90CF90BF909F908F9008950F93C3
S11311001F93CF93DF9300D000D0CDB7DEB78C010F
S1131110FC01E75BFF4F1082FC01718360830E9436
S1131120F203F801828181110EC0D801A75BBF4F81
S113113086E1E6EBF1E001900D928A95E1F760E03B
S113114070E0CB0118C0BE016F5F7F4FC8010E94E1
S11311501708F8018281882351F0D801A75BBF4F9B
S11311608DE0E9EAF1E001900D928A95E1F7698159
S11311707A818B819C810F900F900F900F90DF915B
S1131180CF911F910F9108952F923F924F925F92AA
S11311906F927F928F929F92AF92BF92CF92DF9283
S11311A0EF92FF920F931F93CF93DF93CDB7DEB7E8
S11311B02E970FB6F894DEBF0FBECDBF2C011B01D6
S11311C0161617060CF03BC122E632E03C872B874B
S11311D0CB01880F991F8E599D4FF9012FEF3FEFD7
S11311E021933193E817F907D9F71AC289859A85AB
S11311F004969A878987EB85FC853296FC87EB8772
S1131200C414D5040CF01CC2DE82CD82C601841540
S113121095050CF04EC09601220F331F220F331F89
S1131220220F331F280D391D220F331F220F331FA6
S113123024573D4F860156013A832983E981FA8177
S113124060817181828193810E9400147B017723E4
S113125024F4EE24FF24E61AF70AF501EE0FFF1F2B
S1131260EE0FFF1FEE0FFF1FE80DF91DEE0FFF1F1E
S1131270EE0FFF1FE457FD4F6081718182819381DE
S11312800E9400149B01772324F422273327261B72
S1131290370B2E153F050CF458010F5F1F4F2981A2
S11312A03A81205E3F4F3A8329830415150534F2B1
S11312B001C05601F501EE0FFF1FEE0FFF1FEE0FE9
S11312C0FF1FE80DF91DEE0FFF1FEE0FFF1FE45780
S11312D0FD4F60817181828193810E9400149B0182
S11312E0772324F422273327261B370BB901330F26
S11312F0880B990B0E94381425E93FEB46ED53E324
S11313000E94331388230CF489C0281439040CF484
S11313109DC1F501EE0FFF1FEE0FFF1FEE0FFF1F24
S1131320E80DF91DEE0FFF1FEE0FFF1FE457FD4FF1
S1131330AD81BE81AA0FBB1FAA0FBB1FAA0FBB1F83
S1131340A80DB91DAA0FBB1FAA0FBB1FA457BD4FE1
S1131350C40140815181628173810D911D912D9150
S11313603C91139701931193219331934D935D9382
S11313706D937D930196281639065CF767C18D81BC
S11313809E8186159705D9F1F6012081318142812C
S11313905381F50160817181828193810E9454138C
S11313A069837A838B839C832814390444F1BE8631
S11313B0AD86EF80F8848401F70121913191419148
S11313C051917F0169817A818B819C810E94AD1644
S11313D09B01AC01ED85FE856081718182819381E1
S11313E00E947C12ED85FE856193719381939193A4
S11313F0FE87ED870F5F1F4F20163106ECF6FFEFD7
S11314006F1A7F0A20E2A20EB11C4614570409F099
S1131410B6CFCD80DE803FEFC31AD30A4FEF841AD4
S1131420940A2814390409F0E1CE0AC111921192E8
S113143011921192019682159305C4F305C01816F2
S113144019060CF446C0DDC00F2EF2E6EF2EF2E0D2
S1131450FF2EF02D1A821982F701819191917F015B
S11314608F3FFFEF9F0749F1880F991F880F991F3E
S1131470880F991FDC01A20DB31DAA0FBB1FAA0F71
S1131480BB1FA457BD4F29813A81820F931FFC01D2
S1131490EE0FFF1FEE0FFF1FE457FD4F2081318138
S11314A0428153816D917D918D919C910E94541341
S11314B0F801608371838283938329813A812F5F4A
S11314C03F4F3A8329830C5F1F4F2215330524F2C3
S11314D0DBC0C101880F991F880F991FFC01E457D5
S11314E0FD4F4F010CE812E09C0120593D4F59017A
S11314F0612C712C78015E824D823A822982898125
S11315009A811816190644F02FC029803A801214C3
S113151013040CF45FC078C000E712E0F886EF8291
S1131520312C512CC12CD12CF801619171918191F4
S113153091918F01EF81F8852191319141915191E0
S1131540F887EF830E94AD169B01AC01632D752DC6
S11315508C2D9D2D0E947D12362E572EC82ED92EED
S11315600A151B0509F704C0312C512CC12CD12CB0
S1131570F4012081318142815381632D752D8C2D9D
S11315809D2D0E947C120E9400149B01772324F459
S113159022273327261B370BB901330F880B990BEE
S11315A00E94381425E93FEB46ED53E30E94DA1517
S11315B018166CF1FFEF6F1A7F0A20E2820E911C5D
S11315C030E2E30EF11C8D819E81681679060CF4DD
S11315D096CF9BCF80916202909163020196D1F0E5
S11315E0E4E6F2E080E090E005C0219131912F3FE4
S11315F03F4F99F0019682159305BCF381E090E08A
S113160048C081E090E045C081E090E042C080E0C5
S113161090E03FC082E090E03CC082E090E039C0BE
S1131620141415046CF48CE892E09A8789871E825E
S11316301D82812C912C80E090E0C12CD12CE7CD2F
S113164000E712E0F80180E090E0F0CE2D813E81C9
S1131650EB85FC8531832083C901880F991F880F8E
S1131660991F880F991F880D991D880F991F880F3E
S1131670991FFC01E457FD4FF887EF83A984BA84CE
S1131680612C712C6F017BCE141415040CF421CF42
S1131690A1CF2E960FB6F894DEBF0FBECDBFDF915B
S11316A0CF911F910F91FF90EF90DF90CF90BF905B
S11316B0AF909F908F907F906F905F904F903F90EE
S11316C02F900895CF93DF93CDB7DEB7C054D109DF
S11316D00FB6F894DEBF0FBECDBF8DE0ECECF1E0A9
S11316E0DE01119601900D928A95E1F7AE014F5FEC
S11316F05F4F61E081E00E94B70384E1E9EDF1E02E
S1131700DE011E9601900D928A95E1F7AE01425FCB
S11317105F4F6CE081E00E94B70381E1EDEEF1E000
S1131720DE01929601900D928A95E1F7AE014E5D2D
S11317305F4F68E181E00E94B7038EE0EEEFF1E0D5
S1131740DE01D39601900D928A95E1F7AE014D5CCE
S11317505F4F64E281E00E94B703C05CDF4F0FB6C5
S1131760F894DEBF0FBECDBFDF91CF910895CF9324
S1131770A1E0B0E064E070E0CD01062E02C0880F65
S1131780991F0A94E2F788BBCB010497FC01E0544B
S1131790FF4F20E030E0C82F592F86B390E0022E8F
S11317A002C0959587950A94E2F780FF23C08C2F99
S11317B0952F408141534430A0F44FEF54E36CE043
S11317C0415050406040E1F700C00000220F331F39
S11317D0220F331F20543F4FF901E80FF91F808176
S11317E01CC08FEF94E34CE0815090404040E1F7FF
S11317F000C000002F5F3F4F34962430310569F656
S11318008FE19EE40197F1F700C000006F5F7F4F06
S11318106830710509F0B0CFADCFCF9108959C0128
S1131820FA019081992351F0D901A60FB71F31967F
S11318309D936F5F7F4F91919111FACFF901E60F5C
S1131840F71F10820895CF93DF93CDB7DEB7CD593C
S1131850D1090FB6F894DEBF0FBECDBF0E942D0391
S113186088248394912CC12CD12C9E012F5F3F4F4F
S11318701901C656DF4F2883CA59D040C556DF4FD9
S11318803882CB59D0400F2EF0E64F2EF0E05F2E79
S1131890F02D6894EE24E2F8F12C81E090E00E2C17
S11318A002C0880F991F0A94E2F788BB8BBBC7015B
S11318B084549F4F5C01320100E010E086B390E055
S11318C0002E02C0959587950A94E2F780FF97C091
S11318D0F50180818334B9F419820E942D03C65620
S11318E0DF4F4881CA59D040C556DF4F5881CB5984
S11318F0D04061E081E00E94B70388248394912C56
S1131900C12CD12C72C08D3309F04CC0CE01C396CA
S11319100E94DF03C656DF4F6881CA59D040C556BE
S1131920DF4F7881CB59D040CE01C3960E947F0807
S1131930FFEF20E732E0F15020403040E1F700C0F3
S11319400000C656DF4F0881CA59D040C556DF4F44
S11319501881CB59D04022E041E00E9466184FEF35
S113196080E792E0415080409040E1F700C00000E1
S11319700E942D03EFEFF0E722E0E150F040204019
S1131980E1F700C00000C656DF4F4881CA59D04075
S1131990C556DF4F5881CB59D04061E081E00E94A9
S11319A0B703B0C0F101EC0DFD1D80833FEFC31AF6
S11319B0D30AF101EC0DFD1D1082C656DF4F48819C
S11319C0CA59D040C556DF4F5881CB59D040682DF5
S11319D081E00E94B70344E1C416D10431F48CE0E1
S11319E0880E911C1982C12CD12C9FEFE4E3FCE0FA
S11319F09150E040F040E1F700C0000077C089B3A7
S1131A0090E0002E02C0959587950A94E2F780FF36
S1131A106DC0F30180818C3391F5C114D10451F46C
S1131A20FFEF24E33CE0F15020403040E1F700C0F8
S1131A3000005CC041E0C41AD108C1018C0D9D1D99
S1131A40C456DF4F99838883CC59D04020E2FC01EF
S1131A502083C656DF4F4881CA59D040C556DF4F50
S1131A605881CB59D040682D81E00E94B703C456F9
S1131A70DF4FE881F981CC59D040108216C0A30110
S1131A80B601C656DF4F8881CA59D040C556DF4FCC
S1131A909881CB59D0400E940F0CF1010190002095
S1131AA0E9F731976F01C218D308C656DF4F488152
S1131AB0CA59D040C556DF4F5881CB59D040682D04
S1131AC081E00E94B703F4E1CF16D10431F42CE095
S1131AD0820E911C1982C12CD12C3FEF44E38CE07F
S1131AE0315040408040E1F700C000000F5F1F4FBD
S1131AF098E1690E711CE4E0AE0EB11C04301105CE
S1131B0009F0DCCE8FE19EE40197F1F700C00000FC
S1131B109FEFE91AF90AE6E04E0E511CF8E0EF16C1
S1131B20F10409F4B0CEB9CEDF92EF92FF920F9395
S1131B301F93CF93DF9300D0CDB7DEB7A1E0B0E021
S1131B4044E050E09D01042E02C0220F331F0A948A
S1131B50E2F728BB9A0124503109F901E054FF4F00
S1131B6000E010E0D22E732F26B330E0002E02C026
S1131B70359527950A94E2F720FF2FC0ED2CF72E18
S1131B8090812FEC290F2730F8F499831A82AE0143
S1131B904F5F5F4F682F81E00E94B7032FEF34E35C
S1131BA08CE0215030408040E1F700C00000000F7D
S1131BB0111F000F111F00541F4FF801EE0DFF1DE0
S1131BC0808190E0C0971CC09FEF24E33CE09150DB
S1131BD020403040E1F700C000000F5F1F4F3496F3
S1131BE00430110509F6EFE1FEE43197F1F700C086
S1131BF000004F5F5F4F4830510509F0A3CFA0CFDD
S1131C000F900F90DF91CF911F910F91FF90EF9064
S1131C10DF9008956F927F928F929F92AF92BF92BE
S1131C20CF92DF92EF92FF920F931F93CF93DF93A4
S1131C30161617060CF052C07C01EC01E60EF71ED6
S1131C40712C01E010E0D12C812C912C5401CC2476
S1131C50C39469908DE2681659F18EE2681651F1C9
S1131C6020E030E040E251E4C501B4010E94AD1629
S1131C704B015C01662D70E060537109072E000C66
S1131C80880B990B0E943814A50194010E947D12BF
S1131C904B015C01DD2079F0C801880F991F000F0A
S1131CA0111F000F111F000F111F080F191F03C070
S1131CB07C2C01C0DC2CEC16FD0659F6B801110F82
S1131CC0880B990B0E9438149B01AC01C501B40127
S1131CD00E945413772029F0905803C060E070E00C
S1131CE0CB01DF91CF911F910F91FF90EF90DF9087
S1131CF0CF90BF90AF909F908F907F906F900895FA
S1131D002F923F924F925F926F927F928F929F9207
S1131D10AF92BF92CF92DF92EF92FF920F931F93F5
S1131D20CF93DF93CDB7DEB760970FB6F894DEBFDD
S1131D300FBECDBF8B87188AA12CB12C8824839425
S1131D40912CCE0101962C018C875D860F2EF0E636
S1131D502F2EF0E03F2EF02D6894662462F8712C4B
S1131D60C401062C02C0880F991F0A94E2F788BBAD
S1131D708BBBF301E454FF4F7F01610100E010E0ED
S1131D8086B390E0002E02C0959587950A94E2F7F9
S1131D9080FF36C0F70180819FEC980F993090F452
S1131DA0F201EA0DFB1D8083FFEFAF1ABF0AF201B7
S1131DB0EA0DFB1D10824C855D856B8581E00E94D8
S1131DC0B70314C08D3309F48EC0A114B10471F4A7
S1131DD08D3261F42DE229831A824C855D856B85F1
S1131DE081E00E94B703AA24A394B12C8FEF94E35B
S1131DF0ECE081509040E040E1F700C0000051C0A9
S1131E0089B390E0002E02C0959587950A94E2F775
S1131E1080FF47C0F60180818C3309F5A114B10419
S1131E2051F4FFEF24E38CE0F15020408040E1F7CF
S1131E3000C000003AC091E0A91AB108F201EA0D0D
S1131E40FB1DFF87EE8720E220834C855D856B8533
S1131E5081E00E94B703EE85FF85108219C08E329F
S1131E60B9F4F889F11114C0F201EA0DFB1D2EE258
S1131E7020838FEFA81AB80AF201EA0DFB1D108225
S1131E804C855D856B8581E00E94B70391E0988B5A
S1131E90EFEFF4E32CE0E150F0402040E1F700C024
S1131EA0000089E0A816B104F1F00F5F1F4F98E11C
S1131EB0C90ED11CE4E0EE0EF11C0430110509F04A
S1131EC05FCF8FE19EE40197F1F700C000009FEF20
S1131ED0691A790AE6E02E0E311CF8E06F167104D7
S1131EE009F03ECF33CF8FE19EE40197F1F700C0B4
S1131EF00000B501CE0101960E940A0E60960FB64D
S1131F00F894DEBF0FBECDBFDF91CF911F910F912B
S1131F10FF90EF90DF90CF90BF90AF909F908F9005
S1131F207F906F905F904F903F902F900895CF9245
S1131F30DF92EF92FF920F931F93CF93DF93CDB76E
S1131F40DEB765970FB6F894DEBF0FBECDBF6C0148
S1131F507B016130710511F40E942D03F60101909B
S1131F600020E9F73197EC19FD091E161F0694F1BC
S1131F703AC0D8019D918D01E1E0F0E0EC0FFD1F26
S1131F80E20FF31F90832F5F3F4F2431310569F433
S1131F901D8AAE014F5F5F4F6E2D81E00E94B70333
S1131FA0BCE0EB0EF11C20E030E0C016D10609F7CE
S1131FB021153105C1F0E1E0F0E0EC0FFD1FE20F67
S1131FC0F31F1082AE014F5F5F4F6E2D81E00E94C0
S1131FD0B70309C0D6018D918D018983CE0EDF1E12
S1131FE021E030E0E2CF65960FB6F894DEBF0FBE75
S1131FF0CDBFDF91CF911F910F91FF90EF90DF90B4
S1132000CF9008952F923F924F925F926F927F925A
S11320108F929F92AF92BF92CF92DF92EF92FF92F4
S11320200F931F93CF93DF93CDB7DEB7C45AD10973
S11320300FB6F894DEBF0FBECDBF8BE1ECE0F2E04B
S1132040DE01119601900D928A95E1F78BE1E7E2AA
S1132050F2E0DE015C9601900D928A95E1F78DE045
S1132060E2E4F2E0DE01D79601900D928A95E1F761
S113207083E1EFE4F2E0DE01AC5BBF4F01900D922F
S11320808A95E1F761E070E0CE0101960E94970F16
S113209088E190E00E94940D1C0161E070E0CE01A3
S11320A04C960E94970F88E190E00E94940DCD55C4
S11320B0DF4F99838883C35AD040181619060CF051
S11320C00EC1C101880F991F880F991F9C012457C5
S11320D03D4FC356DF4F39832883CD59D0408CE818
S11320E092E0CF55DF4F99838883C15AD0400F2E99
S11320F0F0E35F2EF02DC156DF4F19821882CF59BD
S1132100D040FE01E95AFF4FC756DF4FF983E883F9
S1132110C959D0409F01275F3F4FC556DF4F3983D0
S11321202883CB59D0407E0139E8E30EF11C0F2EF1
S1132130FDE56F2EF02D0F2EFBE54F2EF02DC7562B
S1132140DF4F0881C959D040C656DF4F1881CA599C
S1132150D040952C7E2C5F2C121413040CF060C01C
S1132160CF55DF4FA880B980C15AD0400F2EF0E37D
S11321708F2EF02DC12CD12C89E0E0EDF0E0A02FC2
S1132180B12F01900D928A95E1F7C556DF4FE88192
S1132190F981CB59D04025E011922A95E9F7F7014E
S11321A090821182672D752D802F912F0E94A61881
S11321B0F7016082672D752D802F912F0E94A6183C
S11321C0F7014082672D752D802F912F0E94A6184C
S11321D0F7018082672D752D802F912F0E94A618FC
S11321E0F7016082672D752D802F912F0E94A6180C
S11321F061E070E0802F912F0E94970F8CE090E0B7
S11322000E94800EF50161937193819391935F0114
S1132210FFEFCF1ADF0A83942C143D0409F0ACCFEE
S113222080E1EEEDF0E0A02FB12F01900D928A95A0
S1132230E1F7A9961FAE1EAEA997F701908211820D
S1132240672D752D802F912F0E94A618F7016082AB
S1132250672D752D802F912F0E94A61861E070E0E4
S1132260802F912F0E94970F8CE090E00E94800EA7
S1132270C356DF4FE881F981CD59D0406083718323
S113228082839383C156DF4F28813981CF59D0404F
S11322902F5F3F4FC156DF4F39832883CF59D0403A
S11322A09394B096C356DF4FF983E883CD59D04059
S11322B0CF55DF4F88819981C15AD0408096CF5540
S11322C0DF4F99838883C15AD040CD55DF4FE881D1
S11322D0F981C35AD040E217F30709F03DCFB101A9
S11322E0CD55DF4F88819981C35AD0400E94C408DC
S11322F0009739F461E070E0CE01C7960E94970F11
S1132300BAC08130910569F4FFEF2EE934E2F1504F
S113231020403040E1F700C0000012141304A4F080
S1132320AAC00297D1F761E070E0CE018C5B9F4FA9
S11323300E94970F8FEF9EE9E4E281509040E040C5
S1132340E1F700C00000E9CF0F2EF0E7AF2EF2E076
S1132350BF2EF02D0F2EF0E37F2EF02DC12CD12CAB
S11323600F2EF7E05F2EF02D0F2EF9E88F2E912C13
S1132370F02D8C0E9D1EF7E08F0E911C0F2EFDE5A7
S11323806F2EF02DEE24E394F12C87E0E0EFF0E0E3
S1132390DE01A757BF4F01900D928A95E1F7F40132
S11323A0252D11922A95E9F7C956DF4F7882C7592E
S11323B0D040C856DF4F1882C859D040BE01695674
S11323C07F4FCE0187579F4F0E94A618C956DF4FF3
S11323D06882C759D040BE0169567F4FCE018757E6
S11323E09F4F0E94A618B701CE0187579F4F0E94A6
S11323F0970FF50161917191819191915F018E0126
S1132400095A1F4F22E041E00E9466186CE070E018
S1132410C8010E94970F44E050E0C701042E02C097
S1132420880F991F0A94E2F788BBFA01E454FF4F1E
S113243020E030E086B390E0022E02C095958795A7
S11324400A94E2F780FF03C080818D3361F02F5F2F
S11324503F4F34962430310569F74F5F5F4F483062
S11324605105D9F6D8CFFFEFCF1ADF0A73942C1495
S11324703D0409F08ACFCC55DF4F0FB6F894DEBF88
S11324800FBECDBFDF91CF911F910F91FF90EF90C1
S1132490DF90CF90BF90AF909F908F907F906F9080
S11324A05F904F903F902F9008950E947C020E946D
S11324B02D030E94620B8FEF87BB8ABB0E94B70B70
S11324C0813311F40E94230C823311F40E94021010
S11324D080E090E008959F939F770E948A140F9064
S11324E0002042F49058A2EA2AED3FE049E450E487
S11324F00E9494120C9474155058BB27AA270E946A
S113250094120C9474150E943B1538F00E944215E5
S113251020F039F49F3F19F426F40C94FD140EF4C2
S1132520E095E7FB0C94CE14E92F0E94991558F31B
S1132530BA17620773078407950720F079F4A6F5A4
S11325400C94D3150EF4E0950B2EBA2FA02D0B018D
S1132550B90190010C01CA01A0011124FF27591BE4
S113256099F0593F50F4503E68F11A16F040A22FEA
S1132570232F342F4427585FF3CF4695379527955B
S1132580A795F0405395C9F77EF41F16BA0B620B5A
S1132590730B840BBAF09150A1F0FF0FBB1F661FA1
S11325A0771F881FC2F70EC0BA0F621F731F841FE4
S11325B048F4879577956795B795F7959E3F08F00A
S11325C0B0CF9395880F08F09927EE0F97958795CC
S11325D008959F939F77EEE389379E0728F4E4E5F7
S11325E0F0E00E9427150CC00E948A149058A2EAB9
S11325F02AED3FE049EC5FE30E9494120E947415B7
S11326000F9007FC90580895DF93DD27B92FBF770B
S113261040E85FE31616170648075B0718F4D92F3E
S11326200E94DF159F938F937F936F930E940218EC
S1132630E8E6F0E00E9400150E9474152F913F9186
S11326404F915F910E94C016DD2351F09058A2EA89
S11326502AED3FE049EC5FE3D0785D270E949412B5
S1132660DF910C9474150E94AA1408F481E0089573
S113267090680E94CE134FEF5FEF0E94EB159F937B
S11326808F937F936F9342E050E00E94EB150E947A
S1132690DF152F913F914F915F910C947D120E9411
S11326A04B15E3950C9485150E9468130C947415CE
S11326B00E94421558F00E943B1540F029F45F3FF8
S11326C029F00C94CE1451110C94D4150C94FD14CF
S11326D00E94991568F39923B1F3552391F3951B3F
S11326E0550BBB27AA2762177307840738F09F5F2F
S11326F05F4F220F331F441FAA1FA9F335D00E2E9C
S11327003AF0E0E832D091505040E695001CCAF708
S11327102BD0FE2F29D0660F771F881FBB1F2617CB
S113272037074807AB07B0E809F0BB0B802DBF01A2
S1132730FF2793585F4F3AF09E3F510578F00C9471
S1132740CE140C94D4155F3FE4F3983ED4F38695ED
S113275077956795B795F7959F5FC9F7880F911D92
S11327609695879597F90895E1E0660F771F881F7E
S1132770BB1F621773078407BA0720F0621B730B31
S1132780840BBA0BEE1F88F7E095089529F416F030
S11327900C94CE140C94D3150C94FD140E94A11522
S11327A0A8F39638A0F707F80F92E8942BE33AEAD7
S11327B048EB5FE70E94C3160F920F920F924DB73A
S11327C05EB70F920E947916E5E9F0E00E940015C9
S11327D04F915F91EF91FF91E595EE1FFF1F49F037
S11327E0FE57E0684427EE0F441FFA95E1F7419540
S11327F0550B0E94EB150F9007FE0C94DF150895FE
S11328000E9407146894B1110C94D41508950E9481
S1132810A11588F09F5798F0B92F9927B751B0F0B8
S1132820E1F0660F771F881F991F1AF0BA95C9F750
S113283014C0B13091F00E94D315B1E008950C9406
S1132840D315672F782F8827B85F39F0B93FCCF3B9
S1132850869577956795B395D9F73EF490958095CD
S1132860709561957F4F8F4F9F4F0895E89409C0ED
S113287097FB3EF490958095709561957F4F8F4FAF
S11328809F4F9923A9F0F92F96E9BB279395F695C5
S1132890879577956795B795F111F8CFFAF4BB0F43
S11328A011F460FF1BC06F5F7F4F8F4F9F4F16C0A7
S11328B0882311F096E911C0772321F09EE8872F31
S11328C0762F05C0662371F096E8862F70E060E0ED
S11328D02AF09A95660F771F881FDAF7880F969566
S11328E0879597F908950E94BB1590F09F3748F497
S11328F0911116F00C94D41560E070E080E89FEB21
S1132900089526F41B16611D711D811D0C94D414A9
S11329100C94EF14DF93CF931F930F938B01EC016F
S1132920EDEBF0E00E9400150E9474159801AE01D1
S11329308B01EC0160E070E080E89FE30E947C1270
S11329400E94C2179801AE010F911F91CF91DF91A0
S11329500C94C016990F0008550FAA0BE0E8FEEF7F
S113296016161706E807F907C0F012161306E4074F
S1132970F50798F0621B730B840B950B39F40A2648
S113298061F0232B242B252B21F408950A2609F426
S1132990A140A6958FEF811D811D089597F99F672A
S11329A080E870E060E00895882371F4772321F0D3
S11329B09850872B762F07C0662311F499270DC0F2
S11329C09051862B70E060E02AF09A95660F771F8D
S11329D0881FDAF7880F9695879597F908959F3F92
S11329E031F0915020F4879577956795B795880FC6
S11329F0911D9695879597F908959FEF80EC08951A
S1132A00DF93CF931F930F93FF92EF92DF927B019B
S1132A108C01689406C0DA2EEF010E94C016FE01F4
S1132A20E894A5912591359145915591A6F3EF012F
S1132A300E949412FE019701A801DA9469F7DF90CD
S1132A40EF90FF900F911F91CF91DF9108959F9385
S1132A508F937F936F93FF93EF939B01AC010E943D
S1132A60AD16EF91FF910E9400152F913F914F9168
S1132A705F910C94AD1600240A94161617061806D6
S1132A800906089500240A9412161306140605066E
S1132A9008950C94FD140E94A115D8F3E894E0E085
S1132AA0BB279F57F0F02AED3FE049EC06C0EE0F3C
S1132AB0BB0F661F771F881F28F0B23A620773079F
S1132AC0840728F0B25A620B730B840BE3959A9532
S1132AD072F7803830F49A95BB0F661F771F881FF2
S1132AE0D2F790480C94F114092E0394000C11F4BD
S1132AF0882352F0BB0F40F4BF2B11F460FF04C0D5
S1132B006F5F7F4F8F4F9F4F0895EF93E0FF07C094
S1132B10A2EA2AED3FE049EC5FEB0E9494120E9486
S1132B2074150F90039401FC9058E5EEF0E00C94BA
S1132B30271557FD9058440F551F59F05F3F71F00A
S1132B404795880F97FB991F61F09F3F79F0879510
S1132B500895121613061406551FF2CF4695F1DF99
S1132B6008C0161617061806991FF1CF8695710529
S1132B706105089408950E94A115A0F0BEE7B91755
S1132B8088F4BB279F3860F41616B11D672F782F81
S1132B908827985FF7CF869577956795B11D9395AC
S1132BA09639C8F30895E894BB2766277727CB01A5
S1132BB097F908950E94AA1408F48FEF08959B01D1
S1132BC0AC0160E070E080E89FE30C9454130C9433
S1132BD0CE140C94EF140E94A115D8F39923C9F3D1
S1132BE0940F511DA3F39150504094F059F0882351
S1132BF032F0660F771F881F91505040C1F79E3FF7
S1132C0051052CF7880F911D9695879597F908958E
S1132C105F3FACF0983E9CF0BB278695779567950F
S1132C20B79508F4B1609395C1F7BB0F58F711F449
S1132C3060FFE8CF6F5F7F4F8F4F9F4FE3CF0C94C0
S1132C40D4150E94311629ED3BE54EED5EE30C945C
S1132C50AD1616F00C94EF140C94FD1468940C94B7
S1132C60CE140E94A115A8F39923C1F3AEF3DF9308
S1132C70CF931F930F93FF92C92FDD2788232AF048
S1132C802197660F771F881FDAF720E030E040E8CD
S1132C905FEB9FE3883920F0803E38F021968F77F0
S1132CA00E947D12E3E0F1E004C00E947D12E0E3A3
S1132CB0F1E00E9400158B01BE01EC01FB2E6F5761
S1132CC071097595771F880B990B0E94381428E1B8
S1132CD032E741E35FE30E94C016AF2D9801AE01D5
S1132CE0FF900F911F91CF91DF910E9494120C9449
S1132CF07415FA01DC01AA0FBB1F9B01AC01BF577D
S1132D0028F4222733274427507820C0B75190F461
S1132D10AB2F0024469537952795011CA395D2F334
S1132D20002071F0220F331F441FB395DAF30ED045
S1132D300C947C1261307105A0E88A07B94630F41E
S1132D409B01AC016627772788279078309621F07D
S1132D50208331834283538308950E94C0160C94C8
S1132D6074150E943B1538F00E94421520F09523FB
S1132D7011F00C94CE140C94FD1411240C94D4155D
S1132D800E94991570F3959FC1F3950F50E0551F5C
S1132D90629FF001729FBB27F00DB11D639FAA27AC
S1132DA0F00DB11DAA1F649F6627B00DA11D661FFB
S1132DB0829F2227B00DA11D621F739FB00DA11D1C
S1132DC0621F839FA00D611D221F749F3327A00DD6
S1132DD0611D231F849F600D211D822F762F6A2F72
S1132DE011249F5750409AF0F1F088234AF0EE0FD7
S1132DF0FF1FBB1F661F771F881F91505040A9F704
S1132E009E3F510580F00C94CE140C94D4155F3F72
S1132E10E4F3983ED4F3869577956795B795F7953F
S1132E20E7959F5FC1F7FE2B880F911D96958795B7
S1132E3097F90895FA01EE0FFF1F30962105310529
S1132E40A1F16115710561F48038BFE39B0749F175
S1132E5068949038810561F08038BFEF9B0741F09A
S1132E6099234AF5FF3FE1053105210519F1E8945D
S1132E700894E795D901AA2329F4AB2FBE2FF85F54
S1132E80D0F310C0FF5F70F4A695E0F7F73950F067
S1132E9019F0FF3A38F49F779F930DD00F9007FCF9
S1132EA09058089546F00C94FD1460E070E080E8BA
S1132EB09FE308954FE79F775F934F933F932F933B
S1132EC00E9431162F913F914F915F910E94AD1650
S1132ED00C94CE130E94A115E8F09E37E8F09639C1
S1132EE0B8F49E3848F4672F782F8827985FF9CF75
S1132EF086957795679593959539D0F3B62FB170EC
S1132F006B0F711D811D20F48795779567959395B7
S1132F100C94D4140C94EF140C94D4159F939F77B1
S1132F20FEE3803A9F0728F4EDE5F1E00E942715BF
S1132F3017C090680E94CE134FEF5FEF0E94EB150D
S1132F409F938F937F936F9342E050E00E94EB1521
S1132F500E94DF152F913F914F915F910E947C1247
S1132F600F9007FC906808959F930E944B150F9053
S1132F7007FCEE5F0C94851519F416F40C94FD14FB
S1132F800C94EF140E94A115B8F39923C9F3B6F376
S1132F909F57550B87FF0E945F180024A0E640EA64
S1132FA0900180585695979528F4805C660F771F9A
S1132FB0881F20F026173707480730F4621B730B6D
S1132FC0840B202931294A2BA69517940794202590
S1132FD031254A2758F7660F771F881F20F02617D8
S1132FE03707480730F4620B730B840B200D311D37
S1132FF0411DA09581F7B901842F9158880F9695AA
S1133000879508959B01AC010C94AD169F939F770F
S1133010FEE380319F0728F4ECE6F1E00E942715D7
S113302025C0906841E050E00E94EB150E94CE1349
S11330309F938F937F936F9320E030E040E85FE3AA
S11330400E947D122F913F914F915F919F938F9397
S11330507F936F9360E070E080E89FE30E947C12AE
S11330602F913F914F915F910E9454130F9007FC51
S113307090580895DF93D92F0E944B15E695D79564
S11330802AED3FE049E45FE3B33A6207730784073C
S11330909507D7953AF0A2EA49EC90680E949412F9
S11330A00E947415EBE7F1E00E942715DD0F13F081
S11330B00E94DF15DD0F0BF49058DF9108959150B5
S11330C05040660F771F881FD2F70895EF920F9331
S11330D01F93CF93DF93E80147FD02C034E001C0A2
S11330E034E1042E000C550B57FF03C05195419554
S11330F05109E32E022F242FAE010E94CC18CE01D9
S1133100DF91CF911F910F91EF9008956627772754
S11331100C94261A85FD0C944C1C806291110C941D
S11331204C1C81568A51D8F7089591110C944C1C6B
S1133130803219F089508550C8F708959111089587
S113314081568A5108F4805285580895FB01DC01A8
S11331500D900020E9F7119701900D920020E1F7FE
S11331600895FC018191861721F08823D9F79927C6
S113317008953197CF010895FB01DC018D910190F1
S113318080190110D9F3990B0895FB01DC0101901A
S11331900D920020E1F70895A9E0B0E0E2EDF8E136
S11331A00C94781C6A01122FB02E2BE3201720F008
S11331B0FF24F394F00E02C02CE3F22E0F2D27E02F
S11331C0AE014F5F5F4F0E94741BBC014981842F85
S11331D08970813031F0E1FC06C0E0FE06C090E267
S11331E005C09DE203C09BE201C090E05E2D5071DA
S11331F043FF3CC0911102C083E001C084E0811709
S113320018F4212F281B01C020E051110BC0F60136
S1133210822F30E2882319F031938150FBCFC20E04
S1133220D11C20E0992329F0D6019C93F601319614
S11332306F01C6010396E2FE0AC03EE4D6013C9348
S113324041E411964C93119712963C9306C03EE6C6
S1133250F601308341E641833283FC01322F40E2A0
S1133260332309F442C041933150FACF42FF44C0A2
S1133270911102C083E001C084E0811718F4212F6A
S1133280281B01C020E051110BC0F601822F30E24F
S1133290882319F031938150FBCFC20ED11C20E05A
S11332A0992329F0D6019C93F60131966F01C6014A
S11332B00396E2FE0BC039E4D6013C933EE411963A
S11332C03C93119736E412963C9307C039E6F60115
S11332D030833EE6318336E63283FC01322F40E20E
S11332E0332319F041933150FBCFFC01E20FF11D60
S11332F010828EEF9FEFA6C021E030E0911102C052
S113330020E030E0161617061CF4FB01319602C0CB
S1133310E1E0F0E02E0F3F1FBB2021F0EB2DF0E0A9
S1133320319602C0E0E0F0E02E0F3F1FE12FF0E005
S11333302E173F071CF4121B212F01C020E08E2DF5
S1133340887159F4F601822F30E2882319F0319301
S11333508150FBCFC20ED11C20E0992329F0D60165
S11333609C93F60131966F0151110BC0F601822F27
S113337090E3882319F091938150FBCFC20ED11CA6
S113338020E00F2D060F9A81342F307144FF03C0C3
S1133390913309F40150101624F4093018F008E0B0
S11333A001C001E0AB0177FF02C040E050E0FB0147
S11333B0E41BF50BA1E0B0E0AC0FBD1FEA0FFB1F4F
S11333C08EE2A82E4B01801A91080B2D10E0119566
S11333D0019511094F3FBFEF5B0721F4D601AC9271
S11333E011966D01641775072CF08416950614F474
S11333F0818101C080E3415051093196D601119673
S11334007D014017510724F0D6018C936701E2CF68
S11334106417750739F4963320F4953319F4311190
S113342001C081E3F6018083F701822F90E28823B3
S113343019F091938150FBCFF701E20FF11D108237
S113344080E090E02996ECE00C94941CA0E0B0E0BD
S1133450ECE2FAE10C94781CEC016B016115710546
S113346019F0FB01918380837E01FFEFEF1AFF0ABD
S11334700881802F90E00E949518892B11F0E701B4
S1133480F3CF0D3239F47E0182E0E80EF11C09819C
S113349011E008C00B3229F47E0192E0E90EF11C20
S11334A0098110E0E701219743E050E066EA71E00A
S11334B0CE010E944F1C892BC1F4239645E050E0B5
S11334C061EA71E0CE010E944F1C892B09F4259614
S11334D0C114D10419F0F601D183C0831111F6C0CF
S11334E060E070E080E89FE7FAC043E050E06EE9F6
S11334F071E0CE010E944F1C892B59F4C114D104F0
S113350009F4E9C0F2E0EF0EF11CF601F182E08269
S1133510E2C020E030E0A901C0E0D0E0F70180ED96
S1133520A82EA00E89E08A1530F1912F9260B92E51
S1133530812F887012FF04C0811124C0219622C0FB
S113354081112197A5E0B0E00E94671CDC01CB014A
S1133550880F991FAA1FBB1F9C01AD012A0D311DA5
S1133560411D511D283989E93807480789E1580761
S113357048F0166006C09EEFA9120AC013FD40C0B1
S11335801860B12E8FEFE81AF80A00811B2DC6CF00
S1133590802F8F7D8534A1F580818D3211F41061E7
S11335A006C08B3221F0319661E070E004C0818165
S11335B0329662E070E080538A3018F0E61BF70B15
S11335C01FC060E070E060389CE079075CF4DB01C8
S11335D0AA0FBB1FAA0FBB1F6A0F7B1F660F771FA3
S11335E0680F711D3196DF0111978C9180538A30D9
S11335F050F314FF03C0719561957109C60FD71F6D
S113360011FF08C0C114D10429F0CF010197F601BC
S113361091838083CA01B9010E943614212F23703B
S1133620233019F04B015C0106C04B015C01B7FA71
S1133630B094B7F8B09420E030E0A901C501B4011A
S11336400E943313882309F43EC0D7FF06C0D195E6
S1133650C195D1090DEB11E002C005ED11E068013F
S1133660F8E1CF1AD10890E2E92EF12CCE15DF054E
S113367074F0F8012591359145915491C501B40137
S11336800E94AD164B015C01CE19DF09EFCF045047
S11336901109F594E7940C151D0541F78A2D880F3F
S11336A08B2D881F8F3F49F020E030E0A901C50130
S11336B0B4010E943313811106C082E290E090931A
S11336C06D0780936C07C501B40109C060E070E028
S11336D080E89FEF04C060E070E080EC9FE7CDB726
S11336E0DEB7ECE00C94941C283008F027E0332774
S11336F0DA01990F311D87FD91600096610571050E
S113370039F432602E5F3D9330E32A95E1F7089552
S11337109F3F30F080387105610509F03C5F3C5FE4
S11337203D93913008F08068911DDF93CF931F93F0
S11337300F93FF92EF92192F987F9695E92F969504
S11337409695E90FFF27ED5CFD4F99273327EE246B
S1133750FF24A701E70105900894079428F4360F85
S1133760E71EF81E491F511D660F771F881F991FFA
S11337700694A1F70590079428F4E70EF81E491F54
S1133780561FC11D770F881F991F661F0694A1F746
S11337900590079428F4F80E491F561FC71FD11D22
S11337A0880F991F661F771F0694A1F70590079449
S11337B020F4490F561FC71FD81F990F661F771F84
S11337C0881F0694A9F784911095177041F0D69537
S11337D0C79557954795F794E7941A95C1F7E9ED7E
S11337E0F1E0689415901591359165919591059046
S11337F07FE27395E118F10A430B560BC90BD0090C
S1133800C0F7E10CF11E431F561FC91FD01D7EF4E3
S1133810703311F48A95E6CFE894015030F0080F24
S11338200AF40027021708F4202F2395022F7A3375
S113383028F079E37D932A95E9F710C07D932A95C2
S113384089F6069497956795379517951794E11817
S1133850F10A430B560BC90BD00998F023957E91BE
S113386073957A3308F070E37C932013B8F77E9154
S113387070617D9330F0839571E37D9370E32A95B5
S1133880E1F71124EF90FF900F911F91CF91DF91F9
S1133890992787FD90950895992788270895FB0116
S11338A0DC014150504088F08D9181341CF08B35FF
S11338B00CF4805E659161341CF06B350CF4605E31
S11338C0861B611171F3990B0895881BFCCF0E942C
S11338D0A91CA59F900DB49F900DA49F800D911DD0
S11338E0112408952F923F924F925F926F927F928C
S11338F08F929F92AF92BF92CF92DF92EF92FF92FC
S11339000F931F93CF93DF93CDB7DEB7CA1BDB0BA7
S11339100FB6F894DEBF0FBECDBF09942A8839884C
S113392048885F846E847D848C849B84AA84B98453
S1133930C884DF80EE80FD800C811B81AA81B9815F
S1133940CE0FD11D0FB6F894DEBF0FBECDBFED0173
S11339500895A29FB001B39FC001A39F700D811D64
S11339601124911DB29F700D811D1124911D089584
S1073970F894FFCFF5
S113397473696E280000636F7328000074616E28F5
S113398400007371727428005E0000000000580087
S1133994000000005900000000003C2D000000005D
S11339A42C00000000002E0000000000280000008D
S11339B40000290000000000430000000000430050
S11339C40000000043000000000043000000000069
S11339D43738392F3435362A3132332D43303D2BA1
S11339E4496E70757420615B000000000000496E2C
S11339F470757420636F6C756D6E20645B000000D9
S1133A04416E7320785B00000000000000002B2D41
S1133A142A2F255E3D282900202B2D2F2A255E3DA3
S1133A242829090D004F6E6C79206669727374201D
S1133A346C6574746572206F662076617269616264
S1133A446C657320697320636F6E73696465726552
S1133A546400556E62616C616E63656420506172CA
S1133A64656E746865736573004153494E00414340
S1133A744F53004154414E004153494E4800414381
S1133A844F5348004154414E48004C4E004C4F475C
S1133A940045585000535152540053515200524F50
S1133AA4554E4400494E5400556E6B6E6F776E202C
S1133AB446756E6374696F6E0053796E7461782011
S1133AC44572726F72004E6F20457870726573731D
S1133AD4696F6E2050726573656E7400312E436194
S1133AE46C63756C61746F7200322E476175737305
S1133AF420456C696D696E6174696F6E00332E4E76
S1133B046577746F6E2052617068736F6E00342E23
S1133B14496E746567726174696F6E004E756D6287
S1133B246572206F66205661726961626C657320E8
S1133B3428312D37293F004E756D626572206F66FA
S1133B44206571756174696F6E732028312D37296E
S1133B543F004E6F20536F6C7574696F6E2100497A
S1133B646E66696E69746520536F6C7574696F6EE3
S1053B7421002A
S9030000FC
