S01700004763634170706C69636174696F6E312E737265635B
S11300000C945A020C9477020C9477020C947702A5
S11300100C9477020C9477020C9477020C94770278
S11300200C9477020C9477020C9477020C94770268
S11300300C9477020C9477020C9477020C94770258
S11300400C9477020C9477020C9477020C94770248
S11300500C947702036EDB363D9A9999993DABAACD
S1130060AA2A3E000000803F084AD73B3BCE016EDF
S113007084BCBFFDC12F3D6C74319ABD56833DDAFB
S11300803D00C77F11BED9E4BB4C3E916BAAAABE0A
S1130090000000803F07634236B79BD8A71A39682F
S11300A05618AEBAAB558C1D3CB7CC5763BD6DED3D
S11300B0FD753EF6177231BF000000803F072C7AB1
S11300C0A5BA6CC590DA3B9365FC8BBC53F810FD64
S11300D03C5692834DBD879D3AB63DCBC9BF5BBEAE
S11300E073DA0FC93F05A84CCDB2D44EB93836A93E
S11300F0020C50B9918688083CA6AAAA2ABE000020
S113010000803F08000000BE922449123EABAAAA18
S11301102ABECDCCCC4C3E00000080BEABAAAAAA1D
S11301203E00000000BF000000803F00000000000F
S1130130084178D3BB4387D1133D190E3CC3BD425C
S113014082AD2B3E68EC8276BED98FE1A93E4C800D
S1130150EFFFBE01C4FF7F3F00000000000289885A
S1130160083CABAAAA2A3E000000803F0289880806
S11301703EABAAAAAABE000000803F0664EC1B3C6A
S113018004BC163E3BE5B93CC93C37C29E5A3D66A9
S11301900498083EEA69AAAA3E000000803F4E4146
S11301A04E494E495459494E46CDCCCC3D0AD723ED
S11301B03C17B7D13877CC2B329595E6241FB14F35
S11301C00A000020410000C84200401C4620BCBE7A
S11301D04CCA1B0E5AAEC59D7400407A10F35A00E7
S11301E0A0724E18090010A5D4E80000E87648175C
S11301F00000E40B54020000CA9A3B000000E1F541
S113020005000080969800000040420F000000A006
S11302108601000000102700000000E80300000031
S1130220006400000000000A00000000000100005B
S11302300000002C76D888DC674F0823DFC1DFAECE
S113024059E1B1B796E5E3E453C63AE65199769697
S1130250E8E6C28426EB898C9B62ED407C6FFCEF60
S1130260BC9C9F40F2BAA56FA5F490055A2AF75C8E
S1130270936B6CF9676DC11BFCE0E40D47FEF52040
S1130280E6B500D0ED902E03009435770500808408
S11302901E080000204E0A000000C80C333333331C
S11302A00F986E12831141EF8D2114893BE6551688
S11302B0CFFEE6DB18D1844B381BF77C1D901DA4C0
S11302C0BBE424203284725E228100C9F124ECA1B3
S11302D0E53D27000000000000005F00000007006B
S11302E00700147F147F14242A7F2A12231308641E
S11302F06236495522500005030000001C224100CB
S11303000041221C00082A1C2A0808083E0808008C
S113031050300000080808080800303000002010A1
S11303200804023E5149453E00427F40004261516B
S113033049462141454B311814127F102745454544
S1130340393C4A494930017109050336494949365E
S1130350064949291E0036360000005636000000C2
S11303600814224114141414144122140800020124
S1130370510906324979413E7E1111117E7F494966
S113038049363E414141227F4141221C7F4949492E
S1130390417F090901013E414151327F0808087F2C
S11303A000417F41002040413F017F081422417FEA
S11303B0404040407F0204027F7F0408107F3E419A
S11303C041413E7F090909063E4151215E7F0919D9
S11303D02946464949493101017F01013F404040D6
S11303E03F1F2040201F7F2018207F6314081463C0
S11303F00304780403615149454300007F414102ED
S11304000408102041417F0000040201020440401E
S1130410404040000102040020545454787F484472
S113042044383844444420384444487F385454546D
S113043018087E090102081454543C7F0804047807
S113044000447D40002040443D00007F10284400CB
S1130450417F40007C041804787C08040478384404
S11304604444387C14141408081414187C7C0804BC
S113047004084854545420043F4440203C40402045
S11304807C1C2040201C3C4030403C442810284424
S11304900C5050503C4464544C4400083641000015
S11304A0007F0000004136080008082A1C08081CC8
S11304B02A08080011241FBECFE5D8E0DEBFCDBF57
S11304C011E0A0E6B0E0E2E2FAE202C005900D928B
S11304D0AE3DB107D9F725E0AEEDB1E001C01D9204
S11304E0A03EB207E1F70E94F60A0C940F150C9493
S11304F00000AC9AAC9808958FEF81BBA09AA49A9F
S1130500A39AA29AA19AA9982FE788E391E021508F
S113051080409040E1F700C00000A99A2FE788E3EB
S113052091E0215080409040E1F700C00000A8987D
S1130530AB9AAA9A8FE382BB0E94790280EC82BBB9
S11305400E9479022FE788E391E021508040904097
S1130550E1F700C000002FE788E391E021508040DC
S11305609040E1F700C00000AB98AA9808950F935B
S11305701F93CF93DF93C82F042F683068F0862F22
S113058088508830E8F7162F1770D8EFD60FD69515
S1130590D695D695DF5F02C0162FD0E0C03480F424
S11305A0A898AB9AAA98D7708D2F886B82BB0E94AB
S11305B07902CF738C2F806482BB0E94790211C0B0
S11305C0C054A898AB98AA9AD7708D2F886B82BB19
S11305D00E947902CF738C2F806482BB0E947902BF
S11305E0C05CA89A0130D1F4EC2FF0E0EE0FFF1FAD
S11305F0EE0FFF1FEE0FFF1FE252FE4FED0FF11D36
S113060081E090E002C0880F991F1A95E2F790816B
S1130610892B808382BB0E9479021AC0EC2FF0E000
S113062081E090E002C0880F991F1A95E2F7809547
S1130630EE0FFF1FEE0FFF1FEE0FFF1FE252FE4FE4
S1130640ED0FF11D90818923808382BB0E94790282
S1130650DF91CF911F910F910895FF920F931F93F4
S1130660CF93DF9300E010E0F12CD02FCF2DEC2FAF
S1130670F0E0EE0FFF1FEE0FFF1FEE0FFF1FE25221
S1130680FE4FE00FF11F1082C03480F4A898AB9A9B
S1130690AA98D7708D2F886B82BB0E947902CF7382
S11306A08C2F806482BB0E94790211C0C054A89828
S11306B0AB98AA9AD7708D2F886B82BB0E9479025F
S11306C0CF738C2F806482BB0E947902C05CA89A8D
S11306D012BA0E947902CF5F52F60F5F1F4F0830A3
S11306E0110519F6DF91CF911F910F91FF90089595
S11306F0CF92DF92EF92FF920F931F93CF93DF93EA
S1130700D62E4052242F30E08901000F111F000F14
S1130710111F020F131F0D521D4F0F2EF5E0CF2E88
S1130720F02DC80EE82EFD2CC0E0D0E0F801449175
S113073050E00C2E02C0559547950A94E2F741709B
S11307406F2D8E2D0E94B7022196F394C830D105E7
S113075069F70F5F1F4FE394CE10E5CFDF91CF9180
S11307601F910F91FF90EF90DF90CF900895EF923B
S1130770FF920F931F93CF93DF93FA010190002010
S1130780E9F73197E41BF50B1E161F068CF4D62FE0
S11307908A017A01EE0EFF1EC82FF80141918F01E4
S11307A06D2F8C2F0E947803CA5F0E151F05A9F7C1
S11307B0DF91CF911F910F91FF90EF900895FC016D
S11307C011821082B1969C01275B3F4F11921192C6
S11307D011921192E217F307C9F7FC01E75BFF4F8F
S11307E010820895AF92BF92CF92DF92EF92FF9260
S11307F00F931F93CF93DF936C01DC0190961C92AF
S1130800909712961C921297ED91FC918081882307
S113081009F4A9C0F601C081D181F8800F2D10E040
S1130820C8010E94CE10892B29F02196D601CD93C0
S1130830DC93F0CFB80180ED90E00E94DF10892BAB
S113084089F081E0F60180A35601F3E0AF0EB11CFC
S1130850CE010196D60111969C938E9388811296AF
S11308608C936BC05601B2E0AB0EB11CC8010E9460
S1130870C610892BB9F175015701F601C081D181E8
S11308801881612F70E08AED90E00E94DF10892BBF
S113089089F4112379F0CE010196D6018D939C93AE
S11308A0888190E00E94D710F7018083FFEFEF1A50
S11308B0FF0AE2CFD601CD91DC911881812F90E01F
S11308C00E94CE10892B29F02196F601D183C08392
S11308D0F1CF183211F082E001C084E0D601909685
S11308E08C932BC08F2D90E0C0970A9718F0BEE22E
S11308F0FB1223C075015701F601C081D181188113
S1130900612F70E08AED90E00E94DF10892B89F45A
S1130910112379F0CE010196D6018D939C938881A1
S113092090E00E94D710F7018083FFEFEF1AFF0ACF
S1130930E2CF83E0D60190968C93F5011082D60124
S113094090968C919097823071F413968C911397B2
S1130950882349F0A75BBF4F8DE2E7EEF0E00190FA
S11309600D928A95E1F7DF91CF911F910F91FF903E
S1130970EF90DF90CF90BF90AF900895EF92FF92E9
S11309800F931F93CF93DF9300D000D0CDB7DEB782
S11309908C017B010E94C307F80182818B32E1F054
S11309A08D32A1F5C8010E94F203BE016F5F7F4F33
S11309B0C8010E94C30729813A814B815C81F701F8
S11309C060817181828193810E94190BF701608398
S11309D0718382839383E0CFC8010E94F203BE0136
S11309E06F5F7F4FC8010E94C30729813A814B8101
S11309F05C81F70160817181828193810E941A0B6D
S1130A00F7016083718382839383C6CF0F900F9025
S1130A100F900F90DF91CF911F910F91FF90EF9066
S1130A200895DF92EF92FF920F931F93CF93DF937A
S1130A30CDB7DEB76E970FB6F894DEBF0FBECDBF4D
S1130A408C017B01DC019096DC90B4E0DB120AC0DF
S1130A50BC016E5F7F4FCE0101960E94F310C80166
S1130A600E94F203D8011296EC91E83209F0DBC13E
S1130A70C8010E94F203B701C8010E94BE04F80134
S1130A808281893251F087E1E4E1F1E0D801A75B8A
S1130A90BF4F01900D928A95E1F7F4E0DF12BFC1D8
S1130AA06CE271E0CE0101960E94EA10892B99F460
S1130AB025E33AEF4EE85CE3D7016D917D918D918A
S1130AC09C910E94E60E0E94ED0FF70160837183F2
S1130AD082839383A4C161E371E0CE0101960E94F5
S1130AE0EA10892B99F425E33AEF4EE85CE3D70149
S1130AF06D917D918D919C910E94E60E0E94E70B71
S1130B00F701608371838283938389C166E371E013
S1130B10CE0101960E94EA10892B99F425E33AEF5D
S1130B204EE85CE3D7016D917D918D919C910E947B
S1130B30E60E0E947310F7016083718382839383AE
S1130B406EC16BE271E0CE0101960E94EA10892B1E
S1130B5099F4D7016D917D918D919C910E94860BA2
S1130B6020EE3EE245E652E40E94E60EF701608381
S1130B7071838283938353C160E371E0CE01019654
S1130B800E94EA10892B99F4D7016D917D918D9182
S1130B909C910E94080B20EE3EE245E652E40E943E
S1130BA0E60EF701608371838283938338C165E322
S1130BB071E0CE0101960E94EA10892B99F4D701C5
S1130BC06D917D918D919C910E94A10B20EE3EE24E
S1130BD045E652E40E94E60EF70160837183828346
S1130BE093831DC16BE371E0CE0101960E94EA106C
S1130BF0892B69F4D7016D917D918D919C910E940F
S1130C00C70FF701608371838283938308C161E412
S1130C1071E0CE0101960E94EA10892B69F4D70194
S1130C206D917D918D919C910E94D00BF701608311
S1130C30718382839383F3C067E471E0CE010196EC
S1130C400E94EA10892B69F4D7016D917D918D91F1
S1130C509C910E943F10F701608371838283938388
S1130C60DEC06AE371E0CE0101960E94EA10892B8E
S1130C7069F4D7016D917D918D919C910E94860BB1
S1130C80F7016083718382839383C9C060E471E058
S1130C90CE0101960E94EA10892B69F4D7016D9167
S1130CA07D918D919C910E94080BF7016083718363
S1130CB082839383B4C066E471E0CE0101960E94FE
S1130CC0EA10892B69F4D7016D917D918D919C91E6
S1130CD00E94A10BF70160837183828393839FC079
S1130CE06CE471E0CE0101960E94EA10892B69F44C
S1130CF0D7016D917D918D919C910E946A0EF701AF
S1130D0060837183828393838AC06FE471E0CE0130
S1130D1001960E94EA10892B69F4D7016D917D91A7
S1130D208D919C910E945A0EF70160837183828396
S1130D30938375C063E571E0CE0101960E94EA10C9
S1130D40892B69F4D7016D917D918D919C910E94BD
S1130D50660CF701608371838283938360C067E5C7
S1130D6071E0CE0101960E94EA10892B69F4D70143
S1130D706D917D918D919C910E94FB0FF701608391
S1130D807183828393834BC06CE571E0CE0101963D
S1130D900E94EA10892B79F4D7016D917D918D9190
S1130DA09C919B01AC010E94E60EF7016083718364
S1130DB08283938334C060E671E0CE0101960E9481
S1130DC0EA10892B69F4D7016D917D918D919C91E5
S1130DD00E94A30FF70160837183828393831FC0F2
S1130DE066E671E0CE0101960E94EA10892B69F44F
S1130DF0D7016D917D918D919C910E94D50CF70145
S1130E0060837183828393830AC081E1EAE6F1E01F
S1130E10D801A75BBF4F01900D928A95E1F7C801F5
S1130E200E94F20336C0D80190968C91823019F05A
S1130E308330B9F024C0F0E0E154F109EE0FFF1F54
S1130E40EE0FFF1FE00FF11F81A192A1A3A1B4A196
S1130E50F70180839183A283B383C8010E94F203C4
S1130E6018C0C80102960E94BF10D7016D937D93EC
S1130E708D939C931397C8010E94F2030AC0D80172
S1130E80A75BBF4F8DE0EBE7F1E001900D928A95EF
S1130E90E1F76E960FB6F894DEBF0FBECDBFDF91BB
S1130EA0CF911F910F91FF90EF90DF9008950F93D2
S1130EB01F93CF93DF93EC018B0188A1813019F448
S1130EC08A818B3241F08A818D3269F0B801CE017A
S1130ED00E94110519C0CE010E94F203B801CE018F
S1130EE00E94110511C0CE010E94F203B801CE0187
S1130EF00E941105F80180819181A281B381B058CB
S1130F0080839183A283B383DF91CF911F910F914B
S1130F100895EF92FF920F931F93CF93DF9300D026
S1130F2000D0CDB7DEB78C017B010E945707F801D2
S1130F3082818E35E9F4C8010E94F203BE016F5F1D
S1130F407F4FC8010E94570729813A814B815C81F8
S1130F50F70160817181828193810E94530FF701AF
S1130F606083718382839383F80182818E3519F3C0
S1130F700F900F900F900F90DF91CF911F910F91D1
S1130F80FF90EF900895EF92FF920F931F93CF93EA
S1130F90DF9300D000D0CDB7DEB78C017B010E9477
S1130FA08907F80182818A3219F08F32D9F034C06E
S1130FB0C8010E94F203BE016F5F7F4FC8010E9407
S1130FC0890729813A814B815C81F70160817181B4
S1130FD0828193810E94E60EF7016083718382838C
S1130FE09383DFCFC8010E94F203BE016F5F7F4F7E
S1130FF0C8010E94890729813A814B815C81F701EC
S113100060817181828193810E94EC0BF70160837E
S1131010718382839383C5CF0F900F900F900F90AD
S1131020DF91CF911F910F91FF90EF9008958F92D0
S11310309F92BF92CF92DF92EF92FF920F931F93F2
S1131040CF93DF93CDB7DEB76E970FB6F894DEBFBC
S11310500FBECDBF8C017B01FC0180A18230C9F59C
S1131060819091906F01BF01CE0101960E94F3100F
S1131070F801B280C8010E94F203F80182818D3325
S113108061F091828082BE016F5F7F4FC6010E9432
S1131090F31082E0F80180A31CC0C8010E94F2038F
S11310A0B701C8010E94BE04F701408151816281E9
S11310B073818B2D90E081549109880F991F880FBB
S11310C0991FF801E80FF91F41A352A363A374A366
S11310D004C0B701C8010E94BE046E960FB6F8940E
S11310E0DEBF0FBECDBFDF91CF911F910F91FF9057
S11310F0EF90DF90CF90BF909F908F9008950F93C3
S11311001F93CF93DF9300D000D0CDB7DEB78C010F
S1131110FC01E75BFF4F1082FC01718360830E9436
S1131120F203F801828181110EC0D801A75BBF4F81
S113113086E1E8E8F1E001900D928A95E1F760E03C
S113114070E0CB0118C0BE016F5F7F4FC8010E94E1
S11311501708F8018281882351F0D801A75BBF4F9B
S11311608DE0EBE7F1E001900D928A95E1F769815A
S11311707A818B819C810F900F900F900F90DF915B
S1131180CF911F910F910895CF93DF93CDB7DEB721
S1131190C054D1090FB6F894DEBF0FBECDBF8DE0A9
S11311A0EEE9F1E0DE01119601900D928A95E1F7E6
S11311B0AE014F5F5F4F61E081E00E94B70384E1BD
S11311C0EBEAF1E0DE011E9601900D928A95E1F7BB
S11311D0AE01425F5F4F6CE081E00E94B70381E1A2
S11311E0EFEBF1E0DE01929601900D928A95E1F722
S11311F0AE014E5D5F4F68E181E00E94B7038EE06F
S1131200E0EDF1E0DE01D39601900D928A95E1F7CD
S1131210AE014D5C5F4F64E281E00E94B703C05CA5
S1131220DF4F0FB6F894DEBF0FBECDBFDF91CF9175
S11312300895CF93A1E0B0E064E070E0CD01062E04
S113124002C0880F991F0A94E2F788BBCB01049768
S1131250FC01E054FF4F20E030E0C82F592F86B343
S113126090E0022E02C0959587950A94E2F780FFDC
S113127023C08C2F952F408141534430A0F44FEF6D
S113128054E36CE0415050406040E1F700C000007E
S1131290220F331F220F331F20543F4FF901E80F51
S11312A0F91F80811CC08FEF94E34CE08150904083
S11312B04040E1F700C000002F5F3F4F34962430D8
S11312C0310569F68FE19EE40197F1F700C0000053
S11312D06F5F7F4F6830710509F0B0CFADCFCF910C
S11312E008959C01FA019081992351F0D901A60F28
S11312F0B71F31969D936F5F7F4F91919111FACFF4
S1131300F901E60FF71F10820895CF93DF93CDB74D
S1131310DEB7CD59D1090FB6F894DEBF0FBECDBFED
S11313200E942D0388248394912CC12CD12C9E01DE
S11313302F5F3F4F1901C656DF4F2883CA59D0404B
S1131340C556DF4F3882CB59D0400F2EF0E64F2ED2
S1131350F0E05F2EF02D6894EE24E2F8F12C81E0A9
S113136090E00E2C02C0880F991F0A94E2F788BB04
S11313708BBBC70184549F4F5C01320100E010E035
S113138086B390E0002E02C0959587950A94E2F703
S113139080FF97C0F50180818334B9F419820E94DB
S11313A02D03C656DF4F4881CA59D040C556DF4F7A
S11313B05881CB59D04061E081E00E94B703882472
S11313C08394912CC12CD12C72C08D3309F04CC064
S11313D0CE01C3960E94DF03C656DF4F6881CA5907
S11313E0D040C556DF4F7881CB59D040CE01C3964B
S11313F00E947F08FFEF20E732E0F15020403040A8
S1131400E1F700C00000C656DF4F0881CA59D0403A
S1131410C556DF4F1881CB59D04022E041E00E94ED
S11314209F104FEF80E792E0415080409040E1F7F9
S113143000C000000E942D03EFEFF0E722E0E1502E
S1131440F0402040E1F700C00000C656DF4F48815D
S1131450CA59D040C556DF4F5881CB59D04061E0BE
S113146081E00E94B703B0C0F101EC0DFD1D808343
S11314703FEFC31AD30AF101EC0DFD1D1082C656CD
S1131480DF4F4881CA59D040C556DF4F5881CB59E8
S1131490D040682D81E00E94B70344E1C416D10412
S11314A031F48CE0880E911C1982C12CD12C9FEF51
S11314B0E4E3FCE09150E040F040E1F700C00000BC
S11314C077C089B390E0002E02C0959587950A9461
S11314D0E2F780FF6DC0F30180818C3391F5C11474
S11314E0D10451F4FFEF24E33CE0F15020403040BC
S11314F0E1F700C000005CC041E0C41AD108C1019A
S11315008C0D9D1DC456DF4F99838883CC59D040E0
S113151020E2FC012083C656DF4F4881CA59D040DF
S1131520C556DF4F5881CB59D040682D81E00E94C9
S1131530B703C456DF4FE881F981CC59D0401082FB
S113154016C0A301B601C656DF4F8881CA59D040E0
S1131550C556DF4F9881CB59D0400E947109F101E3
S113156001900020E9F731976F01C218D308C656DD
S1131570DF4F4881CA59D040C556DF4F5881CB59F7
S1131580D040682D81E00E94B703F4E1CF16D10466
S113159031F42CE0820E911C1982C12CD12C3FEF26
S11315A044E38CE0315040408040E1F700C000004B
S11315B00F5F1F4F98E1690E711CE4E0AE0EB11C81
S11315C00430110509F0DCCE8FE19EE40197F1F7B8
S11315D000C000009FEFE91AF90AE6E04E0E511C24
S11315E0F8E0EF16F10409F4B0CEB9CE0E947C0203
S11315F00E942D030E94C4088FEF87BB8ABB0E9400
S11316001909813311F40E94850980E090E008955E
S11316109F939F770E94EC0C0F90002042F4905807
S1131620A2EA2AED3FE049E450E40E94310B0C9415
S1131630B20D5058BB27AA270E94310B0C94B20D4F
S11316400E94790D38F00E94800D20F039F49F3FFC
S113165019F426F40C943B0D0EF4E095E7FB0C947E
S11316600C0DE92F0E94D70D58F3BA1762077307C0
S11316708407950720F079F4A6F50C94110E0EF466
S1131680E0950B2EBA2FA02D0B01B90190010C018E
S1131690CA01A0011124FF27591B99F0593F50F4A6
S11316A0503E68F11A16F040A22F232F342F4427FE
S11316B0585FF3CF469537952795A795F0405395F6
S11316C0C9F77EF41F16BA0B620B730B840BBAF0C6
S11316D09150A1F0FF0FBB1F661F771F881FC2F731
S11316E00EC0BA0F621F731F841F48F48795779545
S11316F06795B795F7959E3F08F0B0CF9395880FFF
S113170008F09927EE0F9795879508959F939F77F3
S1131710EEE389379E0728F4E4E5F0E00E94650DC6
S11317200CC00E94EC0C9058A2EA2AED3FE049EC70
S11317305FE30E94310B0E94B20D0F9007FC90589A
S11317400895DF93DD27B92FBF7740E85FE31616CE
S1131750170648075B0718F4D92F0E94180E9F93A9
S11317608F937F936F930E943B10E8E6F0E00E9412
S11317703E0D0E94B20D2F913F914F915F910E94B7
S1131780F90EDD2351F09058A2EA2AED3FE049EC2E
S11317905FE3D0785D270E94310BDF910C94B20D8A
S11317A090680E94660C4FEF5FEF0E94240E9F9397
S11317B08F937F936F9342E050E00E94240E0E9427
S11317C0180E2F913F914F915F910C941A0B0E9428
S11317D0890DE3950C94C30D0E94000C0C94B20D7A
S11317E00E94800D58F00E94790D40F029F45F3F6B
S11317F029F00C940C0D51110C94120E0C943B0D09
S11318000E94D70D68F39923B1F3552391F3951BE7
S1131810550BBB27AA2762177307840738F09F5F0D
S11318205F4F220F331F441FAA1FA9F335D00E2E7A
S11318303AF0E0E832D091505040E695001CCAF7E7
S11318402BD0FE2F29D0660F771F881FBB1F2617AA
S113185037074807AB07B0E809F0BB0B802DBF0181
S1131860FF2793585F4F3AF09E3F510578F00C9450
S11318700C0D0C94120E5F3FE4F3983ED4F386955E
S113188077956795B795F7959F5FC9F7880F911D71
S11318909695879597F90895E1E0660F771F881F5D
S11318A0BB1F621773078407BA0720F0621B730B10
S11318B0840BBA0BEE1F88F7E095089529F416F00F
S11318C00C940C0D0C94110E0C943B0D0E94DF0D26
S11318D0A8F39638A0F707F80F92E8942BE33AEAB6
S11318E048EB5FE70E94FC0E0F920F920F924DB7E8
S11318F05EB70F920E94B20EE5E9F0E00E943E0D41
S11319004F915F91EF91FF91E595EE1FFF1F49F015
S1131910FE57E0684427EE0F441FFA95E1F741951E
S1131920550B0E94240E0F9007FE0C94180E089578
S1131930E89409C097FB3EF4909580957095619565
S11319407F4F8F4F9F4F9923A9F0F92F96E9BB271B
S11319509395F695879577956795B795F111F8CF97
S1131960FAF4BB0F11F460FF1BC06F5F7F4F8F4F02
S11319709F4F16C0882311F096E911C0772321F0F8
S11319809EE8872F762F05C0662371F096E8862F90
S113199070E060E02AF09A95660F771F881FDAF7E7
S11319A0880F9695879597F908950E94F90D90F000
S11319B09F3748F4911116F00C94120E60E070E019
S11319C080E89FEB089526F41B16611D711D811D8F
S11319D00C94120D0C942D0DDF93CF931F930F9342
S11319E08B01EC01EDEBF0E00E943E0D0E94B20D84
S11319F09801AE018B01EC0160E070E080E89FE3A8
S1131A000E94190B0E94FB0F9801AE010F911F91C8
S1131A10CF91DF910C94F90E97F99F6780E870E0FD
S1131A2060E00895882371F4772321F09850872B80
S1131A30762F07C0662311F499270DC09051862B89
S1131A4070E060E02AF09A95660F771F881FDAF736
S1131A50880F9695879597F908959F3F31F0915097
S1131A6020F4879577956795B795880F911D96957E
S1131A70879597F908959FEF80EC0895DF93CF93AE
S1131A801F930F93FF92EF92DF927B018C01689476
S1131A9006C0DA2EEF010E94F90EFE01E894A5912A
S1131AA02591359145915591A6F3EF010E94310B93
S1131AB0FE019701A801DA9469F7DF90EF90FF9097
S1131AC00F911F91CF91DF9108959F938F937F93EF
S1131AD06F93FF93EF939B01AC010E94E60EEF918D
S1131AE0FF910E943E0D2F913F914F915F910C9475
S1131AF0E60E00240A941616170618060906089519
S1131B0000240A94121613061406050608950C946C
S1131B103B0D0E94DF0DD8F3E894E0E0BB279F570C
S1131B20F0F02AED3FE049EC06C0EE0FBB0F661F54
S1131B30771F881F28F0B23A62077307840728F0DA
S1131B40B25A620B730B840BE3959A9572F7803843
S1131B5030F49A95BB0F661F771F881FD2F7904801
S1131B600C942F0D092E0394000C11F4882352F0C9
S1131B70BB0F40F4BF2B11F460FF04C06F5F7F4FB5
S1131B808F4F9F4F0895EF93E0FF07C0A2EA2AED1D
S1131B903FE049EC5FEB0E94310B0E94B20D0F90C5
S1131BA0039401FC9058E5EEF0E00C94650D57FDAC
S1131BB09058440F551F59F05F3F71F04795880FB7
S1131BC097FB991F61F09F3F79F08795089512164E
S1131BD013061406551FF2CF4695F1DF08C01616FA
S1131BE017061806991FF1CF8695710561050894AB
S1131BF008950E94DF0DA0F0BEE7B91788F4BB2753
S1131C009F3860F41616B11D672F782F8827985FC8
S1131C10F7CF869577956795B11D93959639C8F357
S1131C200895E894BB2766277727CB0197F9089591
S1131C309B01AC0160E070E080E89FE30C94EC0B46
S1131C400C940C0D0C942D0D0E94DF0DD8F39923E8
S1131C50C9F3940F511DA3F39150504094F059F0DF
S1131C60882332F0660F771F881F91505040C1F7C8
S1131C709E3F51052CF7880F911D9695879597F9EE
S1131C8008955F3FACF0983E9CF0BB27869577950E
S1131C906795B79508F4B1609395C1F7BB0F58F7F2
S1131CA011F460FFE8CF6F5F7F4F8F4F9F4FE3CFFB
S1131CB00C94120E0E946A0E29ED3BE54EED5EE394
S1131CC00C94E60E16F00C942D0D0C943B0D6894B8
S1131CD00C940C0D0E94DF0DA8F39923C1F3AEF30D
S1131CE0DF93CF931F930F93FF92C92FDD27882390
S1131CF02AF02197660F771F881FDAF720E030E07B
S1131D0040E85FEB9FE3883920F0803E38F021966D
S1131D108F770E941A0BE3E0F1E004C00E941A0BD3
S1131D20E0E3F1E00E943E0D8B01BE01EC01FB2ECD
S1131D306F5771097595771F880B990B0E949A0C40
S1131D4028E132E741E35FE30E94F90EAF2D9801E9
S1131D50AE01FF900F911F91CF91DF910E94310B43
S1131D600C94B20DFA01DC01AA0FBB1F9B01AC015C
S1131D70BF5728F4222733274427507820C0B7516F
S1131D8090F4AB2F0024469537952795011CA39515
S1131D90D2F3002071F0220F331F441FB395DAF3FE
S1131DA00ED00C94190B61307105A0E88A07B9466E
S1131DB030F49B01AC01662777278827907830960A
S1131DC021F0208331834283538308950E94F90EC6
S1131DD00C94B20D0E94790D38F00E94800D20F011
S1131DE0952311F00C940C0D0C943B0D11240C94C0
S1131DF0120E0E94D70D70F3959FC1F3950F50E01A
S1131E00551F629FF001729FBB27F00DB11D639FA8
S1131E10AA27F00DB11DAA1F649F6627B00DA11D4E
S1131E20661F829F2227B00DA11D621F739FB00DF4
S1131E30A11D621F839FA00D611D221F749F332764
S1131E40A00D611D231F849F600D211D822F762FFD
S1131E506A2F11249F5750409AF0F1F088234AF0DA
S1131E60EE0FFF1FBB1F661F771F881F9150504046
S1131E70A9F79E3F510580F00C940C0D0C94120EA2
S1131E805F3FE4F3983ED4F3869577956795B795CD
S1131E90F795E7959F5FC1F7FE2B880F911D9695E7
S1131EA0879597F90895FA01EE0FFF1F30962105E3
S1131EB03105A1F16115710561F48038BFE39B0719
S1131EC049F168949038810561F08038BFEF9B0731
S1131ED041F099234AF5FF3FE1053105210519F148
S1131EE0E8940894E795D901AA2329F4AB2FBE2FCF
S1131EF0F85FD0F310C0FF5F70F4A695E0F7F739F0
S1131F0050F019F0FF3A38F49F779F930DD00F905B
S1131F1007FC9058089546F00C943B0D60E070E087
S1131F2080E89FE308954FE79F775F934F933F9334
S1131F302F930E946A0E2F913F914F915F910E94BF
S1131F40E60E0C94660C0E94DF0DE8F09E37E8F074
S1131F509639B8F49E3848F4672F782F8827985F0D
S1131F60F9CF86957795679593959539D0F3B62FE4
S1131F70B1706B0F711D811D20F48795779567955E
S1131F8093950C94120D0C942D0D0C94120E9F939A
S1131F909F77FEE3803A9F0728F4EDE5F1E00E9485
S1131FA0650D17C090680E94660C4FEF5FEF0E94AA
S1131FB0240E9F938F937F936F9342E050E00E948F
S1131FC0240E0E94180E2F913F914F915F910E9411
S1131FD0190B0F9007FC906808959F930E94890D38
S1131FE00F9007FCEE5F0C94C30D19F416F40C94D7
S1131FF03B0D0C942D0D0E94DF0DB8F39923C9F30A
S1132000B6F39F57550B87FF0E9498100024A0E653
S113201040EA900180585695979528F4805C660FA5
S1132020771F881F20F026173707480730F4621BF4
S1132030730B840B202931294A2BA69517940794F6
S1132040202531254A2758F7660F771F881F20F06F
S113205026173707480730F4620B730B840B200DE7
S1132060311D411DA09581F7B901842F9158880F26
S11320709695879508959B01AC010C94E60E9F9369
S11320809F77FEE380319F0728F4ECE6F1E00E949D
S1132090650D25C0906841E050E00E94240E0E9426
S11320A0660C9F938F937F936F9320E030E040E81A
S11320B05FE30E941A0B2F913F914F915F919F9381
S11320C08F937F936F9360E070E080E89FE30E94BA
S11320D0190B2F913F914F915F910E94EC0B0F9040
S11320E007FC90580895DF93D92F0E94890DE69537
S11320F0D7952AED3FE049E45FE3B33A62077307FB
S113210084079507D7953AF0A2EA49EC90680E94B3
S1132110310B0E94B20DEBE7F1E00E94650DDD0F7B
S113212013F00E94180EDD0F0BF49058DF91089500
S113213091505040660F771F881FD2F70895EF9291
S11321400F931F93CF93DF93E80147FD02C034E060
S113215001C034E1042E000C550B57FF03C0519508
S113216041955109E32E022F242FAE010E94FA104B
S1132170CE01DF91CF911F910F91EF9008956627C3
S113218077270C94541285FD0C947A148062911173
S11321900C947A1481568A51D8F7089591110C94AD
S11321A07A14803219F089508550C8F70895911136
S11321B0089581568A5108F4805285580895FC0187
S11321C08191861721F08823D9F7992708953197AB
S11321D0CF010895FB01DC018D910190801901105C
S11321E0D9F3990B0895FB01DC0101900D920020B5
S11321F0E1F70895A9E0B0E0E0E0F1E10C94CF1438
S11322006A01122FB02E2BE3201720F0FF24F39441
S1132210F00E02C02CE3F22E0F2D27E0AE014F5F2B
S11322205F4F0E94A213BC014981842F89708130C1
S113223031F0E1FC06C0E0FE06C090E205C09DE27C
S113224003C09BE201C090E05E2D507143FF3CC08F
S1132250911102C083E001C084E0811718F4212F9A
S1132260281B01C020E051110BC0F601822F30E27F
S1132270882319F031938150FBCFC20ED11C20E08A
S1132280992329F0D6019C93F60131966F01C6017A
S11322900396E2FE0AC03EE4D6013C9341E4119663
S11322A04C93119712963C9306C03EE6F601308398
S11322B041E641833283FC01322F40E2332309F4A7
S11322C042C041933150FACF42FF44C0911102C041
S11322D083E001C084E0811718F4212F281B01C07A
S11322E020E051110BC0F601822F30E2882319F04F
S11322F031938150FBCFC20ED11C20E0992329F0E9
S1132300D6019C93F60131966F01C6010396E2FE55
S11323100BC039E4D6013C933EE411963C931197EB
S113232036E412963C9307C039E6F60130833EE664
S1132330318336E63283FC01322F40E2332319F035
S113234041933150FBCFFC01E20FF11D10828EEF5F
S11323509FEFA6C021E030E0911102C020E030E000
S1132360161617061CF4FB01319602C0E1E0F0E0FA
S11323702E0F3F1FBB2021F0EB2DF0E0319602C061
S1132380E0E0F0E02E0F3F1FE12FF0E02E173F07B3
S11323901CF4121B212F01C020E08E2D887159F4EA
S11323A0F601822F30E2882319F031938150FBCF5C
S11323B0C20ED11C20E0992329F0D6019C93F6018A
S11323C031966F0151110BC0F601822F90E38823DF
S11323D019F091938150FBCFC20ED11C20E00F2D38
S11323E0060F9A81342F307144FF03C0913309F4EE
S11323F00150101624F4093018F008E001C001E07F
S1132400AB0177FF02C040E050E0FB01E41BF50B99
S1132410A1E0B0E0AC0FBD1FEA0FFB1F8EE2A82EB7
S11324204B01801A91080B2D10E0119501951109AB
S11324304F3FBFEF5B0721F4D601AC9211966D01BB
S1132440641775072CF08416950614F4818101C075
S113245080E3415051093196D60111967D01401710
S1132460510724F0D6018C936701E2CF64177507F6
S113247039F4963320F4953319F4311101C081E312
S1132480F6018083F701822F90E2882319F091935B
S11324908150FBCFF701E20FF11D108280E090E044
S11324A02996ECE00C94EB14A0E0B0E0EAE5F2E14C
S11324B00C94CF14EC016B016115710519F0FB014B
S11324C0918380837E01FFEFEF1AFF0A0881802F3A
S11324D090E00E94CE10892B11F0E701F3CF0D326A
S11324E039F47E0182E0E80EF11C098111E008C094
S11324F00B3229F47E0192E0E90EF11C098110E00F
S1132500E701219743E050E066EA71E0CE010E94C2
S11325107D14892BC1F4239645E050E061EA71E013
S1132520CE010E947D14892B09F42596C114D1048F
S113253019F0F601D183C0831111F6C060E070E098
S113254080E89FE7FAC043E050E06EE971E0CE0115
S11325500E947D14892B59F4C114D10409F4E9C0F3
S1132560F2E0EF0EF11CF601F182E082E2C020E01D
S113257030E0A901C0E0D0E0F70180EDA82EA00E64
S113258089E08A1530F1912F9260B92E812F8870DD
S113259012FF04C0811124C0219622C08111219709
S11325A0A5E0B0E00E94BE14DC01CB01880F991FA6
S11325B0AA1FBB1F9C01AD012A0D311D411D511DD8
S11325C0283989E93807480789E1580748F016602F
S11325D006C09EEFA9120AC013FD40C01860B12EB8
S11325E08FEFE81AF80A00811B2DC6CF802F8F7D4C
S11325F08534A1F580818D3211F4106106C08B32CF
S113260021F0319661E070E004C08181329662E08D
S113261070E080538A3018F0E61BF70B1FC060E0AF
S113262070E060389CE079075CF4DB01AA0FBB1F03
S1132630AA0FBB1F6A0F7B1F660F771F680F711DE0
S11326403196DF0111978C9180538A3050F314FF37
S113265003C0719561957109C60FD71F11FF08C09A
S1132660C114D10429F0CF010197F601918380832D
S1132670CA01B9010E94980C212F2370233019F04C
S11326804B015C0106C04B015C01B7FAB094B7F88A
S1132690B09420E030E0A901C501B4010E94951472
S11326A0882309F43EC0D7FF06C0D195C195D1094E
S11326B00DEB11E002C005ED11E06801F8E1CF1A5D
S11326C0D10890E2E92EF12CCE15DF0574F0F80163
S11326D02591359145915491C501B4010E94E60EAE
S11326E04B015C01CE19DF09EFCF04501109F594B9
S11326F0E7940C151D0541F78A2D880F8B2D881F33
S11327008F3F49F020E030E0A901C501B4010E94E7
S11327109514811106C082E290E09093DF058093C6
S1132720DE05C501B40109C060E070E080E89FEFF8
S113273004C060E070E080EC9FE7CDB7DEB7ECE06A
S11327400C94EB14283008F027E03327DA01990FB2
S1132750311D87FD916000966105710539F4326081
S11327602E5F3D9330E32A95E1F708959F3F30F0C3
S113277080387105610509F03C5F3C5F3D93913001
S113278008F08068911DDF93CF931F930F93FF92FE
S1132790EF92192F987F9695E92F96959695E90FC4
S11327A0FF27ED5CFD4F99273327EE24FF24A70173
S11327B0E70105900894079428F4360FE71EF81EE5
S11327C0491F511D660F771F881F991F0694A1F793
S11327D00590079428F4E70EF81E491F561FC11DE3
S11327E0770F881F991F661F0694A1F70590079419
S11327F028F4F80E491F561FC71FD11D880F991FB3
S1132800661F771F0694A1F70590079420F4490FDB
S1132810561FC71FD81F990F661F771F881F06945E
S1132820A9F784911095177041F0D695C7955795DF
S11328304795F794E7941A95C1F7E9EDF1E06894A8
S11328401590159135916591959105907FE2739559
S1132850E118F10A430B560BC90BD009C0F7E10C80
S1132860F11E431F561FC91FD01D7EF4703311F48F
S11328708A95E6CFE894015030F0080F0AF4002757
S1132880021708F4202F2395022F7A3328F079E3D6
S11328907D932A95E9F710C07D932A9589F60694CD
S11328A097956795379517951794E118F10A430B97
S11328B0560BC90BD00998F023957E9173957A3302
S11328C008F070E37C932013B8F77E9170617D93D8
S11328D030F0839571E37D9370E32A95E1F7112439
S11328E0EF90FF900F911F91CF91DF91992787FD72
S11328F090950895992788270895FB01DC0141509C
S1132900504088F08D9181341CF08B350CF4805E3E
S1132910659161341CF06B350CF4605E861B6111AB
S113292071F3990B0895881BFCCF0E949A1408F444
S113293081E00895990F0008550FAA0BE0E8FEEF17
S113294016161706E807F907C0F012161306E4076F
S1132950F50798F0621B730B840B950B39F40A2668
S113296061F0232B242B252B21F408950A2609F446
S1132970A140A6958FEF811D811D08950E94001529
S1132980A59F900DB49F900DA49F800D911D1124BF
S113299008952F923F924F925F926F927F928F92FF
S11329A09F92AF92BF92CF92DF92EF92FF920F93DA
S11329B01F93CF93DF93CDB7DEB7CA1BDB0B0FB6E4
S11329C0F894DEBF0FBECDBF09942A8839884888A1
S11329D05F846E847D848C849B84AA84B984C88437
S11329E0DF80EE80FD800C811B81AA81B981CE0F2E
S11329F0D11D0FB6F894DEBF0FBECDBFED01089513
S1132A00A29FB001B39FC001A39F700D811D11242B
S1132A10911DB29F700D811D1124911D0895F8948C
S1052A20FFCFE2
S1132A2273696E280000636F7328000074616E2856
S1132A3200007371727428005E00000000005800E8
S1132A42000000005900000000003C2D00000000BE
S1132A522C00000000002E000000000028000000EE
S1132A6200002900000000004300000000004300B1
S1132A7200000000430000000000430000000000CA
S1132A823738392F3435362A3132332D43303D2B02
S1132A922B2D2A2F255E3D282900202B2D2F2A2578
S1132AA25E3D2829090D004F6E6C792066697273A8
S1132AB274206C6574746572206F66207661726925
S1132AC261626C657320697320636F6E73696465F8
S1132AD272656400556E62616C616E636564205058
S1132AE26172656E746865736573004153494E0083
S1132AF241434F53004154414E004153494E480013
S1132B0241434F5348004154414E48004C4E004CFF
S1132B124F470045585000535152540053515200EC
S1132B22524F554E4400494E5400556E6B6E6F77AA
S1132B326E2046756E6374696F6E0053796E7461AC
S1132B4278204572726F72004E6F204578707265FC
S1132B527373696F6E2050726573656E7400312EE3
S1132B6243616C63756C61746F7200322E476175D8
S1132B72737320456C696D696E6174696F6E00339D
S1132B822E4E6577746F6E2052617068736F6E009B
S1112B92342E496E746567726174696F6E004B
S9030000FC
